:020000040800F2
:2000000000C00020E95A0008F9330008FB330008FD330008FF33000801340008000000009C
:20002000000000000000000000000000193500080334000800000000AB350008BB3500084B
:200040002D5B00082D5B00082D5B00082D5B00082D5B00082D5B0008E12F00082D5B000898
:20006000013000082D5B00082D5B00082D5B00082D5B00082D5B00082D5B00082D5B000857
:200080002D5B00082D5B0008411600082D5B00082D5B00082D5B00082D5B00082D5B000811
:2000A0002D5B00082D5B00082D5B00082D5B00082D5B00082D5B00082D5B00082D5B0008C0
:2000C0002D5B00082D5B00082D5B00082D5B00082D5B00082D5B00082D5B00082D5B0008A0
:2000E0002D5B00082D5B00082D5B00082D5B00082D5B00082D5B00082D5B00082D5B000880
:200100002D5B00082D5B00082D5B00082D5B00082D5B00082D5B00082D5B00082D5B00085F
:200120002D5B000800000000000000000000000000000000000000005FF808F1FFFFFFFFE3
:2001400010B5054C237833B9044B13B10448AFF300800123237010BD580100200000000084
:200160007483000808B5034B1BB103490348AFF3008008BD000000005C01002074830008AF
:2001800010B5D0E90042D1E900039A4208BF844206D0844272EB030304DA4FF0FF3010BD61
:2001A0000020FCE70120FAE71AB1012A04D000207047024B0360FAE70160F8E78C830008B1
:2001C0001AB1012A04D000207047024B0360FAE70160F8E794830008034B188A00F00100AD
:2001E00080F00100704700BF000002401AB1012A04D000207047024B0360FAE70160F8E764
:200200009C830008034B188A80F00400C0F38000704700BF000002401AB1012A04D000207E
:200220007047024B0360FAE70160F8E7A48300082AB1012A06D0022A05D10B6800E0034B88
:20024000036000E001600020704700BFAC8300082AB1012A06D0022A05D10B6800E0034BAE
:20026000036000E001600020704700BFB48300082AB1012A06D0022A05D10B6800E0034B86
:20028000036000E001600020704700BFBC8300081AB1012A04D000207047024B0360FAE7AB
:2002A0000160F8E7C483000813B56C460B46024603C884E8030093E8030082E8030094E8FB
:2002C000030083E8030002B010BD38B505460C46FFF7EAFFAB68A268AA60A360EB68E268FE
:2002E000EA60E36038BD70472DE9F0410022012703260B6807FA02FE3EEA03032BD1036802
:2003000091F804C0540006FA04F86FEA080523EA08080CFA04F30CF1FF3C43EA0803BCF1A3
:20032000010F03600ED883682B404D79A5401D43856083889BB223EA0E058B7993409BB282
:200340002B438380C36806FA04F523EA0505CB79A3402B43C3600132102ACAD1BDE8F0811B
:200360000123017883604288436809B15A8370471A8370470023017883604288436809B138
:200380001A8370475A83704708B50248FFF7F2FF002008BD7801002008B50248FFF7EAFF23
:2003A000002008BD84010020014BD868704700BF4000002000487047F492000800487047C5
:2003C000FD920008014B5869704700BF40000020EFF310832BB9EFF31180003818BF0120A7
:2003E000704701207047014B187A7047400000204FF47A70704708B5EFF3058313B16FF04B
:20040000050008BDFFF7E4FF0028F8D1DFF804C000DFF6E7E512000808B5EFF3058313B107
:200420004FF47A7008BDFFF7D3FF0028F8D1DFF808C000DFF6E700BFF1030008034610B5ED
:2004400088B1084310F007000DD117290AD9102219600839CC189C605A60C85099684A60C7
:20046000D860012010BD0020FCE70346F0B588B159B30F3121F0070100F108073C463F689E
:200480006568381B25F00305401B814203D938680028F3D1F0BD5E681D680E445E602B4422
:2004A00053F8040C083B864288BF5E60636811431BB9616004F10800ECE723F00303E0183C
:2004C000E750416020600830E4E70846E2E710B5D0E85F3F5A1C914200D80022C0E8542F21
:2004E00004B1F5E798B210BD930710B502F0010422D400F1280384B153E8000F00EA010280
:200500008A4203D0BFF32F8F002005E020EA010243E8002404B1EFE710BD53E8000F08427F
:2005200003D1BFF32F8F002005E020EA010243E8002404B1F1E7EFE7806A01EA00031CB10E
:200540008B4218BF0020E7E7002B08BF0020E3E710B591F9202083681BB193F92040944225
:2005600005DAC1E90230816003B1D96010BD18469B68F1E70346806882689A6002B1D360F1
:200580000023C3607047C2682AB18368936003B1DA600023C3607047012301464370014829
:2005A000D6E700BF5C00002010B5D0E90431C469621C0CD103B1596142691AB1136100238D
:2005C000436101E0074A13630023C36110BD1BB1DA6959612244DA614269002AEED1014A72
:2005E000D362F1E740000020012310B5094A437090F92010536A1C321BB193F920408C4255
:2006000005DCC0E90232906003B1D86010BD1A469B68F1E7400000200223C278437052076D
:2006200058BF032383F31488BFF36F8F014B9861704700BF4000002010B5134B04461A7A9F
:20064000596998B9022A1DD15C6ADCB194F9202091F920309A4215DD2046FFF794FF084668
:20066000FFF7C2FF2046BDE81040D5E7022A05D190F9202091F920309A42F0DC2046BDE854
:20068000104089E710BD00BF4000002010B51446836B1962FFF788FF14B1BDE81040CBE73D
:2006A000BDE8104078E72DE9F0410446002601270CB9BDE8F081E378D4F814801B0712D568
:2006C000A36826767BB12046FFF754FF002205461146FFF7DBFFEB6AC4E90356636103B131
:2006E0001C61EC6227764446E2E738B51D4C0246237A022B33D1606A98B163695A704A1CC4
:2007000015D10021226B6AB94FF0FF30C3E90421D86151B10B611448FFF72CFFFFF77CFF4E
:20072000012038BD11461269EDE72363F3E70020E26A12B1D569A9420BD2C3E90420D9615E
:2007400058B10361002AE6D0D0695361411AD161E1E71046491B1269EBE7E362F2E70020C5
:20076000DFE700BF400000205C000020014608B538B11320FFF7B9FF80F00100C0B24042E5
:2007800008BD6FF00300FBE708B58847DFF804C000DFFEE70133000810B543780446332B01
:2007A0000BD1416A90F82320FFF79EFE014620B12046BDE81040002268E710BD10B5044695
:2007C000806918B100221146FFF760FF6378232B02BF0022A3689A6110BD70B5044648B350
:2007E0000378F12B26D1002924DB4378042B24D000F1280353E8002F42EA010543E800562C
:2008000006B1F7E74378332B12D1416A90F82320FFF76AFE014658B194F8233001229B077F
:2008200056BF656A054620EA05052046FFF72EFF284670BD6FF00305FAE76FF00205F7E7C5
:200840000B4B10B55B6963B100280DDB283353E8002F22EA000143E8001404B1F7E710469B
:2008600010BD4FF0FF30FBE76FF00300F8E700BF40000020F8B5114B04465E690F46154631
:2008800096B1002813DB0A4601463046FFF72CFE48B97DB129463320746286F82370FFF700
:2008A00024FF6FF00100F8BD4FF0FF30FBE76FF00300F8E76FF00200F5E700BF4000002013
:2008C000002230B50B4D6B6C13B11C698C420AD9C0E9022301611BB11C699860611A19617A
:2008E0002AB1D06030BD1A46091BDB68ECE76864F8E700BF40000020C36810B52BB1046963
:200900001A69816822441A61996082680AB1D36010BD014A5364FBE74000002038B50D4668
:200920000446B0B10378F22B13D191B14378022B08D14161FFF7E0FF20462946FFF7C0FF8C
:20094000002038BD064B1B6D33B1022343706161F2E76FF00300F4E76FF00200F1E700BF1D
:200960004000002008B558B10278F22A08D14278022A08D101224270FFF7BEFF002008BDB6
:200980006FF00300FBE76FF00200F8E740B10378F22B04D14078831E584258417047002012
:2009A0007047024608B5EFF305830BB1002008BDFFF70EFD0028F9D11046DFF808C000DFA9
:2009C000F5E700BF8D0900087047164B0268196810B521EA02011960596821EA0201596007
:2009E0001149D1F800442243C1F800249968026821EA02019960D96821EA0201D96041799A
:200A0000102906D1996811439960D9680A43DA6010BD01F1804303F5823319680A431A6039
:200A2000F6E700BF0004014000000140F8B5044608250C4E06F10C073046FFF79BFC2306E0
:200A400038460BD5FFF78CFC3046013DFFF788FC640015F0FF05E4B2EED1F8BDFFF78AFC99
:200A6000F2E700BF900100200F4B10B5DB68DB43C3F30223C3F10404E4B2A1400F2444FA2E
:200A800003F31A40C9B21143084A09011318C9B283F800130123410900F01F0003FA00F03D
:200AA00042F8210010BD00BF00ED00E000E100E030B5E0B1C3688B4219D80369994216D233
:200AC00000F114031A680A60BFF35F8F53E8002F0C689442F6D143E8001505B1F2E7043004
:200AE00050E8003F5A1E40E8002101B1F8E730BD30B588B181B17AB173B10024C0E9014291
:200B000002FB01F41D190160C360436105611846013902D1A21A995030BD851805602846B2
:200B2000F6E750E8003F5A1C40E8002101B1F8E7704710B590B100F1140353E8004F14B9F5
:200B4000BFF32F8F04E0226843E8002101B1F4E714B10430FFF7E5FF204610BD0446FBE7AC
:200B6000F8B50E4617461C46054608B90020F8BD0129FBD8C3B1D4E902021B6888B1202A9C
:200B8000F4D11C4600234FF4F97283700023C0E90657C0E90233C0E904330280C670446027
:200BA000E5E7002AE2D11C46084BD3F88C0028B1FFF7BFFF0028D9D00123E4E701222021CF
:200BC000D3F88000FFF751FCF4E700BF40000020036B30B4B3B10024CD78DA78AA4209D354
:200BE0001A46C1E901245AB1916074B16160283030BC96E75A681C46002AF2D01346ECE7E7
:200C0000C162F2E7C1E90133C1620163EFE730B578B171B10023A1F1080400F108029442DB
:200C200008D1626822F003054268521B42603BB9636030BD15681346002DFAD02A46EEE788
:200C400051F8082C1A60F4E72DE9F04F85B0CDE9010120B90024204605B0BDE8F08F002A1A
:200C600000F08B80D2E9018408F00603062BF1D0D368002C7ED0502BECD1D2E904B5BBF139
:200C8000000F04D01BF0070FE4D1002DE2D09769D2F800A0002F77D07A1E372ADAD818F029
:200CA000060F08BF48F0020835B16B07D2D1524AA5F148019142CDD8504E002C6DD1D6F852
:200CC0008800002862D0FFF734FF04460028C1D04FF00109BBF1000F12D1002D75D1D6F8DE
:200CE000840000285CD0FFF724FF002873D083464FF4406549F0100949F00209002CA9D0AC
:200D000040F2F1122280FD220021019B628465633B4A403D7FB208F00F085D44A563E36341
:200D2000C4E90211C4E90411C4E90611C4E90911C4E90B1B84F8029084F80380C4F804A066
:200D400084F8207084F82170CBF80020A36B3822184606F02BF82B4A2B4B82634FF08072B7
:200D6000C263029A0262019A426220463366FFF763FC70E7002B80D06CE79246934614468B
:200D80001827154690468AE7182788E701225021D6F88000FFF769FB97E74FF0000999E742
:200DA0002A464FF44061706FFFF75FFB4FF44065F0B9B9F1000F1DD0D6F8882072B1214679
:200DC0001046FFF775FE002496E75A462946706FFFF74BFBECE74FF44065EAE72146D6F8C8
:200DE00080000392FFF713FF039A1446934683E7834681E74C467FE7B7FFFF7F40000020DF
:200E0000A52E5AE2890700089907000810B5C378044613F0010320D1038083789A0708D545
:200E200013F0100F016B124B0ED0D3F88400FFF73FFEA378DB071AD50D4B2146D3F8880069
:200E400030B1BDE8104033E6586FFFF7E0FEF0E7D3F88000BDE81040D9E604234370002335
:200E6000034AC360536B836003B1D860546310BD4000002070B50546E8B10378F22B1AD105
:200E80004378022B01D1FFF737FD0026AB782E8013F0010008D0094B2946D3F88C4024B16C
:200EA0002046FFF705FE304670BDD3F88000FFF7AEFE2046F8E76FF00300F5E74000002060
:200EC000006810B103685B681847704708B5836801460BB10322984708BD10B50446FFF72C
:200EE000F5FF204610BD30B50D460023044685B0694628460293FFF7D7F9029AAB68AA60C0
:200F0000039A0293EB6821466846EA600393FFF7CBF9029BA268A360039B0292E2686846C9
:200F2000E3600392FFF7D2FF05B030BD826810B50AB905F0CDFBC368BDE81040184738B5D5
:200F4000044C04F13005A36B03B9FEE72846FFF7EDFFF8E77801002010B504460C2104F070
:200F60005FFE204610BD10B50446082104F058FE204610BD0B0CF7B5054616468FB2072B4F
:200F80000BD8DFE803F0041B222930373E45254A254CD36943F00103D36140F2013389B238
:200FA0000091204669460193FFF79EF92E706F806C60002E33D0278303B0F0BD194A1B4C0C
:200FC000D36943F00203D361E7E7164A184CD36943F00403D361E0E7124A164CD36943F039
:200FE0000803D361D9E70F4A134CD36943F01003D361D2E70B4A114CD36943F04003D36133
:20100000CBE7084A0E4CD36943F08003D361C4E7044A0C4CD36943F02003D361BDE76783A7
:20102000CAE700BF00380240000002400004024000080240000C02400010024000180240FA
:20104000001C024000140240044607B50A4DEFF30583002BFBD1FFF7BBF902460028F6D13D
:20106000204669464FF0FF33AC4600DF0028EED1DDE900309847EAE7E1110008F8B58178EC
:2010800004468568002935D04368C66873B39D60A2686AB35360002706F10C052146284611
:2010A0002770FFF705FDB368002B46D02846FFF740FD0446002840D03046FFF75BFA054616
:2010C0003A463946FFF7E2FAAD6B726A696A04F10C0005F043FEF923214630462370A7709E
:2010E000AB6A2035E370BDE8F84071E5F562CFE73363D0E7AB68EBB15B78832B1AD128461D
:20110000FFF738FA06460A46FFF7C0FAB66B6A6A04F10C01706A05F021FEB36A20360BB147
:20112000E2781A7000232370214605F10C00BDE8F840BDE421462846D5E7F8BD2DE9F041A1
:201140000C4690461F460546002841D00378FA2B3ED100293CD08368B3B15B78832B13D1E6
:20116000FFF708FA064601220021FFF78FFAB66B21466A6A706A05F0F1FDB06A10B180F8FC
:2011800000800020BDE8F08105F10C00FFF7D1FC064678B121466A6A0C3005F0DFFD0024F3
:2011A000F923314628463370B47086F80380FFF70FFDE6E77FB139469320FFF796FA20B1DE
:2011C000064B28465969FFF7C3F96FF00100D9E76FF00300D6E76FF00200D3E74000002022
:2011E000F8B59C460D461746044600286BD00378FA2B68D1002966D000F1280353E8002F45
:2012000012B9BFF32F8F04E0501E43E8000606B1F4E712B10122E66A7EB9BCF1000F55D030
:2012200061468320FFF761FA20B12D4B20465969FFF78EF96FF0010023E0B01CD0E84F3FB0
:20124000C0E8412F01B1F9E7DBB2002B41D0B668E2E79A60B268AAB153602846626A06F1E1
:201260000C0105F07BFD0FB1F3783B70002504F10C07314638463570FFF71AFCA3681BB96C
:201280000020F8BD2363E8E73846FFF752FC06460028F5D02046FFF76DF907462946012288
:2012A000FFF7F4F9BF6B626A796A06F10C0005F055FDF923B5703370BB6A31462046F370DF
:2012C000FFF786FCDCE76FF00300DAE76FF00200D7E7D6E90132002BBBD1E262BAE700BF44
:2012E0004000002038B51F4C217A01292FD0B1BB9C2204F1080005F059FD1B4B1B4DE365EA
:201300001023A4F8543005234FF4004128462364FFF794F808B1C4F8805000210846FFF7AD
:201320008DF8B0B9D4F88030002108466367FFF785F880B9D4F8803000210846A367FFF773
:201340007DF850B9D4F88030E36701232372002038BD0023E8E70023EEE70023F4E74FF054
:20136000FF30F5E740000020100300205803002010B50446024B036005F0E9FA204610BD8A
:20138000D483000810B50446FFF7F2FF2046042104F046FC204610BD10B50446024B036045
:2013A00005F0D5FA204610BDFC83000810B50446FFF7F2FF2046042104F032FC204610BDD9
:2013C000036810B53BB1BFF35B8F1B7ABFF35B8F0BB904F0B5FF04689CB12268EFF305830B
:2013E00033B9FEF7F5FF18B91046DFF818C000DF201DFFF765FD2046BDE810400C2104F052
:201400000FBC10BD5933000810B5046844B12046FFF7D6FF2046BDE81040042104F000BC19
:2014200010BD406810B503689B689847DFF824C000DFFEE7012909D104F0A5FC05F000F820
:20144000044604F0C9FC204602F044FE04F09BFC04F076FF0133000838B52A4C237A012B93
:2014600003D04FF0FF35284638BD0021264A2748FFF7EAFBA06200F055F805460028F0D175
:20148000234AE16C2348FFF7DFFBA0640028E8D0FF23214A214982F8223092F82230D2689A
:2014A00063F0FF03DB4314BFB3FA83F32023C2F30222C3F12003934298BF531CFE2202FA19
:2014C00003F3154ADBB2D377FF2382F823304FF0E02306221A6147F6FF425A6100229A61B6
:2014E00081F840204FF0FF3222611A690C4842F001021A61FFF73EF8FFF78EF80223237237
:20150000B1E700BF400000201C8400083F0F0008408400084910000800ED00E010030020E9
:201520005C00002038B5FA230C4C00252370082304F10C00C4E9093514220421084BC4E9A3
:201540000155C4E90B556580FFF7D2FA054B064A28461A67054ADC641A6538BD58830020F4
:201560008C830020400000207D100008213000082DE9F84F8846174689462F4EDFF8BCA0E7
:2015800006F15005A9EB08039F4251DD19F8014B0D2C0FD096F84830192B0ED80A2C1CD189
:2015A0000D2BEFD80E23284686F84830FEF7E2FEB12006E0002386F848302846FEF7DAFEB7
:2015C000B020FFF733FA0020FFF730FA1120FFF72DFA2846FEF7C4FED4E70133DBB20E2BB0
:2015E00086F8483014D10020FFF720FA0020FFF71DFA2846FEF7BEFEB120FFF717FA00209C
:20160000FFF714FA1120FFF711FA2846FEF7A8FE4FF0060B203CE4B20BFB04A414F8010B83
:201620000BF1FF3BFFF702FA1BF0FF0BF6D1A9E73846BDE8F88F00BF780100206484000824
:201640002DE9F04F314B324C986DB4F85C2085B010446FF0020280B2A4F85C001A6094F8F2
:201660005E300133DBB2012B04D884F85E3005B0BDE8F08F0023400884F85E3002F0EEFFDC
:20168000D4F89410054603F0FDF9A8B3C4F89450B4F886303F2B45D80133A4F88630002319
:2016A00084F8843000221A4B1A49A3F85C20D3F88C0003F0DFF8184903F028F803F0ECF98C
:2016C0004FF4B4735A3090FBF3F203FB1200134B134A1B7A984203DD03F10A01814208D8EA
:2016E00003F1B401884240F3B481BE33834240F2B08180231383BAE72846D4F8901003F04F
:20170000A3F90028C4D0C4F89050C1E70024014078010020DB0F4940000034430400002021
:20172000000802400123D4F89090D4F8948084F884304146484602F0E1FE4FF07C5102F05B
:20174000E5FF0146284602F0D7FE49460546404602F0D2FED4F898700146284603F08AF809
:20176000D4F89C60394602F0C7FEA94902F0CEFF314602F0C1FEA74902F0C8FFA64902F008
:20178000C5FF394602F0BAFEA449C4F89800009002F0BCFF314602F0B1FED4F88CB0C4F802
:2017A0009C009F490190584602F0B0FF9D49029002F0ACFF0021044603F046F908B104F175
:2017C0000044204603F068F902F04CFF0146204602F092FE4FF0884102F098FF044603F0D1
:2017E00081F9C0F30806304602F038FF0146204602F082FE06F1800804468B48C8F3080889
:2018000000EB8803D3F87453D3F878A3294600EB86035046D3F87493D3F8787302F06CFE7D
:2018200009F1004806463946404602F065FE7F4902F06CFF31460390304602F05FFE039A2F
:201840000146104602F058FE214602F05FFF78490390304602F05AFF41460646404602F08C
:201860004DFE394602F048FE704902F04FFF0146304602F041FE039A114602F03FFE2146F5
:2018800002F044FF06466949404602F03FFF314602F034FE214602F039FF294602F02EFEA6
:2018A00049468046384602F027FE51460646284602F024FE5D4902F029FF31460390304699
:2018C00002F01CFE039B0146184602F015FE214602F01CFF56490390304602F017FF294621
:2018E0000646284602F00AFE514602F007FE4F4902F00CFF0146304602F0FEFD039B19466A
:2019000002F0FCFD214602F001FF06464749284602F0FCFE314602F0F1FD214602F0F6FEA9
:20192000494602F0EBFD00210446029803F08CF808B104F100444146019802F0E7FE214672
:201940000546009802F0E2FE0146284602F0D4FD0146002002F0D0FD364C0746D4F8809089
:20196000216E02F0D3FE494602F0C8FDD4F878800546414603F086F838B9666F284631461D
:2019800003F062F810B92E4600E046462946304602F0B2FD616E0546E067384602F0B6FE46
:2019A000216F8246284602F0B1FE0146504602F0A5FD494602F0A2FD05460146C4F8800061
:2019C000404603F041F810B1C4F8808007E0D4F874802846414603F037F80028F4D10E49D6
:2019E000304602F093FE594602F088FD1249054603F048F810B328460F4902F07DFD0546BF
:201A0000C4F88860C4F88C50C4F8A0704AE600BFF4FDB43F63149D430AD7A339DB0FC93DE7
:201A2000E02E6542610B363B8C830008DB0F493C0000404078010020DB0FC94028460649C5
:201A400003F002F80028DBD02846044902F056FDD5E7802353830AE6DB0FC9C0DB0FC9403B
:201A6000F8B50D460646E0B1EFF30583FBB1144BDC68FEF7D1FC134902460023A4FB0101A6
:201A800003F0A0F800230F4A07460C4603F09AF80023C6E900010B4A3846214603F092F891
:201AA000B26015B10023C5E900330020F8BDFEF78FFC0028DBD1DFF810C000DF0446D8E792
:201AC0004000002040420F00A90300080B4600F10802026070B553F8084BA3420FD11C46C9
:201AE00001F1180554F8046BAC4242F8046BF9D10B6000234A680B7242604B6070BD8A6892
:201B000004608260F4E708B50B68002B02DA0C4804F0C0FD93420AD9B3EB420F4FEA420046
:201B200005D20028B6BF6FF0004308600B600868013001D504F0A8FDBDE8084004F0C6BC49
:201B4000089300080068013104F06AB8024652F8081B914202D08168FFF7F4BF70474068E7
:201B600001F100410139091A914208B502D2184604F090FD08BD012A30B403D10B780370F4
:201B800030BC7047002AFBD030BC05F0E7B8521AFFF7F1BF73B5044616460D4619B912B165
:201BA0000D4804F074FD731B0F2B019307D90022204601A9FFF7A7FF019B2060A3603246CA
:201BC00029462068FFF7E3FF0021019B22686360D15402B070BD00BF2093000810B504469F
:201BE00000F10802026006C94FF000030A44FFF7D1FF204610BD38B500F10803044603609A
:201C000008460D4603F0D8FA4FF000032A1829462046FFF7BFFF204638BD052A10B50446B8
:201C20000CDC931D0EDB05320A2A1AD8DFE802F0171513110F0C2022242628006FF000434C
:201C40009A4210D00F4900E00F4920460CE00F49FBE70F49F9E70F49F7E70F49F5E70F49B2
:201C6000F3E70F49F1E70F49FFF7C5FF204610BD0D49EAE70D49E8E70D49E6E70D49E4E785
:201C80000D49E2E7FC9500084A9300086B930008B2930008E4930008FB9300080B94000898
:201CA00066940008C0940008EE94000812950008449500087A950008C9950008063210B532
:201CC0000446052A12D8DFE802F00F110D0B090307492046FFF78FFF204610BD0549F8E70A
:201CE0000549F6E70549F4E70549F2E70549F0E70A9600081896000870960008E996000851
:201D000066940008FC9500082DE9F3470A9E1F46436801EB0208B21A1A44A3EB0809034618
:201D2000019253F8082B0D469A420CBF0F22826801A90446FFF7E7FE82461DB12A4621681F
:201D4000FFF719FF37B12EB1324639460AEB0500FFF711FFB9F1000F07D0216835444A4695
:201D600041440AEB0500FFF706FF2046FFF7EEFE019BC4F800A0A36002B0BDE8F08773B5B0
:201D80000446234653F8086B40689E420CBF0F23A36885189D420AD812B13044FFF7EBFECE
:201DA00000222046236865605A5502B070BD0B460092014600222046FFF7A6FFF0E770B574
:201DC000044608460D4603F0F7F90646024600212046054BFFF7C3FE324629462046BDE821
:201DE0007040FFF7CCBF00BF0497000806C9FFF7C6BF08B5034608465B681146984203D9E2
:201E00000246024804F049FC08BD00BF19970008FFF7C0BE03688B4206D84068184481426A
:201E200094BF00200120704701207047012A30B403D10B78037030BC7047002AFBD030BC22
:201E400004F09ABF2DE9F74F144680460C9D89462A461F462146384BFFF781FE424652F83B
:201E6000086BD8F8043096420CBF0F22D8F80820A5EB040B03EB0B0A524550D34E443946B2
:201E8000A1444046A3EB0909FFF7C4FF80B1B9F1000F06D0AC4204D04A4631197019FFF7A3
:201EA000C5FF0DB32A4639463046FFF764FE1BE02DB1AC423BD32A463046FFF7B7FFB9F1D0
:201EC000000F11D0AC420FD04A4631197019FFF7ADFFAC4208D234447B199C420FD32A463C
:201EE00039463046FFF7A2FF00224046D8F80030C8F804A003F80A2003B0BDE8F08FBC4250
:201F000003D82A4607EB0B01CEE7E41B224639463046FFF78BFF2A1B71193019C5E73B46A2
:201F20002246494640460095FFF7EEFEDCE7B9F1000FD0D0C8E700BF509700082DE9F041ED
:201F400004460F461546084A1E46FFF752FF62680146D21BAA42334628BF2A462046BDE8C5
:201F6000F041FFF76FBF00BF6997000807B55368009313680022FFF7E1FF03B05DF804FBC1
:201F800073B50546104614460E4603F015F923460090002231462846FFF7D0FF02B070BD25
:201FA00038B551EA000305462AD0002928DBFEF733FA0446A0FB0505002304FB0151174A9F
:201FC00002F0B0FD0246EFF3058373B16FF00505102003F081FE044603F0F6F8294602469F
:201FE0000F4B204603F09AF90BE0FEF7F1F90028ECD11046DFF82CC000DF05460028E7D1C9
:2020000038BD2046084A094904F000FA0546204603F078FE284602F05DF800BF40420F00B4
:20202000829700086D070008056900081C9B0008F0B50027136806468BB00C2017600C460B
:20204000009304F043FA009B07604360077205461C22394603A8009704F0A8FE0123029301
:20206000E36801932368059363680693A368ABB10793EFF305821AB9FEF7AAF980B12A606A
:20208000102003F029FE064603F09EF84FF0FF310246184B304603F041F911E01823E7E76A
:2020A00029461548DFF854C001AA00DF28600028E6D068463560FEF703FF30460BB0F0BD61
:2020C00030460F4A0F4904F0A1F9044603E00446304603F017FE281DFEF7F2FE0C21284691
:2020E00003F09EFD6846FEF7EBFE204601F0F2FF0446F7E78A97000823140008490C000891
:20210000056900081C9B00082DE9F041264F0D46D7F87011044686B007F1A80639BB1022DF
:2021200002A804F043FE0C2004F0D0F91F4B0190C0E9003601AA684602A9FFF779FF01A8E2
:20214000FEF7BEFE042004F0C1F9009AD7F8708102600022C7F8700100920292B8F1000F10
:2021600015D102A8FFF750F96846FFF729F92946601D06EB001006B0BDE8F041FEF7B3BEEB
:20218000044601A8FEF79CFE204601F0A3FF4046FFF716F90421404603F042FDE1E704464A
:2021A0006846FFF70DF9EFE7780100200C8F00082DE9F047D1E900970446202090461E4601
:2021C00004F084F94FF0000A05460146C0F808A04046FEF77AF8AB68C5E90697C5F810A09B
:2021E0009BB9102003F078FD064602F0EDFF6FF0030102462D4B304603F090F830462C4AC9
:202200002C4904F003F9044643E059EA070313D0002F11DA102003F05FFD064602F0D4FF12
:202220006FF003010246244B304603F077F830461F4A204904F0EAF8EFF3058222B9FEF755
:20224000C7F8034670B12A61102003F045FD064602F0BAFF4FF0FF310246184B304603F0EB
:202260005DF80DE02A461648DFF858C086F0010100DF28610028E7D020462560BDE8F08799
:2022800030460B4A0B4904F0C1F80446304603F039FD2846FEF71AFE2846202103F0C0FCB0
:2022A000204601F017FFF0E7EFE700BF96970008056900081C9B0008AE970008CF97000820
:2022C00059270008610B000838B5EFF3058373B16FF00505102003F0FFFC044602F094FF31
:2022E000294602460E4B204603F018F80BE0FEF76FF80028ECD16FF00040DFF828C000DFFC
:20230000051EE7DB38BD2046074A084904F07EF80546204603F0F6FC284601F0DBFE00BFE4
:20232000DA97000841080008056900081C9B0008002200232DE9F04F0646002587B0CDE9A6
:202340000223CDE904239A4FDFF86882002D00F0998004A902A8FDF713FFDDE9043440B24E
:20236000002804DCD91944F10002CDE9021202980399C01A61EB040100238D4A02F0D2FB48
:202380004FF47A74A0FB042004FB010452EA040313D0002C11DA102003F09EFC044602F013
:2023A00013FF6FF003010246834B204602F0B6FF2046824A824904F029F8FEF72DF8814692
:2023C000EFF30583002B40F0EF80FEF701F88246002840F0E980A9FB0201002309FB04116F
:2023E000734A02F09FFB51460246DFF8D8C16FF0004000DF04460AB9C21C33D0002C11DAC2
:20240000A31C2FD0102003F067FC054602F0FCFE214602466C4B284602F080FF2846674ADD
:202420006749C8E74FF00009FFF74EFF04A804F0F9F8B9F1000F52D02C464FF000094FF04D
:20244000010A049B059A13EB080342F10002CDE9023215F0010F09F1010B4FEA550574D118
:20246000D946F6E74FF00109DEE70546204603F049FC284601F02EFE0446284603F042FCF5
:202480002046F7E7EFF3058373B16FF00504102003F022FC054602F0B7FE214602464A4B8B
:2024A000284602F03BFFB9E7FDF792FF0028ECD16FF0004029464FF0FF32DFF808C100DF7B
:2024C000041EE4DBFFF700FF04A804F0ABF8049B059A13EB080342F10002CDE902322C430E
:2024E000A1464FF0000A4FF0010BB9F1000F59D009F00103D4464FEA59090AF1010A002B9C
:20250000F6D00BFA0CF32B42EFD170680CF1160E00EBCE03019350F83A3000EBCA02A3FB74
:20252000071352680CF1050C07FB0233049A8A18059940F83E20019A43EB0103536000EBA3
:202540000C10FEF7F3FCD0E796E7716809F10200030101EB001082680AB904F0B9F801EB34
:202560000911CA6A01939047A0B1019B7268603313449968019389B109F1160102EBC10162
:2025800004A8FDF7FDFD40B2002807DD019B1846FEF7CCFC0AFA09F924EA0904D946002D7F
:2025A0007FF457AF2546D1E66FF005042AE700BF40420F0080F0FA02ED9700080569000849
:2025C0001C9B00087508000809980008FFF7DFBA0B46012B10B41146044602D1227010BC6C
:2025E0007047002BFBD01A4610BC04F0DFBB37B50F2904461546019106D9002201A9FFF778
:2026000082FA019B2060A360019919B12A462068FFF7DEFF0021019B22686360D15403B00E
:2026200030BD2DE9F34116461D4604462A461B4B0F463146FFF793FA234653F8080B6268A4
:2026400098420CBF0F23A368A5EB0608904443451BD3F319D21A06D0AE4204D03844811908
:202660002844FFF7E3FB35B1206829469DF820203844FFF7ADFF002220462368C4F80480F7
:2026800003F8082002B0BDE8F08100233246394620460095FFF738FBE5E700BF1B980008CB
:2026A00007B500920B4600224168FFF7BAFF03B05DF804FBF0B5026906468DB0EFF30583F7
:2026C0006BB16FF00504102003F006FB054602F07BFD1D49074606A8FFF78DFA0CE0FDF7DF
:2026E00077FE0028EDD11046DFF860C000DF04460028E8D10DB0F0BD6846326906A902F0D4
:2027000053FE6B463A462146284602F0C5FD6846FFF71CFA06A8FFF719FA28460C4A0D4923
:2027200003F074FE04466846FFF710FA06A8FFF70DFA284603F0E6FA204601F0CBFC0446E8
:20274000F4E70446F5E700BF3898000865090008056900081C9B000810B504460069FEF7C9
:2027600020F958B1A3680BB903F0B2FF2046E368984718B92046BDE810409BE710BDF0B514
:2027800006688DB08EB9102003F0A6FA044602F01BFD6FF002010246304B204602F0BEFDF8
:2027A00020462F4A2F4903F031FED6E90615FDF733FE0446A0FB0101002304FB05112A4A0E
:2027C00002F0B0F932690146EFF305836BB16FF00504102003F080FA054602F0F5FC234957
:2027E00007466846FFF707FA0CE0FDF7F1FD0028EDD11046DFF878C000DF04460028E8D1C4
:202800000DB0F0BD6946326906A802F0CDFD3A462146284606AB02F03FFD06A8FFF796F933
:202820006846FFF793F928460D4A0E49BBE7044606A8FFF78BF96846FFF788F9284603F0B2
:2028400061FA204601F046FC0446F4E70446F5E70546204603F056FA2846F3E74498000819
:20286000056900081C9B000840420F00519800081D090008F0B504688DB0002C51D0EFF3F6
:2028800005836BB16FF00506102003F025FA054602F09AFC2449074606A8FFF7ACF915E01D
:2028A0002269FDF795FD0028ECD11046DFF87CC000DF06460028E7D12046FEF707FB202110
:2028C00020460DB0BDE8F04003F0AAB96846226906A902F069FD6B463A463146284602F062
:2028E000DBFC6846FFF732F906A8FFF72FF928460F4A104903F08AFD08E06846FFF726F921
:2029000006A8FFF723F9284603F0FCF92046FEF7DDFA2021204603F083F903F011FDEFE782
:20292000F1E70DB0F0BD00BF6F980008750E0008056900081C9B00080346002010B50A6827
:2029400008601C681A6044B12046FFF793FF2046BDE81040042103F063B910BD10B50468A1
:2029600044B12046FFF786FF2046BDE81040042103F056B910BD10B50446C830FEF744FDF5
:2029800004F1A000FEF7A2FA04F19000FEF79EFA04F18000FEF79AFA04F17000FEF796FA17
:2029A00004F16000FEF792FA04F15000FEF78EFA04F14000FEF78AFA04F13000FEF786FA37
:2029C00004F12000FEF782FA2046FFF7C7FF204610BD10B50446FFF7C1FF204610BD10B55F
:2029E00004460430FFF7BAFF204610BD30B5344C89B0E36C002B2CD12FA1D1E90001314A5C
:202A0000CDE902010792304A02A9069201A804AAFFF7CEFB04A8FEF759FA042003F056FD33
:202A2000019B04900360002304A904F14C000193FFF782FF04A8FFF791FFE06CFFF79FFED6
:202A400001A8FFF717FF1E4809B0BDE83040FDF787BC1B68D3B11869FDF7A3FFB0B1E36C88
:202A6000186888B9102003F037F9044602F0ACFB6FF002010246154B204602F04FFC20464C
:202A8000134A144903F0C2FCFFF714FEE06CFFF776FED8E70546204603F034F9284601F01E
:202AA00019FB044604A8FEF711FA2046F7E7044601A8FFF7DFFEF8E7404B4C00000000004C
:202AC0007801002089030008A90100087D980008056900081C9B000830B5264D0446D5F856
:202AE000783189B093B94FF47A73A4FB034003FB0101214BCDE902410793204B04AA0693E5
:202B000002A9002301A8FFF753FB09E01B68002BE9D01869FDF745FF0028E4D009B030BD6F
:202B200004A8FEF7D3F9042003F0D0FC019B04A903600023049012480193FFF7FDFE04A857
:202B4000FFF70CFF0F48FDF70BFCD5F87801FFF716FE01A8FFF78EFEE0E7044604A8FEF7F5
:202B6000B5F9204601F0B6FA044601A8FFF782FEF7E700BF7801002099030008C101000893
:202B8000F00200208401002010B50446FFF72EFF054804F0E9FF32200021FFF79DFF0A22F2
:202BA00023681A6010BD00BF8998000810B50446FFF71CFF054804F0D7FFC8200021FFF725
:202BC0008BFF0A2223681A6010BD00BF9B98000838B50F4B0F4C1A8A0546D206237A0FD589
:202BE000642B11D8FFF702FF217A0B4804F0BCFF14200021FFF770FF0A222B681A6038BDE1
:202C0000B32BEFD8013300E0013B2372EAE700BF0004024004000020B198000808B50A20F8
:202C20000021FFF759FF012008BD00222DE9F043784C89B0009284F88420A4F886204FF0A4
:202C40008B420023C4F89020734A00212266734A73486266734AC4F880302267724AE367BA
:202C60006267724AC4F88C30C4F8A030C4F89830C4F89C30C4F89430A366A267FFF790F9AE
:202C80006B4804F071FF32200021FFF725FF694B00200793684B04A9CDF810D00693FFF78E
:202CA00033FA04A8FEF712F9644B4FF4FA620793634B04A90693002304F59470C4E92C2343
:202CC000CDF810D0FEF70FF904A8FEF7FFF85D4B012007935C4B04A9CDF810D00693FFF7CF
:202CE00013FA04A8FEF7F2F8584B594A0793594B02A90693002301A8CDE90223002304AAFC
:202D0000FFF756FA04A8FEF7E1F801A8FFF737FD002500264FF07C59424FDFF83C8100217B
:202D20004E48FFF73DF9009B002B49D13946284601F0A0FD0146284601F0DEFB4146054625
:202D4000D4F8880001F096FD014601F0DFFC294601F0D4FB002E054614BF3046012001F085
:202D600081FC06463946284601F084FD314601F081FD314601F0C2FB494601F0C7FC01F0EC
:202D80008BFE94F8842006463AB13549D4F8A00001F05AFE021E18BF01223146314804F012
:202DA000E3FE3149D4F88C0001F064FD2F4901F0ADFC01F071FE01462D4804F0D5FEAEE784
:202DC000013B0093ABE7044604A80D46FEF77EF82046294601290AD001F07CF9F3E7F2E7EC
:202DE000044601A80D46FFF745FDF1E7F2E702F0CAFF03689B68984701461E4804F0B4FE49
:202E000002F0EAFF09B0BDE8F083044602F0E4FF2046E1E77801002000803B440000704170
:202E200020A10700000020411A34CCC31A34CC43BE980008892B000831020008AD2B0008FA
:202E400051020008D12B0008710200081D2C0008C0C62D0091020008DB0FC940A0860100DF
:202E60000AD7233CCB980008DB0F494000003443E2980008F898000808B5EFF3058313B1B8
:202E8000054B586908BDFDF7A3FA0028F8D1DFF80CC000DFF6E700BF40000020C50300088C
:202EA00070B5154C0546B4F8541004F15602D2E85F3F994202D8BFF32F8F04E0581CC2E865
:202EC000560F06B1F3E79BB2994203D82946022002F032FB04F15800FDF7F9FAE36D43F88A
:202EE0002050637A23B94FF08052044B5A6070BD0123A372FBE700BF4000002000ED00E05B
:202F0000F0B5026806468DB002B11268EFF3058373B1BAB96FF00304102002F0DDFE05463D
:202F200002F052F92A4907466846FEF764FE25E0FDF74EFA0028ECD11046DFF898C000DF05
:202F4000044614E01378F12BE4D10029E2DB5378042B10D002F1280353E8000F40EA010480
:202F600043E8004505B1F7E71046FFF799FF002CD2DB0DB0F0BD6FF00204CDE7326802B1C0
:202F80001268694606A802F00FFA3A462146284606AB02F081F906A8FEF7D8FD6846FEF7D2
:202FA000D5FD28460C4A0D4903F030FA044606A8FEF7CCFD6846FEF7C9FD284602F0A2FEE9
:202FC000204601F087F80446F4E70446F5E700BF00990008DB070008056900081C9B000851
:202FE00008B5054B0121D3F87001FFF789FF0122024B5A6108BD00BF78010020000401405B
:2030000008B5054B0221D3F87001FFF779FF0422024B5A6108BD00BF780100200004014046
:203020002DE9F74F2C4E746C002C4FD04FF000094FF0F90B7369DFF8A4A001932369013BB1
:2030400023612369002B3FD1E3680BB1A2689A60F76C736404F11808EFF3058333B18FB935
:20306000B36921460320736102F066FAFDF7B0F902460028F3D1384641461346D44600DF5C
:20308000C0B1EDE73B78FA2BEAD107F10C00FDF750FD05460028E3D041467A6A0C3003F053
:2030A0005DFE2846C5E9018785F800B0A5F80290FFF7F6FEE378DB070BD520466169FDF78A
:2030C000FFFB746C002CBCD1019B736103B0BDE8F08F01236370F4E7400000203D1100088E
:2030E000FDF789B94FF0E02370B5594D1B69EB68EC6A0133EB6024B3E369013BE36103BB80
:203100006378732B00F08E8008D8532B78D0632B00F08180432B07D1234641E0832B00F0A5
:203120008880932B00F08C802046FDF72CFAFDF733FA246924B1E369002BE1D000236361BB
:20314000EC620020FDF778FA2B6D03B198472A6C002A7BD0AB69E96B994203D0D969EB63BF
:2031600001B9DA61DA69002A6CD12B7A022B6DD16C6A002C6AD0EB6B94F9202093F9203065
:203180009A4263D12046FDF7FEF9E86BFDF704FA2046FDF741FA2B6CEC63E36156E0DB6851
:2031A0001A78F12AFBD0BFE7DB681A78F12AFBD0DA789007B8D5D86890F92120C36AD97838
:2031C000890709D599688C4208BFA16821B191F920108A42B8BF0A465B69002BEFD190F98B
:2031E00020309342A0D0064680F820203378F12B08D0FDF7C8F901463046FDF7A9F993E715
:203200002346D2E7F668002EF0D18DE7DB681A78F12AFBD088E72346F9E7DB681A78F12A68
:20322000FBD081E72346F9E7DB681A78F12AFBD07AE72346F9E7DB681A78F12AFBD073E798
:203240002346F9E7013ADA61002A8ED070BD00BF4000002070B5224C04F1560504F15A06A3
:20326000B4F85410D5E85F3F13B9BFF32F8F04E05A1EC5E8502F00B1F4E79BB25BB33046C2
:20328000FDF725F9E36D53F8200020B30378F13B082BE5D801A252F823F000BFC13200083D
:2032A00061320008C73200086132000861320008CB320008CF32000861320008D332000886
:2032C000236E9847CCE7636EFBE7A36EF9E7E36EF7E7236FF5E70020BDE87040FDF7ACB9BC
:2032E00040000020036B826B934205D21868034BC31A58425841704700207047A52E5AE2EC
:2033000038B5144C237A022B22D1636A03B36569E86AFDF7C8F92846FDF750FA04F11C008E
:20332000FDF728F9FDF778F9EFF309832846AB63FFF7D8FF28B9A36929460120636102F029
:20334000FBF8002328466361BDE83840FDF75EBD38BD00BF4000002010B50446002845D099
:203360000378F12B42D1437803F00F03022B06D0032B2BD0012B26D06FF0020031E01D4BBB
:203380001A7A022AF8D15B6A002BF5D0E06AFDF78AF92046FDF712FA6378022B22D115496F
:2033A00001F11C00FDF7E6F8FDF736F9EFF309832046A363FFF796FF68B98B6901204B61C3
:2033C000214602F0B9F8FDF7DEF8DFE7FDF7DBF8FDF7EAF8DAE700234B612046FDF716FDB9
:2033E000002010BD0020FDF727F9F6E76FF00300F7E700BF400000207047FEE7FEE7FEE70A
:20340000FEE770473F4B82B01A6842F480721A6099683D4A0A409A601A6822F0885222F0E4
:2034200001121A601A6822F480221A609A6822F47D029A600022DA60009201921A6842F085
:2034400001021A601A6802F002020192009A01320092019A1AB9009AB2F5A04FF2D11B68A1
:2034600013F0020318BF01230193019B012B43D14FF40061254B1A68A3F5806342F0040290
:20348000C3F80024D3F8002442F00202C3F80024D3F8002442F00102C3F800245A6A42F050
:2034A00080525A621A4A11605168C906FCD49A689A609A6842F460529A609A689A609A6873
:2034C00022F47D029A609A6842F408029A601A6842F080721A600B4B1A689201FCD59A68C3
:2034E00022F003029A609A6842F003029A609A6802F00C020C2AFAD14FF00062054B9A609A
:2035000002B07047003802400CC0FF88003C02400070004000ED00E01EF0040F0CBFEFF3AC
:203520000880EFF30980816911F8021C00292ED101B590E80F10E047BDE80050CCF8000032
:20354000224B93E80600914208BF70471A60A9B1ACF1200CC1F838C006B40846FFF7C2FE20
:2035600006BC38B9012001F0E7FF184B5A681A60002103E0D1F838C08CE8F00F1400A06BAA
:203580006FF0020EB0E8F00F80F309887047104A13689942FAD801B552F821C00FC8E04709
:2035A000BDE80050CCF80000704701B5FFF752FEBDE80140EFF3098CC2E701B5FFF792FD5E
:2035C000BDE80140EFF3098CBAE70000540000200490000803685A004CBF43F0004323F084
:2035E00000431844704700BF2DE9F84339B34F1E044615463E464FF0000808EB060101EBB6
:20360000D171491004EBC1094846FFF7E3FF0346C80008308F4220440BD0AB420BD8FFF7D1
:20362000D9FF0138A84201F10108E6D34846BDE8F883AB42FAD9884501D04E1EDDE74FF060
:2036400000094846BDE8F883012807D0022807D0044B00280CBF184600207047024870473A
:2036600002487047393D00083D3D0008413D000830B5244B044683B08D1E3BB3284601A941
:20368000AFF30080E8B101992A46FFF7ADFF0146B8B1FFF79FFF4B68A064012B2ED0002B73
:2036A00027DB081DFFF796FF0023C4E913030368002B12DBFFF78EFF03460020236103B0CC
:2036C00030BD00230920236103B030BD0E4B0F491846C91AC9100191D6E7C3F30360FFF764
:2036E000B3FF0028034614BF00200920236103B030BD0123081DC4E91303D8E70023052054
:203700002361DCE70000000018A70008D8A90008036810B5DA07044606D49B0700F1480002
:2037200009D500F05DFC2368590709D51A070ED5DB0613D510BD00F04BFC23685907F5D414
:2037400004F1D00000F054FC23681A07F0D404F5A87000F055FC2368DB06EBD404F5E87026
:20376000BDE8104000F090BC092070470346006800B11844704700BF704700BF70B504461F
:203780000E462046316CFFF773FF054698B9D6F840C03246214601202369C4F814C0984705
:2037A0000828EED0072806D12846316CFFF7E4FF301D00F001FC03F09DFA00BF2DE9F04761
:2037C0004FF0000AADF5727D0DF10C0E01F1040CC768D0F8188006461446BCE80F00AEE877
:2037E0000F00BCE80F00AEE80F00BCE80F00AEE80F009CE80F0002AD8EE80F00C5F800A0E6
:2038000021E02B6C4FF4F072294673617AA803F0A5FA3146504633697AAA9847889C8246DC
:203820006C643346324649460120CDE90058B8470446F0B94FF4F07228467AA903F08EFA66
:20384000BAF1080F1BD13046296CFFF711FF04F109095FFA89FA04460028D2D0A96B334625
:20386000696432460120CDE900584AF01001B84700B1092420460DF5727DBDE8F087BAF18E
:20388000070FF6D12046296CFFF776FF03A800F093FB00BF406C7047F0B54FF0FF37CB6B4A
:2038A000F9B00B6401AC01F1040C0E460546BCE80F000FC4BCE80F000FC4BCE80F000FC410
:2038C0009CE80F0084E80F00009706E06A4629462B6998470828044608D128461099FFF76B
:2038E000C7FE0028F2D0092079B0F0BD6846FFF70FFF062CF7D131462846FFF73FFF00BF96
:2039000010B414468461DC6BC16000221C64194610BC53E770B54369C6680B64AEB90A4610
:20392000036904460D46014602209847072805D008280FD129462046FFF720FF3046296C2D
:20394000FFF71AFF281D00F037FB0122FFF736FF03F0D0F903F0CEF9C2682AB1D1F83CC063
:203960000022C1F840C029E796E700BF704700BF836801460BB1012018477047012912D079
:2039800009D873B90F2A0CD800EB820042681846009B1A6070470339012994BF01200220C0
:2039A0007047022070470846704700BF002300B585B00A4603A900911946FFF7DFFF03984B
:2039C00005B05DF804FB00BF012912D009D873B90F2A0CD8009900EB820209681846516061
:2039E00070470339012994BF012002207047022070470846704700BF002310B584B003ACF5
:203A0000039200940A461946FFF7DEFF04B010BD70B54FF0FF36D36BADF50E7D13640DF101
:203A20005C0E02F1040C05460C46BCE80F00AEE80F00BCE80F00AEE80F00BCE80F00AEE883
:203A40000F009CE80F008EE80F00169612E00C2116A86A46FFF7D0FF214616A8A84778B9FC
:203A600069460820049B16AA98470528064608D0092805D068462699FFF7FAFD0028E6D0A2
:203A8000092616A8FFF744FE30460DF50E7D70BD2DE9F04F1E46CC6C89B054F8043B0D46C9
:203AA000174600F003080694002E79D002228DF81C201A0C8DF81D201B04D2B2059304EBA6
:203AC00082042B6DB8F1020F08BFAC6B13F001030CD0384605A900F071FB18B9082009B013
:203AE000BDE8F08F092009B0BDE8F08FD4F800A0BAF1000FEDD0019300F008030293022E65
:203B00004AD0B4F800A0B4F802900434AA6C0F21384629F0010B9344FFF748FF834539D8F3
:203B20002AF001025A44824294BF002001204FEA490303F002030AF0010A43EA0A03012B8A
:203B400049D0022B32D0002BCCD1B8F1000F02D0002840F0CE800434D4F800A0BAF1000FC7
:203B6000CDD1384605A900F029FB0028BAD1019B002BB3D00F213846FFF718FF0E21024638
:203B80003846FFF739FF38460F216A4AFFF734FF0720A8E70020CAE7D4F804900834B5E72F
:203BA0001B0205930323ADF81C308AE7236823F0004BB8F1000F45D128B1029A002A5CD046
:203BC000BBF1000F74D0002B00DA04340BF1010B04EB8B04C0E7B8F1000F19D1B0B16368AE
:203BE0002268991C4FEAD2723FF47CAF05F158010133049100F09180201DFFF7B7FD04ABFC
:203C00000146284602F0DCFE00285CD10834A3E70D213846D5F82090FFF7C8FE8145F5D197
:203C2000AB6A9C42F2D12046FFF7D4FC0F2102463846FFF7E1FE38462A460021FFF7DCFEF8
:203C4000072050E70D213846D5F82090FFF7AEFE814501D02368B6E7AB6A9C42FAD1042397
:203C60000022C5E90B23E318C5F828B06B632368002B5ADB01230193A8E705F15803CDF8A0
:203C80000C809146B04604F1040A1E460EE050460496FFF76BFD0022014604AB284609F168
:203CA00001090AF1040A02F08BFEE8B9D945EED10D213846FFF77AFE0346049A0620C5E923
:203CC00009242B620FE781460D213846FFF76EFEB9F1020F286225D12B46049A43F82C2F7F
:203CE0006B620620AC62FEE646462368DDF80C8069E72046FFF76EFC02460434AC63284654
:203D0000144602F0BBFE00283FF4ECAE384622460F21FFF771FE0720E5E60D213846FFF79A
:203D200045FE2862049B6B62DBE70BF1010004EB800079E70F6B00080023A9E60123A7E6D7
:203D40000223A5E62DE9F043064615461C46C3B0042900F2B880DFE801F09C56B62D030007
:203D6000002C40F0B080102A00F2AD800368D80600F1F18020AF384600F090F9012438464A
:203D80000023B16B04FA03F22A4203F1010305D00A4652F804CB1146C0F800C0042B00F160
:203DA0000400EFD13846B16300F06EF9002043B0BDE8F083032C40F0868094B204EB12433C
:203DC000102B4FEA12457ED803681F0700F1CB8020AF384600F036F9B26B07EBC50154B1AF
:203DE0000B4601EBC401D01AE4001D5843F8045B8B42FAD122443846B26300F001F9002049
:203E000043B0BDE8F083012C4FEA124895B256D0052C58D108EB0509B9F1200F53D8B8F162
:203E20000F0F73D9A946002D40F08480B36B65B320AF4FF0000907EBC807043F03EBC505BF
:203E400053F8041BAB4247F8041FF9D1B9F1000F0FD06F464146102938BF102107EBC101F6
:203E6000843903EBC90553F8040BAB4241F8040FF9D1012C7FD0B8F10F0FB56342D9B9F14C
:203E8000000F02D0684600F0B3F8002043B0BDE8F083C4B923460124826B371DA8B204FA29
:203EA00003F101421CBF52F8041B47F823100133102BF4D115F40050E7D1B26304E008EBE4
:203EC0000503102B03D9022043B0BDE8F083B8F10F0FF8D83368DA0706D5304623F0030319
:203EE00040F8483B00F078F820AF384600F074F8B36B002D9DD11D4604353846B56300F023
:203F000067F8C2E720A800F06BF8B8E7B9F1100F3FD9A9F110093368D90708D5304623F06A
:203F2000010343F0020340F8483B00F05DF8B9F1000F31D033685A071FD4B8F10F0F24D9D8
:203F40006F46C8F11005384600F056F8002DB36B80DD20AF6FE723F01003336006F5E87049
:203F600000F09CF806E723F00803036000F5A87000F068F82CE720AFBEE7304623F00403DB
:203F800040F8D03B00F038F8D7E720A800F02CF8D6E74FF00009BEE7B8F10F0F3FF646AF89
:203FA00020AF384600F020F8B36B002D7FF441AF384600F015F868E700F1340191E838005D
:203FC0009C46A6464CF8045D90E8FF0FE54600BD90EC210B704700BF80EC210B704700BFD4
:203FE00090EC200B704700BF80EC200B704700BFD0EC200B704700BFC0EC200B704700BFED
:20400000F0EC0201F0EC0211F0EC0221F0EC0231F0EC0241F0EC0251F0EC0261F0EC0271E8
:20402000F0EC0281F0EC0291F0EC02A1F0EC02B1F0EC02C1F0EC02D1F0EC02E1F0EC02F1C8
:20404000704700BFE0EC0201E0EC0211E0EC0221E0EC0231E0EC0241E0EC0251E0EC0261F1
:20406000E0EC0271E0EC0281E0EC0291E0EC02A1E0EC02B1E0EC02C1E0EC02D1E0EC02E188
:20408000E0EC02F1704700BFB0FC0181B0FC0191B0FC01A1B0FC01B1704700BFA0FC01813F
:2040A000A0FC0191A0FC01A1A0FC01B1704700BFEC4600B52DE900502DE9FF1F4FF000030D
:2040C0002DE90C0001A9FFF7E7FBDDF840E012B0704700BFEC4600B52DE900502DE9FF1F8E
:2040E0004FF000032DE90C0001A9FFF713FCDDF840E012B0704700BFEC4600B52DE9005033
:204100002DE9FF1F4FF000032DE90C0001A9FFF723FCDDF840E012B0704700BFEC4600B534
:204120002DE900502DE9FF1F4FF000032DE90C0001ABFFF7E5FBDDF840E012B0704700BFD2
:20414000EC4600B52DE900502DE9FF1F4FF000032DE90C0001AAFFF75BFCDDF840E012B0CB
:20416000704700BF027A03467AB9427AA2B14FF0030C4168013A427208680A1D5A60020287
:2041800083F808C0000E1A6070470068013A1A7202021A60000E7047B0207047002300B5CC
:2041A00085B003A900910C221946FFF7E7FB039805B05DF804FB00BFF0E700BF2DE9F043E6
:2041C0004FF0000805460E4685B03046FFF7CAFFB028044600F0BA80070620D500F0F0035E
:2041E000802B4DD0902B36D0A02B60D0B02B73D0C02B00F08A8000F0F803D02B0BD100F086
:204200000702013205230121284642F40022FFF799FD0028D9D0092005B0BDE8F08383007C
:20422000DBB21F1D00230DF10C0919460D222846CDF80090FFF7A2FB039B60064CBFDF1B92
:20424000FF1800230D2228461946CDF800900397FFF7BAFBB9E700F00D030D2BDBD00023E8
:2042600003AF194600F00F0200972846FFF786FB00230D22284619460097FFF7A5FBA4E7D9
:204280003046FFF76FFF24022043B0F5004FC2D00023040119462846A2B2FFF753FD00287E
:2042A000B9D114F4004F18BF4FF001088DE7C3434FF47F6203F007031A410023010702F4E7
:2042C0007F6248BF42F4804228461946FFF73AFD00283FF47AAF9EE7B1283CD0B22800F04C
:2042E000B080B3284AD000F0FC03B42B93D0012300F007021A442846194642F40022FFF7D2
:2043000021FD00283FF461AF85E7C6284FD0C72861D000F0F803C02B70D0C8287CD0C92838
:204320007FF479AF3046FFF71DFF0523024601212846140302F00F0204F470240A44224301
:20434000FFF700FD00283FF440AF64E7B8F1000F1CD0002060E73046FFF704FF02460028EB
:204360003FF459AF10F0F0037FF455AF19462846FFF7E8FC00283FF428AF4CE73046FFF720
:20438000F1FE0123024619462846D2E703AC43460E22414628460094FFF7F0FA43460F22B1
:2043A000284641460094FFF70FFB404634E73046FFF7D8FE02460323140302F00F0204F411
:2043C00070240132284619462243FFF7BBFC00283FF4FBAE1FE73046FFF7C4FE024600288F
:2043E0003FF419AF10F0F0037FF415AF04212846FFF7A8FC00283FF4E8AE0CE7032300F071
:204400000F0201322846194642F42022FFF79AFC00283FF4DAAEFEE63046FFF7A3FE02466B
:20442000012102F0F00402F00F0210340A440523284642EA0432FFF785FC00283FF4C5AEA2
:20444000E9E600230DF10C090D2219462846CDF80090FFF793FA3046FFF784FE02064FF04E
:2044600002040CD5039B00F07F00A040184403903046FFF777FE030604F10704F2D4039B2B
:2044800000F07F02A24003F501731A440023039228460D221946CDF80090FFF795FA94E6F7
:2044A0000B464FF0030C00B5C26C1846536885B00832029201A91A0E1B028DF80CC001938A
:2044C0008DF80D20FFF77AFE05B05DF804FB00BF08B5FFF771FE806C08BD00BF08B5FFF7AF
:2044E0006BFEC06CC379023300EB830008BD00BF80F0004002E000BF81F0004142001FBFA1
:204500005FEA410392EA030F7FEA226C7FEA236C6AD04FEA1262D2EB1363C1BFD21841408C
:2045200048404140B8BF5B42192B88BF704710F0004F40F4000020F07F4018BF404211F070
:20454000004F41F4000121F07F4118BF494292EA030F3FD0A2F1010241FA03FC10EB0C002F
:20456000C3F1200301FA03F100F0004302D5494260EB4000B0F5000F13D3B0F1807F06D342
:2045800040084FEA310102F10102FE2A51D2B1F1004F40EBC25008BF20F0010040EA0300F4
:2045A0007047490040EB0000013A28BFB0F5000FEDD2B0FA80FCACF1080CB2EB0C0200FABF
:2045C0000CF0AABF00EBC25052421843BCBFD0401843704792F0000F81F4000106BF80F4AD
:2045E00000000132013BB5E74FEA41037FEA226C18BF7FEA236C21D092EA030F04D092F098
:20460000000F08BF0846704790EA010F1CBF0020704712F07F4F04D1400028BF40F0004047
:20462000704712F100723CBF00F50000704700F0004343F0FE4040F4000070477FEA22622B
:2046400016BF08467FEA23630146420206BF5FEA412390EA010F40F4800070474FF0000314
:2046600004E000BF10F0004348BF40425FEA000C08BF704743F0964301464FF000001CE06A
:2046800050EA010208BF70474FF000030AE000BF50EA010208BF704711F0004302D540421C
:2046A00061EB41015FEA010C02BF84460146002043F0B64308BFA3F18053A3F50003BCFA79
:2046C0008CF2083AA3EBC25310DB01FA02FC634400FA02FCC2F12002BCF1004F20FA02F215
:2046E00043EB020008BF20F00100704702F1200201FA02FCC2F1200250EA4C0021FA02F283
:2047000043EB020008BF20EADC7070474FF0FF0C1CEAD0521EBF1CEAD15392EA0C0F93EA08
:204720000C0F6FD01A4480EA010C400218BF5FEA41211ED04FF0006343EA501043EA5111DA
:20474000A0FB01310CF00040B1F5000F3EBF490041EAD3715B0040EA010062F17F02FD2A65
:204760001DD8B3F1004F40EBC25008BF20F00100704790F0000F0CF0004C08BF49024CEA66
:20478000502040EA51207F3AC2BFD2F1FF0340EAC250704740F400004FF00003013A5DDC32
:2047A00012F1190FDCBF00F000407047C2F10002410021FA02F1C2F1200200FA02FC5FEA32
:2047C000310040F1000053EA4C0308BF20EADC70704792F0000F00F0004C02BF400010F445
:2047E000000F013AF9D040EA0C0093F0000F01F0004C02BF490011F4000F013BF9D041EA53
:204800000C018FE70CEAD15392EA0C0F18BF93EA0C0F0AD030F0004C18BF31F0004CD8D1C2
:2048200080EA010000F00040704790F0000F17BF90F0004F084691F0000F91F0004F14D060
:2048400092EA0C0F01D142020FD193EA0C0F03D14B0218BF084608D180EA010000F0004079
:2048600040F0FE4040F40000704740F0FE4040F4400070474FF0FF0C1CEAD0521EBF1CEAF1
:20488000D15392EA0C0F93EA0C0F69D0A2EB030280EA010C49024FEA402037D04FF0805386
:2048A00043EA111143EA10130CF000408B4238BF5B0042F17D024FF4000C8B4224BF5B1AD8
:2048C00040EA0C00B3EB510F24BFA3EB510340EA5C00B3EB910F24BFA3EB910340EA9C0050
:2048E000B3EBD10F24BFA3EBD10340EADC001B0118BF5FEA1C1CE0D1FD2A3FF650AF8B42A2
:2049000040EBC25008BF20F0010070470CF0004C4CEA50207F32C2BFD2F1FF0340EAC250AA
:20492000704740F400004FF00003013A37E792F0000F00F0004C02BF400010F4000F013AD5
:20494000F9D040EA0C0093F0000F01F0004C02BF490011F4000F013BF9D041EA0C0195E7B2
:204960000CEAD15392EA0C0F08D142027FF47DAF93EA0C0F7FF470AF084676E793EA0C0F5D
:2049800004D14B023FF44CAF08466EE730F0004C18BF31F0004CCAD130F000427FF45CAFF9
:2049A00031F000437FF43CAF5FE700BF4FF0FF3C06E000BF4FF0010C02E000BF4FF0010CD8
:2049C0004DF804CD4FEA40024FEA41037FEA226C18BF7FEA236C11D001B052EA530C18BFFF
:2049E00090EA010F58BFB2EB030088BFC81738BF6FEAE17018BF40F0010070477FEA226CF9
:204A000002D15FEA402C05D17FEA236CE4D15FEA412CE1D05DF8040B704700BF8446084632
:204A20006146FFE70FB5FFF7C9FF002848BF10F1000F0FBD4DF808EDFFF7F4FF0CBF01204D
:204A400000205DF808FB00BF4DF808EDFFF7EAFF34BF012000205DF808FB00BF4DF808ED81
:204A6000FFF7E0FF94BF012000205DF808FB00BF4DF808EDFFF7D2FF94BF012000205DF8CC
:204A800008FB00BF4DF808EDFFF7C8FF34BF012000205DF808FB00BF4FEA4002B2F1FE4FA7
:204AA0000FD34FF09E03B3EB12620DD94FEA002343F0004310F0004F23FA02F018BF4042B3
:204AC00070474FF00000704712F1610F01D1420205D110F0004008BF6FF0004070474FF02E
:204AE0000000704742000ED2B2F1FE4F0BD34FF09E03B3EB126209D44FEA002343F000436E
:204B000023FA02F070474FF00000704712F1610F01D1420202D14FF0FF3070474FF0000019
:204B2000704700BF7BB972B90029BEBF00204FF0004106E008BF00281CBF6FF000414FF0CB
:204B4000FF3000F02DBBADF1080C6DE904CE002909DB002B1ADB00F04DF8DDF804E0DDE993
:204B6000022304B07047404261EB4101002B1BDB00F040F8DDF804E0DDE9022304B0404272
:204B800061EB4101524263EB43037047524263EB430300F02FF8DDF804E0DDE9022304B011
:204BA000404261EB41017047524263EB430300F021F8DDF804E0DDE9022304B0524263EBC3
:204BC0004303704753B94AB9002908BF00281CBF4FF0FF314FF0FF3000F0E2BAADF1080CBB
:204BE0006DE904CE00F006F8DDF804E0DDE9022304B070472DE9F047089E0D460446884632
:204C0000002B4DD18A42944668D9B2FA82F252B101FA02F3C2F1200120FA01F10CFA02FC6D
:204C200041EA030894404FEA1C41B8FBF1F71FFA8CFE01FB178807FB0EF0230C43EA084354
:204C400098420AD91CEB030307F1FF3580F01E81984240F21B81023F63441B1AB3FBF1F0FB
:204C600001FB103300FB0EFEA4B244EA0344A6450AD91CEB040400F1FF3380F00981A6453E
:204C800040F20681644402380021A4EB0E0440EA07401EB10023D440C6E90043BDE8F08732
:204CA0008B4208D9002E00F0EE800021C6E900050846BDE8F087B3FA83F100294AD1AB4229
:204CC00002D3824200F2FC80841A65EB030301209846002EE2D0C6E90048DFE702B9FFDEA5
:204CE000B2FA82F2002A40F09180A1EB0C0001214FEA1C471FFA8CFEB0FBF7F307FB130086
:204D0000250C45EA00450EFB03F0A84208D91CEB050503F1FF3802D2A84200F2CE80434664
:204D20002D1AB5FBF7F007FB10550EFB00FEA4B244EA0544A64508D91CEB040400F1FF355A
:204D400002D2A64500F2B6802846A4EB0E0440EA03409EE7C1F120078B4022FA07FC4CEA72
:204D6000030C25FA07FA4FEA1C49BAFBF9F820FA07F309FB18AA8D401FFA8CFE1D4300FA1C
:204D800001F308FB0EF02C0C44EA0A44A04202FA01F20BD91CEB040408F1FF3A80F08880FC
:204DA000A04240F28580A8F102086444241AB4FBF9F009FB104400FB0EFEADB245EA044484
:204DC000A64508D91CEB040400F1FF356CD2A6456AD90238644440EA0840A0FB0295A4EB52
:204DE0000E04AC42C846AE4656D353D0002E69D0B3EB080264EB0E0422FA01F304FA07F7E9
:204E00001F43CC40C6E90074002147E70CFA02FCC2F1200125FA01F34FEA1C4720FA01F11F
:204E200095400D43B3FBF7F107FB11331FFA8CFE280C40EA034001FB0EF3834204FA02F477
:204E400008D91CEB000001F1FF382FD283422DD902396044C01AB0FBF7F307FB1300ADB2B3
:204E600045EA004503FB0EF0A84208D91CEB050503F1FF3816D2A84214D9023B6544281AD4
:204E800043EA014138E73146304607E72F46E4E61846F9E64B45A9D2B9EB020865EB0C0E0A
:204EA0000138A3E74346EAE7284694E74146D1E7D0467BE76444023847E7023B65442FE729
:204EC000084606E73146E9E610B40024224610F801CB0CF07F0393401CF0800F44EA03040C
:204EE00002F10702F3D10C6010BC704710B40024224610F801CB0CF07F0393401CF0800FF3
:204F000044EA030402F10702F3D11F2A07D81CF0400F04D04FF0FF3303FA02F214430C6020
:204F200010BC7047FF2808B5034619D003F07002302A084616D005D8202A09D1BDE80840F7
:204F400001F0D5BE402A09D1BDE80840FFF7C0BA02D813F0600F03D001F0CCFE502AFBD10C
:204F6000002008BDBDE8084001F0BEBEF0B5502815461E4683B01ED000F00F0304460F4654
:204F80000C2B38D8DFE803F0072D33071F373737372723071F00284650F8043B43B104F05A
:204FA0007002102A08BF2F4622063B4448BF1B68336003B0F0BDD01C20F0030050F8043B5F
:204FC000336003B0F0BD284650F8083BE6E7284630F9023BE2E7284601A9FFF787FF019B4B
:204FE000DCE7284601A9FFF76FFF019BD6E7284630F8023BD2E701F07DFE00BF70B50C46EB
:205000000146204615461E46FFF78CFF334601462A462046BDE87040A8E700BF70B50646F9
:205020000C46154682B060B3FFF752FA034620462B6010F8011BFF2912D16B6010F8013BC4
:20504000FF2B2B7516D1002301A9EB6010F8013B6B75FFF739FF019B03442B6102B070BDE7
:2050600002462B1D3046FFF7C9FF10F8013BFF2B2B75E8D001A9FFF727FF019B0344EB60B2
:20508000E4E70346D3E700BF002310B584B003AC039200940A461946FEF796FC04B010BDD8
:2050A000002300B585B003A900910F221946FEF765FC039805B05DF804FB00BF70B500F048
:2050C000030001280D4614468CB00AD021462846FFF7E6F910B908200CB070BD09200CB078
:2050E00070BD0A4620460C21FFF7CEFF2046FFF7F5F901460028E9D006AA2046FFF78EFFD2
:20510000024620460192FFF7CBFF0A9B019A20F001069A4206F1FF3603D3D7E70A9B834231
:20512000D4D99DF82D1002AB0020FFF767FF9DF82D10024603AB0020FFF760FF04AB024693
:205140009DF82D100020FFF759FF05A9FFF7BCFE029A069B1344B3420246B7D803990B4466
:20516000B342DBD9049B002BB0D0079E9E19ADD02A4600212046FFF787FF00220121204646
:20518000FFF782FF2046FFF78BFF024602F0010220460F213243FFF777FF07209CE700BF95
:2051A000704700BF10F8012B11F8013B012A28BF9A42F7D0D01A7047034613F8012B002A00
:2051C000FBD1181A0138704710B50B4C94F84030BFF35B8FDB070DD404F1400001F067F9E4
:2051E00040B1064A0649074800F0A1FC04F1400001F069F9034810BD7801002000000020EA
:20520000991300080400002010B50B4C94F84430BFF35B8FDB070DD404F1440001F047F9D1
:2052200040B1064A0649074800F081FC04F1440001F049F9034810BD7801002000000020E5
:20524000711300080800002038B5044610460B464A6841680A44194651F8085B8D420CBF6E
:205260000F2199688A4212D9014651F8085B8D420CBF0F2181688A4209D81A460021FCF77F
:2052800075FE01462046FCF721FC204638BD01461846FCF7ABFDF4E770B592B004460E4663
:2052A00006A819461546FCF799FC1A4906A8FCF786FD01E0044624E02B6832462946684620
:2052C0001B6998476A4606A90CA8FFF7BDFF20460CA901F0CDF90CA8FCF738FC6846FCF758
:2052E00035FC06A8FCF732FC0B4BC4E90265236012B070BD04460CA8FCF728FC6846FCF71C
:2053000025FC06A8FCF722FC2046FEF7E3FE0446F4E7CFE77F970008009C0008F0B51546D4
:205320001F46136893B00A4604460E460CA829461B69984700211A4A0CA8FCF721FE014644
:2053400006A8FCF7C3FB3A46002106A8FCF718FE01466846FCF7BAFB6946204601F088F972
:205360006846FCF7F3FB06A8FCF7F0FB0CA8FCF7EDFB0C4BC4E90265236013B0F0BD0446DB
:205380006846FCF7E3FB06A8FCF7E0FB0CA8FCF7DDFB2046FEF79EFE0446F4E70446F5E751
:2053A0007F970008009C0008F0B593B0054606A81446FCF713FC2822012106A8FDF770F977
:2053C00001E0044656E02346012142F20F7042F21072092B02D9632B07D801310EAB0022EF
:2053E0000CA80C93FDF703F90CE0B3F57A7F01D20231F3E7834201D80331EFE7B3FBF2F3C2
:205400000431E6E76426DDE90C13274F0B44632C0FD9B4FBF6F006FB104207EB4202044677
:2054200092F88D0B92F88C2B03F8010C03F8022DEDE7092C89BF1C4A303402EB440494F8FB
:205440008D3B92BF0C704B7094F88C3B684688BF0B700CAA06A9FFF7F7FE292201216846CE
:20546000FDF71EF90FE004466846FCF76FFB0CA8FCF76CFB06A8FCF769FB2046FEF72AFE47
:205480000446F4E79DE701462846FCF71FFB6846FCF75CFB0CA8FCF759FB06A8FCF756FBBC
:2054A000284613B0F0BD00BF8C830008F0B504468DB010200F4600F00FFC0646FFF784FEC8
:2054C0001A49054606A8FCF796FB3A46684606A9FFF76AFF6B462A4621463046FFF7DCFEE2
:2054E0006846FCF733FB06A8FCF730FB3046104A104900F08BFF0D460BE0044668460D46E5
:20550000FCF724FB06A8FCF721FB304600F0FAFB2046012D07D0FEF7DDFD04460D46F1E7B2
:2055200004460D46F1E700F02EFCFEE75E980008056900081C9B000808B5FFF7B7FF00BF9C
:205540004F4B504A2DE9F043DA604F4B8FB01868002302221946806801F01CFD01224B49EC
:205560004B48FBF707FD4A48FAF7FAFE00224949A0F5B270FBF7FEFC00224FF4A03146480C
:20558000FBF7F8FC002245494548FBF7F3FC01224FF490314348FBF7EDFC4248FAF7E0FE21
:2055A00001224FF00111A0F5C470FBF7E3FC3848FAF7E0FE00238DF807309DF80740013C96
:2055C000E4B28DF80740002CF7D13548FAF7D2FE8DF80740344C9DF807305A1C234493F8B7
:2055E000550CD2B28DF80720FBF720FA9DF807300D2BF0D9AF20FBF719FAB020FBF716FA9B
:205600000024274D2846FAF7B5FEE0B2FBF70EFA1020FBF70BFA2846FAF7A2FE01340020D9
:20562000FBF704FA102CEDD11D48FAF7A3FEB820FBF7FCF900231A4C8DF807309DF80730B9
:205640005F2B33D82046FAF795FE9DF8070000F00F00FBF7EBF99DF80700000940F0100075
:20566000FBF7E4F92046FAF77BFE0020FBF7DEF99DF807300133DBB28DF80730DEE700BFD5
:2056800000ED00E00003FA05F400002020000200F4020020040001009C010020020001002A
:2056A000C8010020000300208C8300080027B54E012506F15000FAF75DFEB020FBF7B6F973
:2056C0000020FBF7B3F91120FBF7B0F906F15000FAF746FE4FF44078AB4B86F848709A689B
:2056E000AA4C22F470629A609A6802A99A609A68A74822F00F029A609A684FF004099A60D5
:20570000E36943F00103E361E36943F00203E361E36943F00103E361E36943F00403E36169
:20572000ADF80C808DF80F500295FAF7DDFD8023029340F2013300F50060ADF80C30FAF72D
:20574000D3FDA0F50060ADF80C808DF80F50CDF80890FAF7C9FD10234FF4406800F5806068
:205760000293FAF7C1FD04A80495ADF814808DF81650FBF72AF9CDF81090ADF814808DF844
:205780001650FBF722F93A460F210820FBF76CF93A460F210620FBF767F97E4B0AA9099327
:2057A0007D4B06A808930C97FAF78FFD06F1C8010AA8FAF78AFD0AA8FBF788FB06A8FBF707
:2057C00085FB764B0AA90993754B06A808930C97FAF77BFD06F1D8010AA8FAF776FD0AA88C
:2057E000FBF774FB06A8FBF771FB236A43F400732362636943F400736361636923F40073F0
:205800006361A4F58A34636823F0407323F4807343F480736360A268624B134043F04073F5
:2058200043F00203A360236B23F0F8732363236943F007032361236C23F01F0343F00A034A
:205840002364A36823F0F00343F07003A360636843F440336360A3682B43A36023685A0668
:20586000FCD500220F211220FBF7FEF86368012243F0200363606FF002032360A3684FF4AF
:20588000006143F080434848A360FBF773FBEFF305839BB1454B187A08BBFAF7ACFD05463E
:2058A000E8B1102000F018FA0446FFF78DFC294602463F4B2046FFF731FD0BE0FAF788FD28
:2058C0000028E7D1EFF31483DB07E3D5DFF8E4C000DFE1E72046384A384900F097FD102294
:2058E00000210AA801F062FA082000F0EFFD344B0690036006AA0AA904A8FCF799FB06E090
:205900000546204600F0FEF92846FEF7E3FB06A8FBF7D6FAEFF30583A3B16FF005041020E8
:2059200000F0DAF90546FFF74FFC21460246254B2846FFF7F3FC16E0044606A8FBF7C0FA0C
:205940002046E2E7FAF744FD0028E6D1DFF878C000DF04460028E2D104A8FBF731FD2046C2
:205960000FB0BDE8F0832846134A144900F04EFD044603E00446284600F0C4F904A8FBF7BD
:205980001FFDDDE778010020000001400038024000000240D9010008ED01000805020008AA
:2059A00019020008FDF7FFC0840100204000002011990008E7030008056900081C9B000833
:2059C000F88F0008249900085914000870B500253A4C3B4E3B49324604F13000A56300F08C
:2059E000A6F8394A394B2267394A23666267394A394BA2674FF08B42636600232946C4F871
:205A0000902004F1B0001822A366E367C4F88030C4F88C30C4F89430C4F89830C4F89C3034
:205A2000C4F8A03084F87C51C4F8845184F88851C4F8905184F85050A5652576256284F84A
:205A40002450E5622570A56025736561E566C4F88450C4F8A85001F0A9F9002300221F49C4
:205A6000C4E95623C4E95823C4E95A2304F1A8003246C4F8D050C4F8E050C4F8F050C4F819
:205A80000051C4F81051C4F82051C4F83051C4F84051C4F85051C4F8705100F048F832465F
:205AA0000F4904F5BC7000F042F83246E56404F148000C49BDE8704000F039B8780100201D
:205AC00000000020DB0E00080000204100803B441A34CCC31A34CC430000704177290008C2
:205AE000D3290008DF290008002103E00A4B5B584350043109480A4B42189A42F6D3094AC6
:205B000002E0002342F8043B074B9A42F9D3FDF779FCFFF715FD7047ECA900080000002028
:205B20005801002058010020C4880020FEE70B460146184601F0E6B87FB500241023CDE95C
:205B40000234036815469E69CDE900446B461268B0479DF8043003F00603062B09BF012047
:205B60002046009B2B6004B070BD0098904214BF012006207047000010B50446024B0360BE
:205B800000F037FD204610BD7899000810B50446FFF7F2FF2046082100F042F8204610BDB3
:205BA0002DE9F041DDF818801F46DDE9083498450646154607D1079900F01EFD18B1657124
:205BC0000020BDE8F0813946304600F015FD0028F6D00123C4F800802571A371F0E738B5DC
:205BE00015461C4600F008FD20B10823E36006232560237138BD2DE9F04105460C4616463D
:205C00001F4600F0F9FC48B9032F07D82368324629462046BDE8F0415B691847BDE8F08141
:205C200000F0AEBE194A70B55368A0F1080423B150F8081C6518AB4203D940F8043C546076
:205C400070BD05D1D3E90035194440E90215F6E704325E684EB1B54202D21A1D3346F8E781
:205C600001BF2E686D6889195D6013681D685E19B44217BF5B68491940F8043C136816BF6A
:205C800040F8081C19605C60DAE700BF8088002000F10803082B38BF082330B50D4A073304
:205CA00052F8040F23F0070368B1D0E900148B420AD9021D2046F7E7C1184C60C55010685F
:205CC00003601160083030BDCD1A072DF4D801601460F7E78088002010B500F18004204669
:205CE00001F01EF8034630B92046FFF7D1FF034608B900F025FB80220021184601F056F8C5
:205D0000803010BD064A80389368984205D9D2681344984201D2FFF785BF01F009B800BF62
:205D20008088002038B54FF41E65074C2846E56000F0F6FFA06010B9E060606038BD0023BC
:205D4000606005604360F9E7808800200378472B17D143784E2B14D18378552B11D1C378ED
:205D6000432B0ED10379432B0BD143792B2B08D183792B2B05D1C07901288CBF002001200F
:205D800070470020704738B5044600F04FF8024605682046A4F12001FFF7D8FF28B90DB1CA
:205DA00000F0CEFA1160284638BD54F80C3C2046002BB4BFC3F10103013344F80C3C536894
:205DC0008D4203F1FF3353601CBF44F8105C1160656AFDF7CBFDE6E710B500F023F8026895
:205DE00001469AB102F120042046FFF7AFFF28B908602046BDE81040FDF7BABD5369002BFA
:205E000005DA013301D110690860536110BD013B02D113690B60ECE7591CF6D100F090FABC
:205E2000704700000048704790880020004870479088002000231A4630B510F8015B05F07C
:205E40007F04944023432C0602F10702F5D40B6030BD00231A4630B510F8014B04F07F0502
:205E600095402B43250602F10702F5D41F2A06D8640642BF4FF0FF3404FA02F213430B6038
:205E800030BD50282DE9F3410646884615461F4608D1D01C20F0030050F8044B3C6002B0BC
:205EA000BDE8F08100F00F030C2B2ED8DFE803F025071D25292D2D2D2D1821252900284693
:205EC00001A9FFF7B7FF019C002CE7D006F07003102B08BFA8463306444448BF2468DDE77B
:205EE000284601A9FFF7B5FFEDE7284630F8024BEAE7284630F9024BE6E7284650F8044BA2
:205F0000E2E7284650F8084BDEE700F0F3FE08B50346FF2B084610D003F07002302A12D00A
:205F200007D8202A0BD002D813F0600F05D000F0E1FE402A0BD0502AF9D1002008BDBDE85A
:205F4000084000F0D4BEBDE8084000F0CDBEBDE80840FEF7BDBA70B50C4601462046154637
:205F60001E46FFF7D4FF334601462A462046BDE87040FFF786BF73B50C461546064628B3D2
:205F8000FEF7A6FA034620462B6010F8011BFF291ED002462B1D3046FFF7DDFF10F8013BDC
:205FA000FF2B2B7516D0102301A92B75FFF742FF019B0344EB6010F8013B01A96B75FFF78B
:205FC00039FF019B03442B6102B070BD0346DAE76B60E3E70023EDE71FB503AB009300236D
:205FE0000A461946FDF7CAFC039805B05DF804FB00232DE9F04F91B0059300F00303012B21
:2060000006460C4617460ED0022B03D0002B3BD101073BD539462046FEF742FA90B30920D6
:2060200011B0BDE8F08F020706D40D6A38460D21FFF7D2FF85422BD00220002306F00806A3
:206040000DF1280A06430C2219463846CDF800A00A94FDF7B9FC062E1CD1D4E90A59D4F803
:206060003080B8F1000F0CBF4FF0010B4FF0030B16F0080600F00781BBF1010F40F0FF805E
:2060800000F05EF90820CBE700F034FE0120D4E70620D2E73846FEF721FA81460028B9D0FC
:2060A000524601463846FFF766FF394605469DF83C00FFF72CFF0F210C903846FFF78CFFA1
:2060C00020F0010808F1FF380E9BAB4240F2BF802A469DF83D1006AB0020FFF73CFF9DF887
:2060E0003D10024607AB0020FFF735FF08AB02469DF83D100020FFF72EFF09A9FFF79AFEAF
:206100000A9B069A05461344434501D90E9DDBE7079A13444345D7D9DDF82080B8F1000F6C
:2061200001D00B9B9844099D15B10E98013D0544B8F1000F3FF46EAF002D00F0F28016F0D6
:206140000803029334D0472323704E2363705523A3704323E370462323714F23637152235E
:20616000A3710023E3714FF0000B07A92846FFF770FE08A90390FFF76CFE0799002963D028
:206180003ADD9DF83C00FF2832D000F00703042B3FF67AAF01A252F823F000BFF56100084A
:2061A00089600008C3610008F5610008ED610008E379012B0CBF54F8203C04F1580305932B
:2061C000D1E702250D9A09AB05FB11220C99FFF758FE099931B15CB30022204605AB00F0A6
:2061E000EFFB28B34FF0030B079D34E00825E9E70025E7E70425E5E7C1F17F5101F57F11E8
:206200000D9B01F57F513F3103EB8105BCB1029AAAB9059B043D099355F8041F0029E1D0F9
:206220000022204609AB294400F0CAFB0028F3D0089D002D71D0039B2B441D4695E753F8CB
:206240002130002BF4D1CDE74FF0010BF0E700254FF0010BA846F3077FF50AAFBBF1020FE5
:206260003FF4D8AE0D213846059EFFF7B5FEC4E90A59C4E90806C4F830800620D0E6002D2D
:2062800022DA00F06FF8BBF1010F02D1204600F02FFC002D18DA524649463846FFF76BFE78
:2062A00039469DF83C00FFF732FEEB430D9A0C9002EB830353F826200AB10136FAE70422FA
:2062C000C4E90A60C4E90C23002309AE1A461946384600960994FDF777FB00230122194676
:2062E000384600960995FDF76FFB0F213846FFF773FE002300F0010040EA080009900F2269
:20630000194638460096FDF75FFBBBF1020F02D1204600F0B3FB072082E6BBF1000F3FF4AB
:2063200079AE4FF0020B96E708B5804700F0E2FC024B1868BFF35B8F704700BFF00000202C
:2063400008B5FFF7F5FFFFF7EFFF08B58047FFF7F7FF0000024B1868BFF35B8F704700BF63
:20636000E400002008B5FFF7F5FFFFF7EEFF012810B503D951F8140CFFF7D6FFBFF35B8FF5
:20638000A1F1280353E8002F013A43E800200028F8D1BFF35B8F5AB951F81C3C01F15804C1
:2063A0000BB1204698472046BDE81040FFF7AABC10BD000038B5002540E91E1240F8805CD9
:2063C0000446FFF7C7FF44F8700CFFF7B1FF472304F8583C4E2304F8573C552304F8563C59
:2063E000432304F8553C04F8543C2B2304F8533C04F8523C044B44F86C0C04F8515C44F8D3
:20640000503CA4F1800038BD6F63000808B504460D461646FFF70AFD436832460133294693
:2064200043602046FFF7C6FF0123044644F8283B2046FDF73DFE2046FFF7A5FCFFF780FF84
:2064400008B5FFF7F3FCD0E90042013242604CB394F82020472A27D194F821204E2A23D15D
:2064600094F82220552A1FD194F82320432A1BD194F82420432A17D194F825202B2A13D188
:2064800094F826202B2A0FD194F82720012A0BD862695242626120342046FDF72DFE2046B3
:2064A000FFF771FCFFF74CFF00220260F3E702680346D20705D4427802B1FFDE0120587042
:2064C000704700207047012303607047012838BF012010B50446204600F022FC30B900F053
:2064E0002BFB08B900F006FC8047F4E710BD000010B50446024B0360FFF73EFB204610BD33
:20650000449A000810B50446FFF7F2FF20460C21FFF786FB204610BD2DE9F041DDF81880AE
:20652000064690450F4615461C460BD0B0682A460368CDF818801E6A39462346B446BDE8EE
:20654000F0416047194600F057F80028EED00620BDE8F0812DE9F14F0D46DDE90A4BDDE919
:206560000CA6194681461746984600F045F890B1002D3460377109DB2C44A2450CBF062401
:206580000124B471002001B0BDE8F08F0235F9D10123B371F6E7544506D15946484600F009
:2065A0002BF808B17771EDE7D9F808003A460368CDE90CA6CDE90A4BDC6929464346A446E5
:2065C00001B0BDE8F04F60472DE9F04107460C4615461E46FFF703FB48B9B8682A460368EA
:2065E00021469F693346BC46BDE8F0416047BDE8F081704700207047814208B50ED040688A
:2066000003782A2B0CD049680B782A2B08BF0131FEF7C8FDB0FA80F0400908BD0120FCE766
:206620000020FAE71FB504460021684600F0ACFF0A49009B0198A3FB013201FB00224FF418
:206640007A7002995B1842EBE172A3FB003100FB02122046C4E9003204B010BD40420F008D
:2066600010B5D1E90012044600F08BFA204610BD10B50446034B40F8043BFFF7F1FF204677
:2066800010BD00BF349C000808B500F033FB08B500F030FB08B500F02DFB0FB480B582B0E4
:2066A00000AF07F1100454F8045B2846FEF784FD00F2072323F00703ADEB030D00F5007149
:2066C00023462A4668467C6000F058F800F012FB08B500F00FFB000006460C4680B59CB044
:2066E00000AFA41B69220E49381D00F037FB04F1700323F00703ADEB030D6D466822391D13
:20670000284600F02BFB2246314605F1680000F025FB00232C44284684F86830FFF7B7FFE7
:206720007D9A00082DE9F04100AF84B06D4605F10C0423464FF00A0CDFF83C80B2FBFCF667
:206740000CFB162E18F80EE003F801ED9646BEF1090F3246F2D8E41A8C4209D8C4F10C03B1
:206760002246E91800F0FAFA2046BD46BDE8F0814FF0FF34F8E700BFE69A00082DE9F0416E
:20678000074615460446013900EB01082A7892B344452AD2252A07D16A78732A09D07A2A4A
:2067A00012D0252A00D1013515F8012B04F8012BECE753F8042B013A12F8011FC9B144458B
:2067C00013D004F8011BF7E7AA78752AECD11E46204656F8042BA8EB0401FFF7A3FF0028C3
:2067E00003DD334604440335D0E721463846FFF773FF0235CAE72270E01BBDE8F081000031
:2068000000487047F19A0008004870475B9F0008742A22DC572A0BDC4D2A28DC3B2A0DDC18
:20682000242A16DC0F2A10DC531E0D2B1FD80CE00121A2F1580399400E4B15E00123A2F179
:206840003C018B400C490B4211D00C4B026043607047A2F12D03012BE8E7A2F17603182B8D
:2068600005D801219940064B0B40002BEDD1054B0260ECE79D00BF1F8F080200EC00002016
:20688000BF07F101E8000020C0E90021704713B5144603680A465B69014668469847636877
:2068A000019A9A4206D100982368C31A5842584102B010BD0020FBE74B68834204D1086819
:2068C000831A584258417047002070477047704710B5044600F054F8204610BD10B504465F
:2068E00000F04EF8204610BD13B50446104600F041FE01AA0146204600F0E1F9204602B05E
:2069000010BD000010B50446024B036000F01EF9204610BD009C000810B50446FFF7F2FF17
