:020000040800F2
:2000000000C000204D590008F1320008F3320008F5320008F7320008F93200080000000067
:2000200000000000000000000000000011340008FB32000800000000A3340008B334000870
:20004000915900089159000891590008915900089159000891590008F92E000891590008D3
:20006000D92E000891590008915900089159000891590008915900089159000891590008D3
:20008000915900089159000865150008915900089159000891590008915900089159000840
:2000A0009159000891590008915900089159000891590008915900089159000891590008B0
:2000C000915900089159000891590008915900089159000891590008915900089159000890
:2000E000915900089159000891590008915900089159000891590008915900089159000870
:2001000091590008915900089159000891590008915900089159000891590008915900084F
:200120009159000800000000000000000000000000000000000000005FF808F1FFFFFFFF81
:2001400010B5054C237833B9044B13B10448AFF300800123237010BD580100200000000084
:20016000D881000808B5034B1BB103490348AFF3008008BD000000005C010020D8810008EB
:2001800010B5D0E90042D1E900039A4208BF844206D0844272EB030304DA4FF0FF3010BD61
:2001A0000020FCE70120FAE70122024B00201A83704700BF000402401AB1012A04D0002067
:2001C0007047024B0360FAE70160F8E7F08100084FF40062014B00201A8370470000024077
:2001E0002AB1012A06D0022A05D10B6800E0034B036000E001600020704700BFF8810008C5
:20020000034B188A00F0010080F00100704700BF000002401AB1012A04D000207047024BE6
:200220000360FAE70160F8E700820008034B188A80F00400C0F38000704700BF0000024061
:200240001AB1012A04D000207047024B0360FAE70160F8E7088200082AB1012A06D0022A92
:2002600005D10B6800E0034B036000E001600020704700BF108200082AB1012A06D0022A2B
:2002800005D10B6800E0034B036000E001600020704700BF188200082AB1012A06D0022A03
:2002A00005D10B6800E0034B036000E001600020704700BF208200081AB1012A04D00020F9
:2002C0007047024B0360FAE70160F8E72882000813B56C460B46024603C884E8030093E81C
:2002E000030082E8030094E8030083E8030002B010BD38B505460C46FFF7EAFFAB68A2689C
:20030000AA60A360EB68E268EA60E36038BD70472DE9F0410022012703260B6807FA02FECC
:200320003EEA03032BD1036891F804C0540006FA04F86FEA080523EA08080CFA04F30CF10E
:20034000FF3C43EA0803BCF1010F03600ED883682B404D79A5401D43856083889BB223EA79
:200360000E058B7993409BB22B438380C36806FA04F523EA0505CB79A3402B43C3600132AF
:20038000102ACAD1BDE8F081014BD868704700BF4000002000487047589100080048704721
:2003A00061910008014B5869704700BF40000020EFF310832BB9EFF31180003818BF012064
:2003C000704701207047014B187A7047400000204FF47A70704708B5EFF3058313B16FF06B
:2003E000050008BDFFF7E4FF0028F8D1DFF804C000DFF6E7B111000808B5EFF3058313B15D
:200400004FF47A7008BDFFF7D3FF0028F8D1DFF808C000DFF6E700BFD1030008034610B52D
:2004200088B1084310F007000DD117290AD9102219600839CC189C605A60C85099684A60E7
:20044000D860012010BD0020FCE70346F0B588B159B30F3121F0070100F108073C463F68BE
:200460006568381B25F00305401B814203D938680028F3D1F0BD5E681D680E445E602B4442
:2004800053F8040C083B864288BF5E60636811431BB9616004F10800ECE723F00303E0185C
:2004A000E750416020600830E4E70846E2E710B5D0E85F3F5A1C914200D80022C0E8542F41
:2004C00004B1F5E798B210BD930710B502F0010422D400F1280384B153E8000F00EA0102A0
:2004E0008A4203D0BFF32F8F002005E020EA010243E8002404B1EFE710BD53E8000F0842A0
:2005000003D1BFF32F8F002005E020EA010243E8002404B1F1E7EFE7806A01EA00031CB12E
:200520008B4218BF0020E7E7002B08BF0020E3E710B591F9202083681BB193F92040944245
:2005400005DAC1E90230816003B1D96010BD18469B68F1E70346806882689A6002B1D36011
:200560000023C3607047C2682AB18368936003B1DA600023C3607047012301464370014849
:20058000D6E700BF5C00002010B5D0E90431C469621C0CD103B1596142691AB113610023AD
:2005A000436101E0074A13630023C36110BD1BB1DA6959612244DA614269002AEED1014A92
:2005C000D362F1E740000020012310B5094A437090F92010536A1C321BB193F920408C4275
:2005E00005DCC0E90232906003B1D86010BD1A469B68F1E7400000200223C278437052078E
:2006000058BF032383F31488BFF36F8F014B9861704700BF4000002010B5134B04461A7ABF
:20062000596998B9022A1DD15C6ADCB194F9202091F920309A4215DD2046FFF794FF084688
:20064000FFF7C2FF2046BDE81040D5E7022A05D190F9202091F920309A42F0DC2046BDE874
:20066000104089E710BD00BF4000002010B51446836B1962FFF788FF14B1BDE81040CBE75D
:20068000BDE8104078E72DE9F0410446002601270CB9BDE8F081E378D4F814801B0712D588
:2006A000A36826767BB12046FFF754FF002205461146FFF7DBFFEB6AC4E90356636103B151
:2006C0001C61EC6227764446E2E738B51D4C0246237A022B33D1606A98B163695A704A1CE4
:2006E00015D10021226B6AB94FF0FF30C3E90421D86151B10B611448FFF72CFFFFF77CFF6F
:20070000012038BD11461269EDE72363F3E70020E26A12B1D569A9420BD2C3E90420D9617E
:2007200058B10361002AE6D0D0695361411AD161E1E71046491B1269EBE7E362F2E70020E5
:20074000DFE700BF400000205C000020014608B538B11320FFF7B9FF80F00100C0B2404205
:2007600008BD6FF00300FBE708B58847DFF804C000DFFEE7F931000810B543780446332B2B
:200780000BD1416A90F82320FFF79EFE014620B12046BDE81040002268E710BD10B50446B5
:2007A000806918B100221146FFF760FF6378232B02BF0022A3689A6110BD70B5044648B370
:2007C0000378F12B26D1002924DB4378042B24D000F1280353E8002F42EA010543E800564C
:2007E00006B1F7E74378332B12D1416A90F82320FFF76AFE014658B194F8233001229B07A0
:2008000056BF656A054620EA05052046FFF72EFF284670BD6FF00305FAE76FF00205F7E7E5
:200820000B4B10B55B6963B100280DDB283353E8002F22EA000143E8001404B1F7E71046BB
:2008400010BD4FF0FF30FBE76FF00300F8E700BF40000020F8B5114B04465E690F46154651
:2008600096B1002813DB0A4601463046FFF72CFE48B97DB129463320746286F82370FFF720
:2008800024FF6FF00100F8BD4FF0FF30FBE76FF00300F8E76FF00200F5E700BF4000002033
:2008A000002230B50B4D6B6C13B11C698C420AD9C0E9022301611BB11C699860611A19619A
:2008C0002AB1D06030BD1A46091BDB68ECE76864F8E700BF40000020C36810B52BB1046983
:2008E0001A69816822441A61996082680AB1D36010BD014A5364FBE74000002038B50D4689
:200900000446B0B10378F22B13D191B14378022B08D14161FFF7E0FF20462946FFF7C0FFAC
:20092000002038BD064B1B6D33B1022343706161F2E76FF00300F4E76FF00200F1E700BF3D
:200940004000002008B558B10278F22A08D14278022A08D101224270FFF7BEFF002008BDD6
:200960006FF00300FBE76FF00200F8E740B10378F22B04D14078831E584258417047002032
:200980007047024608B5EFF305830BB1002008BDFFF70EFD0028F9D11046DFF808C000DFC9
:2009A000F5E700BF6D0900087047164B0268196810B521EA02011960596821EA0201596047
:2009C0001149D1F800442243C1F800249968026821EA02019960D96821EA0201D9604179BA
:2009E000102906D1996811439960D9680A43DA6010BD01F1804303F5823319680A431A605A
:200A0000F6E700BF000401400000014010B508234FF004014FF48044084A10F0800F03F1A4
:200A2000FF3351834FEA400014BF1483548313F0FF03C0B21183F0D110BD00BF0004024058
:200A40000F4B10B5DB68DB43C3F30223C3F10404E4B2A1400F2444FA03F31A40C9B2114378
:200A6000084A09011318C9B283F800130123410900F01F0003FA00F042F8210010BD00BF95
:200A800000ED00E000E100E030B5E0B1C3688B4219D80369994216D200F114031A680A6046
:200AA000BFF35F8F53E8002F0C689442F6D143E8001505B1F2E7043050E8003F5A1E40E801
:200AC000002101B1F8E730BD30B588B181B17AB173B10024C0E9014202FB01F41D1901603F
:200AE000C360436105611846013902D1A21A995030BD851805602846F6E750E8003F5A1C92
:200B000040E8002101B1F8E7704710B590B100F1140353E8004F14B9BFF32F8F04E0226801
:200B200043E8002101B1F4E714B10430FFF7E5FF204610BD0446FBE7F8B50E4617461C46EA
:200B4000054608B90020F8BD0129FBD8C3B1D4E902021B6888B1202AF4D11C4600234FF4EF
:200B6000F97283700023C0E90657C0E90233C0E904330280C6704460E5E7002AE2D11C46C9
:200B8000084BD3F88C0028B1FFF7BFFF0028D9D00123E4E701222021D3F88000FFF755FC68
:200BA000F4E700BF40000020036B30B4B3B10024CD78DA78AA4209D31A46C1E901245AB1C8
:200BC000916074B16160283030BC96E75A681C46002AF2D01346ECE7C162F2E7C1E9013367
:200BE000C1620163EFE730B578B171B10023A1F1080400F10802944208D1626822F0030519
:200C00004268521B42603BB9636030BD15681346002DFAD02A46EEE751F8082C1A60F4E793
:200C20002DE9F04F85B0CDE9010120B90024204605B0BDE8F08F002A00F08B80D2E90184D1
:200C400008F00603062BF1D0D368002C7ED0502BECD1D2E904B5BBF1000F04D01BF0070F90
:200C6000E4D1002DE2D09769D2F800A0002F77D07A1E372ADAD818F0060F08BF48F002082F
:200C800035B16B07D2D1524AA5F148019142CDD8504E002C6DD1D6F88800002862D0FFF7B8
:200CA00034FF04460028C1D04FF00109BBF1000F12D1002D75D1D6F8840000285CD0FFF708
:200CC00024FF002873D083464FF4406549F0100949F00209002CA9D040F2F1122280FD22A4
:200CE0000021019B628465633B4A403D7FB208F00F085D44A563E363C4E90211C4E90411D6
:200D0000C4E90611C4E90911C4E90B1B84F8029084F80380C4F804A084F8207084F82170EF
:200D2000CBF80020A36B3822184605F071FF2B4A2B4B82634FF08072C263029A0262019AE4
:200D4000426220463366FFF767FC70E7002B80D06CE79246934614461827154690468AE786
:200D6000182788E701225021D6F88000FFF76DFB97E74FF0000999E72A464FF44061706F0C
:200D8000FFF763FB4FF44065F0B9B9F1000F1DD0D6F8882072B121461046FFF775FE0024E5
:200DA00096E75A462946706FFFF74FFBECE74FF44065EAE72146D6F880000392FFF713FFAA
:200DC000039A1446934683E7834681E74C467FE7B7FFFF7F40000020A52E5AE26907000895
:200DE0007907000810B5C378044613F0010320D1038083789A0708D513F0100F016B124B42
:200E00000ED0D3F88400FFF73FFEA378DB071AD50D4B2146D3F8880030B1BDE8104033E685
:200E2000586FFFF7E0FEF0E7D3F88000BDE81040D9E6042343700023034AC360536B836033
:200E400003B1D860546310BD4000002070B50546E8B10378F22B1AD14378022B01D1FFF786
:200E60003BFD0026AB782E8013F0010008D0094B2946D3F88C4024B12046FFF705FE304663
:200E800070BDD3F88000FFF7AEFE2046F8E76FF00300F5E740000020006810B103685B68FE
:200EA0001847704708B5836801460BB10322984708BD10B50446FFF7F5FF204610BD30B597
:200EC0000D460023044685B0694628460293FFF7FFF9029AAB68AA60039A0293EB682146D8
:200EE0006846EA600393FFF7F3F9029BA268A360039B0292E2686846E3600392FFF7D2FF0F
:200F000005B030BD826810B50AB905F013FBC368BDE81040184710B5034CA36803B9FEE77B
:200F20002046FFF7EFFFF8E77801002010B504460C2104F0A7FD204610BD10B504460821B0
:200F400004F0A0FD204610BDF8B5817804468568002935D04368C66873B39D60A2686AB39F
:200F60005360002706F10C05214628462770FFF78BFDB368002B46D02846FFF7C6FD0446D8
:200F8000002840D03046FFF7E5FA05463A463946FFF76CFBAD6B726A696A04F10C0005F06A
:200FA0000FFEF923214630462370A770AB6A2035E370BDE8F840F7E5F562CFE73363D0E7B1
:200FC000AB68EBB15B78832B1AD12846FFF7C2FA06460A46FFF74AFBB66B6A6A04F10C0108
:200FE000706A05F0EDFDB36A20360BB1E2781A7000232370214605F10C00BDE8F84043E501
:2010000021462846D5E7F8BD2DE9F0410C4690461F460546002841D00378FA2B3ED100295A
:201020003CD08368B3B15B78832B13D1FFF792FA064601220021FFF719FBB66B21466A6A78
:20104000706A05F0BDFDB06A10B180F800800020BDE8F08105F10C00FFF757FD064678B13D
:2010600021466A6A0C3005F0ABFD0024F923314628463370B47086F80380FFF795FDE6E71A
:201080007FB139469320FFF720FB20B1064B28465969FFF74DFA6FF00100D9E76FF00300CC
:2010A000D6E76FF00200D3E740000020F8B59C460D461746044600286BD00378FA2B68D133
:2010C000002966D000F1280353E8002F12B9BFF32F8F04E0501E43E8000606B1F4E712B118
:2010E0000122E66A7EB9BCF1000F55D061468320FFF7EBFA20B12D4B20465969FFF718FAC7
:201100006FF0010023E0B01CD0E84F3FC0E8412F01B1F9E7DBB2002B41D0B668E2E79A6006
:20112000B268AAB153602846626A06F10C0105F047FD0FB1F3783B70002504F10C07314696
:2011400038463570FFF7A0FCA3681BB90020F8BD2363E8E73846FFF7D8FC06460028F5D050
:201160002046FFF7F7F9074629460122FFF77EFABF6B626A796A06F10C0005F021FDF923CB
:20118000B5703370BB6A31462046F370FFF70CFDDCE76FF00300DAE76FF00200D7E7D6E95F
:2011A0000132002BBBD1E262BAE700BF4000002038B51F4C217A01292FD0B1BB9C2204F106
:2011C000080005F025FD1B4B1B4DE3651023A4F8543005234FF4004128462364FFF71EF9D9
:2011E00008B1C4F8805000210846FFF717F9B0B9D4F88030002108466367FFF70FF980B9E0
:20120000D4F8803000210846A367FFF707F950B9D4F88030E36701232372002038BD002323
:20122000E8E70023EEE70023F4E74FF0FF30F5E740000020B80200200003002010B5044633
:20124000024B036005F0B5FA204610BD3882000810B50446FFF7F2FF2046042104F012FCC2
:20126000204610BD10B50446024B036005F0A1FA204610BD6082000810B50446FFF7F2FFD9
:201280002046042104F0FEFB204610BD036810B53BB1BFF35B8F1B7ABFF35B8F0BB904F002
:2012A00081FF04689CB12268EFF3058333B9FFF77FF818B91046DFF818C000DF201DFFF7C0
:2012C000EBFD2046BDE810400C2104F0DBBB10BD5132000810B5046844B12046FFF7D6FF65
:2012E0002046BDE81040042104F0CCBB10BD406810B503689B689847DFF824C000DFFEE7ED
:20130000012909D104F071FC04F0CCFF044604F095FC204602F05AFE04F067FC04F042FF9E
:20132000F931000838B52A4C237A012B03D04FF0FF35284638BD0021264A2748FFF770FC44
:20134000A06200F055F805460028F0D1234AE16C2348FFF765FCA0640028E8D0FF23214A2D
:20136000214982F8223092F82230D26863F0FF03DB4314BFB3FA83F32023C2F30222C3F1E8
:201380002003934298BF531CFE2202FA03F3154ADBB2D377FF2382F823304FF0E0230622EE
:2013A0001A6147F6FF425A6100229A6181F840204FF0FF3222611A690C4842F001021A6109
:2013C000FFF7C8F8FFF718F902232372B1E700BF4000002080820008170F0008A482000879
:2013E0003D14000800ED00E0B80200205C00002038B5FA230C4C00252370082304F10C002B
:20140000C4E9093514220421084BC4E90155C4E90B556580FFF758FB054B064A28461A6766
:20142000054ADC641A6538BD008300203483002040000020490F0008192F0008044607B519
:201440000A4DEFF30583002BFBD1FEF7B1FF02460028F6D1204669464FF0FF33AC4600DFA1
:201460000028EED1DDE900309847EAE7AD100008002313B5ADF80630064BDC692243DA611E
:2014800040F2013300916946ADF80430FEF740FF02B010BD003802402DE9F84F0F46164692
:2014A0008946DFF8B4802D4DDFF8B4A0A9EB07039E424DDD19F8014B0D2C0ED098F81830B9
:2014C000192B0DD80A2C18D10D2BEFD80E23022488F81830B1206C8305E0002388F8183016
:2014E0000224B0206C83FFF791FA0020FFF78EFA1120FFF78BFA2C83D8E70133DBB20E2BD4
:2015000088F8183014D14FF0020B0020FFF77EFA0020FFF77BFAB120A5F81AB0FFF776FA1B
:201520000020FFF773FA1120FFF770FAA5F818B04FF0060B203CE4B20BFB04A414F8010B2A
:201540000BF1FF3BFFF762FA1BF0FF0BF6D1ADE73046BDE8F88F00BF780100200004024053
:20156000C88200082DE9F04F2D4B2E4C986D228C85B010446FF0020280B220841A6094F857
:2015800022300133DBB2012B04D884F8223005B0BDE8F08F0023400884F8223002F0DAFF85
:2015A000A16D054603F0EAF990B3A565B4F84A303F2B41D80133A4F84A30002384F84830A5
:2015C0000022184B18491A84186D03F0CFF8174903F018F803F0DCF94FF4B4735A3090FB9E
:2015E000F3F203FB1200124B124A1B7A984203DD03F10A01814208D803F1B401884240F3A6
:20160000AA81BE33834240F2A68180231383BEE72846616D03F094F90028C7D06565C5E7C1
:201620000024014078010020DB0F49400000344304000020000802400123D4F85490D4F8B4
:20164000588084F848304146484602F0D3FE4FF07C5102F0D7FF0146284602F0C9FE494615
:201660000546404602F0C4FEE76D0146284603F07DF8266E394602F0BBFEA64902F0C2FF14
:20168000314602F0B5FEA44902F0BCFFA34902F0B9FF394602F0AEFEA149E065009002F030
:2016A000B1FF314602F0A6FED4F850B020669D490190584602F0A6FF9B49029002F0A2FF66
:2016C0000021044603F03CF908B104F10044204603F05EF902F042FF0146204602F088FE7D
:2016E0004FF0884102F08EFF044603F077F9C0F30806304602F02EFF0146204602F078FE4B
:2017000006F1800804468948C8F3080800EB8803D3F87453D3F878A3294600EB86035046FD
:20172000D3F87493D3F8787302F062FE09F1004806463946404602F05BFE7D4902F062FFD8
:2017400031460390304602F055FE039A0146104602F04EFE214602F055FF764903903046D7
:2017600002F050FF41460646404602F043FE394602F03EFE6E4902F045FF0146304602F053
:2017800037FE039A114602F035FE214602F03AFF06466749404602F035FF314602F02AFE30
:2017A000214602F02FFF294602F024FE49468046384602F01DFE51460646284602F01AFEE4
:2017C0005B4902F01FFF31460390304602F012FE039B0146184602F00BFE214602F012FF2B
:2017E00054490390304602F00DFF29460646284602F000FE514602F0FDFD4D4902F002FF20
:201800000146304602F0F4FD039B194602F0F2FD214602F0F7FE06464549284602F0F2FED2
:20182000314602F0E7FD214602F0ECFE494602F0E1FD00210446029803F082F808B104F199
:2018400000444146019802F0DDFE21460546009802F0D8FE0146284602F0CAFD0146002070
:2018600002F0C6FD344C0746D4F84490616A02F0C9FE494602F0BEFDD4F83C80054641462C
:2018800003F07CF838B9A66B2846314603F058F810B92E4600E046462946304602F0A8FD92
:2018A000A16A05462064384602F0ACFE616B8246284602F0A7FE0146504602F09BFD4946A5
:2018C00002F098FD054601466064404603F038F810B1C4F8448007E0D4F8388028464146E1
:2018E00003F02EF80028F4D10C49304602F08AFE594602F07FFD1149054603F03FF8F8B118
:2019000028460E4902F074FD0546E6642565676656E600BFF4FDB43F63149D430AD7A339C0
:20192000DB0FC93DE02E6542610B363BF0810008DB0F493C0000404078010020DB0FC94031
:201940002846064902F0FCFF0028DED02846044902F050FDD8E78023538318E6DB0FC9C064
:20196000DB0FC940F8B50D460646E0B1EFF30583FBB1144BDC68FEF73FFD134902460023E6
:20198000A4FB010103F09AF800230F4A07460C4603F094F80023C6E900010B4A384621467A
:2019A00003F08CF8B26015B10023C5E900330020F8BDFEF7FDFC0028DBD1DFF810C000DFB7
:2019C0000446D8E74000002040420F00890300080B4600F10802026070B553F8084BA34223
:2019E0000FD11C4601F1180554F8046BAC4242F8046BF9D10B6000234A680B7242604B6070
:201A000070BD8A6804608260F4E708B50B68002B02DA0C4804F070FD93420AD9B3EB420FF3
:201A20004FEA420005D20028B6BF6FF0004308600B600868013001D504F058FDBDE8084095
:201A400004F076BC6C9100080068013104F01AB8024652F8081B914202D08168FFF7F4BF0F
:201A60007047406801F100410139091A914208B502D2184604F040FD08BD012A30B403D1DC
:201A80000B78037030BC7047002AFBD030BC05F097B8521AFFF7F1BF73B5044616460D4655
:201AA00019B912B10D4804F024FD731B0F2B019307D90022204601A9FFF7A7FF019B206001
:201AC000A360324629462068FFF7E3FF0021019B22686360D15402B070BD00BF84910008D2
:201AE00010B5044600F10802026006C94FF000030A44FFF7D1FF204610BD38B500F1080339
:201B00000446036008460D4603F0D2FA4FF000032A1829462046FFF7BFFF204638BD052A21
:201B200010B504460CDC931D0EDB05320A2A1AD8DFE802F0171513110F0C202224262800E0
:201B40006FF000439A4210D00F4900E00F4920460CE00F49FBE70F49F9E70F49F7E70F4945
:201B6000F5E70F49F3E70F49F1E70F49FFF7C5FF204610BD0D49EAE70D49E8E70D49E6E773
:201B80000D49E4E70D49E2E760940008AE910008CF91000816920008489200085F920008CF
:201BA0006F920008CA920008249300085293000876930008A8930008DE9300082D94000876
:201BC000063210B50446052A12D8DFE802F00F110D0B090307492046FFF78FFF204610BD3B
:201BE0000549F8E70549F6E70549F4E70549F2E70549F0E76E9400087C940008D494000886
:201C00004D950008CA920008609400082DE9F3470A9E1F46436801EB0208B21A1A44A3EBC4
:201C200008090346019253F8082B0D469A420CBF0F22826801A90446FFF7E7FE82461DB1BF
:201C40002A462168FFF719FF37B12EB1324639460AEB0500FFF711FFB9F1000F07D02168A6
:201C600035444A4641440AEB0500FFF706FF2046FFF7EEFE019BC4F800A0A36002B0BDE847
:201C8000F08773B50446234653F8086B40689E420CBF0F23A36885189D420AD812B130440F
:201CA000FFF7EBFE00222046236865605A5502B070BD0B460092014600222046FFF7A6FF92
:201CC000F0E770B5044608460D4603F0F1F90646024600212046054BFFF7C3FE3246294637
:201CE0002046BDE87040FFF7CCBF00BF6895000806C9FFF7C6BF08B5034608465B6811462C
:201D0000984203D90246024804F0F9FB08BD00BF7D950008FFF7C0BE03688B4206D84068C3
:201D20001844814294BF00200120704701207047012A30B403D10B78037030BC7047002ABB
:201D4000FBD030BC04F04ABF2DE9F74F144680460C9D89462A461F462146384BFFF781FEA7
:201D6000424652F8086BD8F8043096420CBF0F22D8F80820A5EB040B03EB0B0A524550D3F2
:201D80004E443946A1444046A3EB0909FFF7C4FF80B1B9F1000F06D0AC4204D04A46311912
:201DA0007019FFF7C5FF0DB32A4639463046FFF764FE1BE02DB1AC423BD32A463046FFF7B2
:201DC000B7FFB9F1000F11D0AC420FD04A4631197019FFF7ADFFAC4208D234447B199C422F
:201DE0000FD32A4639463046FFF7A2FF00224046D8F80030C8F804A003F80A2003B0BDE87C
:201E0000F08FBC4203D82A4607EB0B01CEE7E41B224639463046FFF78BFF2A1B7119301953
:201E2000C5E73B462246494640460095FFF7EEFEDCE7B9F1000FD0D0C8E700BFB4950008A6
:201E40002DE9F04104460F461546084A1E46FFF752FF62680146D21BAA42334628BF2A468A
:201E60002046BDE8F041FFF76FBF00BFCD95000807B55368009313680022FFF7E1FF03B0A9
:201E80005DF804FB73B50546104614460E4603F00FF923460090002231462846FFF7D0FFB7
:201EA00002B070BD38B551EA000305462AD0002928DBFEF7A1FA0446A0FB0505002304FB06
:201EC0000151174A02F0AAFD0246EFF3058373B16FF00505102003F031FE044603F0F0F800
:201EE000294602460F4B204603F094F90BE0FEF75FFA0028ECD11046DFF82CC000DF05468A
:201F00000028E7D138BD2046084A094904F0B0F90546204603F028FE284602F057F800BF0D
:201F200040420F00E69500084D0700086967000880990008F0B50027136806468BB00C203E
:201F400017600C46009304F0F3F9009B07604360077205461C22394603A8009704F058FE93
:201F600001230293E36801932368059363680693A368ABB10793EFF305821AB9FEF718FAFE
:201F800080B12A60102003F0D9FD064603F098F84FF0FF310246184B304603F03BF911E016
:201FA0001823E7E729461548DFF854C001AA00DF28600028E6D068463560FEF76DFF304657
:201FC0000BB0F0BD30460F4A0F4904F051F9044603E00446304603F0C7FD281DFEF75CFFFB
:201FE0000C21284603F04EFD6846FEF755FF204601F0ECFF0446F7E7EE950008EF12000813
:20200000210C000869670008809900082DE9F041264F0D46D7F83011044686B007F168068D
:2020200039BB102202A804F0F3FD0C2004F080F91F4B0190C0E9003601AA684602A9FFF77F
:2020400079FF01A8FEF728FF042004F071F9009AD7F8308102600022C7F83001009202920D
:20206000B8F1000F15D102A8FFF734F96846FFF70DF92946601D06EB001006B0BDE8F041D2
:20208000FEF71DBF044601A8FEF706FF204601F09DFF4046FFF7FAF80421404603F0F2FC95
:2020A000E1E704466846FFF7F1F8EFE778010020708D00082DE9F047D1E9009704462020E5
:2020C00090461E4604F034F94FF0000A05460146C0F808A04046FEF70CF9AB68C5E906978C
:2020E000C5F810A09BB9102003F028FD064602F0E7FF6FF0030102462D4B304603F08AF8A5
:2021000030462C4A2C4904F0B3F8044643E059EA070313D0002F11DA102003F00FFD06468D
:2021200002F0CEFF6FF003010246244B304603F071F830461F4A204904F09AF8EFF30582BD
:2021400022B9FEF735F9034670B12A61102003F0F5FC064602F0B4FF4FF0FF310246184B6D
:20216000304603F057F80DE02A461648DFF858C086F0010100DF28610028E7D02046256053
:20218000BDE8F08730460B4A0B4904F071F80446304603F0E9FC2846FEF784FE284620217B
:2021A00003F070FC204601F011FFF0E7EFE700BFFA950008696700088099000812960008AD
:2021C000339600085D260008390B000838B5EFF3058373B16FF00505102003F0AFFC04465B
:2021E00002F08EFF294602460E4B204603F012F80BE0FEF7DDF80028ECD16FF00040DFF8DD
:2022000028C000DF051EE7DB38BD2046074A084904F02EF80546204603F0A6FC284601F056
:20222000D5FE00BF3E960008210800086967000880990008002200232DE9F04F06460025FB
:2022400087B0CDE90223CDE904239A4FDFF86882002D00F0998004A902A8FDF791FFDDE90E
:20226000043440B2002804DCD91944F10002CDE9021202980399C01A61EB040100238D4ADE
:2022800002F0CCFB4FF47A74A0FB042004FB010452EA040313D0002C11DA102003F04EFCE7
:2022A000044602F00DFF6FF003010246834B204602F0B0FF2046824A824903F0D9FFFEF799
:2022C0009BF88146EFF30583002B40F0EF80FEF76FF88246002840F0E980A9FB02010023C1
:2022E00009FB0411734A02F099FB51460246DFF8D8C16FF0004000DF04460AB9C21C33D0C7
:20230000002C11DAA31C2FD0102003F017FC054602F0F6FE214602466C4B284602F07AFF42
:202320002846674A6749C8E74FF00009FFF74EFF04A804F0A9F8B9F1000F52D02C464FF0C7
:2023400000094FF0010A049B059A13EB080342F10002CDE9023215F0010F09F1010B4FEA70
:20236000550574D1D946F6E74FF00109DEE70546204603F0F9FB284601F028FE04462846DF
:2023800003F0F2FB2046F7E7EFF3058373B16FF00504102003F0D2FB054602F0B1FE2146E0
:2023A00002464A4B284602F035FFB9E7FEF700F80028ECD16FF0004029464FF0FF32DFF8E5
:2023C00008C100DF041EE4DBFFF700FF04A804F05BF8049B059A13EB080342F10002CDE95A
:2023E00002322C43A1464FF0000A4FF0010BB9F1000F59D009F00103D4464FEA59090AF130
:20240000010A002BF6D00BFA0CF32B42EFD170680CF1160E00EBCE03019350F83A3000EBA9
:20242000CA02A3FB071352680CF1050C07FB0233049A8A18059940F83E20019A43EB0103D8
:20244000536000EB0C10FEF75DFDD0E796E7716809F10200030101EB001082680AB904F0C9
:2024600069F801EB0911CA6A01939047A0B1019B7268603313449968019389B109F11601C5
:2024800002EBC10104A8FDF77BFE40B2002807DD019B1846FEF736FD0AFA09F924EA090433
:2024A000D946002D7FF457AF2546D1E66FF005042AE700BF40420F0080F0FA025196000811
:2024C0006967000880990008550800086D960008FFF7DFBA0B46012B10B41146044602D14F
:2024E000227010BC7047002BFBD01A4610BC04F08FBB37B50F2904461546019106D900220B
:2025000001A9FFF782FA019B2060A360019919B12A462068FFF7DEFF0021019B2268636047
:20252000D15403B030BD2DE9F34116461D4604462A461B4B0F463146FFF793FA234653F8AA
:20254000080B626898420CBF0F23A368A5EB0608904443451BD3F319D21A06D0AE4204D042
:20256000384481192844FFF7E3FB35B1206829469DF820203844FFF7ADFF00222046236822
:20258000C4F8048003F8082002B0BDE8F08100233246394620460095FFF738FBE5E700BF47
:2025A0007F96000807B500920B4600224168FFF7BAFF03B05DF804FBF0B5026906468DB045
:2025C000EFF305836BB16FF00504102003F0B6FA054602F075FD1D49074606A8FFF78DFAAD
:2025E0000CE0FDF7E5FE0028EDD11046DFF860C000DF04460028E8D10DB0F0BD6846326928
:2026000006A902F04DFE6B463A462146284602F0BFFD6846FFF71CFA06A8FFF719FA28463B
:202620000C4A0D4903F024FE04466846FFF710FA06A8FFF70DFA284603F096FA204601F0EE
:20264000C5FC0446F4E70446F5E700BF9C96000845090008696700088099000810B5044617
:202660000069FEF78EF958B1A3680BB903F062FF2046E368984718B92046BDE810409BE70B
:2026800010BDF0B506688DB08EB9102003F056FA044602F015FD6FF002010246304B20468A
:2026A00002F0B8FD20462F4A2F4903F0E1FDD6E90615FDF7A1FE0446A0FB0101002304FBD5
:2026C00005112A4A02F0AAF932690146EFF305836BB16FF00504102003F030FA054602F081
:2026E000EFFC234907466846FFF707FA0CE0FDF75FFE0028EDD11046DFF878C000DF0446E0
:202700000028E8D10DB0F0BD6946326906A802F0C7FD3A462146284606AB02F039FD06A8E4
:20272000FFF796F96846FFF793F928460D4A0E49BBE7044606A8FFF78BF96846FFF788F98F
:20274000284603F011FA204601F040FC0446F4E70446F5E70546204603F006FA2846F3E743
:20276000A8960008696700088099000840420F00B5960008FD080008F0B504688DB0002CAF
:2027800051D0EFF305836BB16FF00506102003F0D5F9054602F094FC2449074606A8FFF70C
:2027A000ACF915E02269FDF703FE0028ECD11046DFF87CC000DF06460028E7D12046FEF74B
:2027C00071FB202120460DB0BDE8F04003F05AB96846226906A902F063FD6B463A4631466C
:2027E000284602F0D5FC6846FFF732F906A8FFF72FF928460F4A104903F03AFD08E068462D
:20280000FFF726F906A8FFF723F9284603F0ACF92046FEF747FB2021204603F033F903F087
:20282000C1FCEFE7F1E70DB0F0BD00BFD39600084D0E0008696700088099000803460020CE
:2028400010B50A6808601C681A6044B12046FFF793FF2046BDE81040042103F013B910BDEC
:2028600010B5046844B12046FFF786FF2046BDE81040042103F006B910BD10B50446C8304B
:20288000FEF728FD04F1A000FEF70CFB04F19000FEF708FB04F18000FEF704FB04F1700042
:2028A000FEF700FB04F16000FEF7FCFA04F15000FEF7F8FA04F14000FEF7F4FA04F130007F
:2028C000FEF7F0FA04F12000FEF7ECFA2046FFF7C7FF204610BD10B50446FFF7C1FF2046A9
:2028E00010BD10B504460430FFF7BAFF204610BD30B5354C89B0E369002B2BD130A1D1E949
:202900000001324ACDE902010792314A02A9069201A804AAFFF7CEFB04A8FEF7C3FA042092
:2029200003F006FD019B04900360002304A904F11C000193FFF782FF04A8FFF791FFE069A7
:20294000FFF79FFE01A8FFF717FF0122214B5A8309B030BD1B68D3B11869FEF712F8B0B135
:20296000E369186888B9102003F0E8F8044602F0A7FB6FF002010246174B204602F04AFCBF
:202980002046164A164903F073FCFFF715FEE069FFF777FED9E70546204603F0E5F8284644
:2029A00001F014FB044604A8FEF77CFA2046F7E7044601A8FFF7E0FEF8E700BFAFF30080EB
:2029C000404B4C000000000078010020A9010008B901000800040240E19600086967000876
:2029E0008099000830B5274D0446D5F8383189B0A3B94FF47A73A4FB034003FB0101224BC9
:202A0000CDE902410493214B04AA0793204B02A9069301A80023FFF74DFB09E01B68002B22
:202A2000E7D01869FDF7ADFF0028E2D009B030BD04A8FEF737FA042003F07AFC019B0490AF
:202A400003600023104804A90193FFF7F7FE04A8FFF706FF4FF400620E4BD5F838015A83E4
:202A6000FFF70FFE01A8FFF787FEDFE7044604A8FEF718FA204601F0A9FA044601A8FFF789
:202A80007BFEF7E778010020B0020020D1010008E10100080000024010B50446FFF728FF42
:202AA000054804F093FF32200021FFF79BFF0A2223681A6010BD00BFED96000810B50446E9
:202AC000FFF716FF054804F081FFC8200021FFF789FF0A2223681A6010BD00BFFF96000849
:202AE00038B50E4B0E4C1A8A0546D206237A0ED58BB9FFF7FDFE217A0A4804F067FF14203F
:202B00000021FFF76FFF0A222B681A6038BDA92BEFD8013300E0013B2372EAE7000402406B
:202B2000040000201597000808B50A200021FFF759FF012008BD00222DE9F043734C89B01E
:202B4000009284F84820A4F84A204FF08B42002362656F4A002162626E4A6F48A2626F4A39
:202B6000636462636E4A2364A2636E4A23656366E3652366A365E362E263FFF793F96A48E5
:202B800004F024FF32200021FFF72CFF674B00200793674B04A9CDF810D00693FFF736FA5B
:202BA00004A8FEF77FF9634B4FF4FA620793624B04A90693002304F1E800C4E91C23CDF871
:202BC00010D0FEF77CF904A8FEF76CF95B4B012007935B4B04A9CDF810D00693FFF716FAAD
:202BE00004A8FEF75FF9574B574A0793574B02A90693002301A8CDE90223002304AAFFF7AB
:202C000059FA04A8FEF74EF901A8FFF73AFD002500264FF07C59414FDFF8348100214D4872
:202C2000FFF740F9009B002B46D13946284601F09DFD0146284601F0DBFB41460546E06C76
:202C400001F094FD014601F0DDFC294601F0D2FB002E054614BF3046012001F07FFC064619
:202C60003946284601F082FD314601F07FFD314601F0C0FB494601F0C5FC01F089FE94F8AB
:202C80004820064632B13449606E01F059FE021E18BF01223146314804F098FE3049206D70
:202CA00001F064FD2F4901F0ADFC01F071FE01462D4804F08BFEB1E7013B0093AEE70446D1
:202CC00004A80D46FEF7EEF82046294601290AD001F07CF9F3E7F2E7044601A80D46FFF7EC
:202CE0004BFDF1E7F2E702F080FF03689B68984701461E4804F06AFE02F0A0FF09B0BDE825
:202D0000F083044602F09AFF2046E1E77801002000803B440000704120A1070000002041CB
:202D20001A34CCC31A34CC4322970008992A000859020008BD2A000879020008E12A0008E5
:202D400099020008292B0008C0C62D00B9020008DB0FC940A08601000AD7233C2F970008D6
:202D6000DB0F494000003443469700085C97000808B5EFF3058313B1054B586908BDFDF7D4
:202D800017FB0028F8D1DFF80CC000DFF6E700BF40000020A503000870B5154C0546B4F885
:202DA000541004F15602D2E85F3F994202D8BFF32F8F04E0581CC2E8560F06B1F3E79BB2A0
:202DC000994203D82946022002F032FB04F15800FDF76DFBE36D43F82050637A23B94FF0F1
:202DE0008052044B5A6070BD0123A372FBE700BF4000002000ED00E0F0B5026806468DB02C
:202E000002B11268EFF3058373B1BAB96FF00304102002F093FE054602F052F92A49074623
:202E20006846FEF76AFE25E0FDF7C2FA0028ECD11046DFF898C000DF044614E01378F12BA4
:202E4000E4D10029E2DB5378042B10D002F1280353E8000F40EA010443E8004505B1F7E762
:202E60001046FFF799FF002CD2DB0DB0F0BD6FF00204CDE7326802B11268694606A802F0FC
:202E80000FFA3A462146284606AB02F081F906A8FEF7DEFD6846FEF7DBFD28460C4A0D49A4
:202EA00003F0E6F9044606A8FEF7D2FD6846FEF7CFFD284602F058FE204601F087F804463F
:202EC000F4E70446F5E700BF64970008BB070008696700088099000808B5054B0221D3F871
:202EE0003001FFF789FF0422024B5A6108BD00BF780100200004014008B5054B0121D3F899
:202F00003001FFF779FF0122024B5A6108BD00BF78010020000401402DE9F74F2C4E746CCF
:202F2000002C4FD04FF000094FF0F90B7369DFF8A4A001932369013B23612369002B3FD11D
:202F4000E3680BB1A2689A60F76C736404F11808EFF3058333B18FB9B36921460320736107
:202F600002F066FAFDF724FA02460028F3D1384641461346D44600DFC0B1EDE73B78FA2B45
:202F8000EAD107F10C00FDF7C0FD05460028E3D041467A6A0C3003F013FE2846C5E901874C
:202FA00085F800B0A5F80290FFF7F6FEE378DB070BD520466169FDF773FC746C002CBCD182
:202FC000019B736103B0BDE8F08F01236370F4E74000002009100008FDF7FDB94FF0E0236B
:202FE00070B5594D1B69EB68EC6A0133EB6024B3E369013BE36103BB6378732B00F08E8082
:2030000008D8532B78D0632B00F08180432B07D1234641E0832B00F08880932B00F08C805B
:203020002046FDF7A0FAFDF7A7FA246924B1E369002BE1D000236361EC620020FDF7ECFA4E
:203040002B6D03B198472A6C002A7BD0AB69E96B994203D0D969EB6301B9DA61DA69002A32
:203060006CD12B7A022B6DD16C6A002C6AD0EB6B94F9202093F920309A4263D12046FDF75E
:2030800072FAE86BFDF778FA2046FDF7B5FA2B6CEC63E36156E0DB681A78F12AFBD0BFE741
:2030A000DB681A78F12AFBD0DA789007B8D5D86890F92120C36AD978890709D599688C421A
:2030C00008BFA16821B191F920108A42B8BF0A465B69002BEFD190F920309342A0D00646E8
:2030E00080F820203378F12B08D0FDF73CFA01463046FDF71DFA93E72346D2E7F668002E5F
:20310000F0D18DE7DB681A78F12AFBD088E72346F9E7DB681A78F12AFBD081E72346F9E79B
:20312000DB681A78F12AFBD07AE72346F9E7DB681A78F12AFBD073E72346F9E7013ADA6156
:20314000002A8ED070BD00BF4000002070B5224C04F1560504F15A06B4F85410D5E85F3FF8
:2031600013B9BFF32F8F04E05A1EC5E8502F00B1F4E79BB25BB33046FDF799F9E36D53F80D
:20318000200020B30378F13B082BE5D801A252F823F000BFB931000859310008BF3100086A
:2031A0005931000859310008C3310008C731000859310008CB310008236E9847CCE7636E65
:2031C000FBE7A36EF9E7E36EF7E7236FF5E70020BDE87040FDF720BA40000020036B826B81
:2031E000934205D21868034BC31A58425841704700207047A52E5AE238B5144C237A022B91
:2032000022D1636A03B36569E86AFDF73CFA2846FDF7C4FA04F11C00FDF79CF9FDF7ECF95B
:20322000EFF309832846AB63FFF7D8FF28B9A36929460120636102F0FBF80023284663615C
:20324000BDE83840FDF7CEBD38BD00BF4000002010B50446002845D00378F12B42D143780D
:2032600003F00F03022B06D0032B2BD0012B26D06FF0020031E01D4B1A7A022AF8D15B6AD3
:20328000002BF5D0E06AFDF7FEF92046FDF786FA6378022B22D1154901F11C00FDF75AF981
:2032A000FDF7AAF9EFF309832046A363FFF796FF68B98B6901204B61214602F0B9F8FDF732
:2032C00052F9DFE7FDF74FF9FDF75EF9DAE700234B612046FDF786FD002010BD0020FDF7E8
:2032E0009BF9F6E76FF00300F7E700BF400000207047FEE7FEE7FEE7FEE770473F4B82B040
:203300001A6842F480721A6099683D4A0A409A601A6822F0885222F001121A601A6822F418
:2033200080221A609A6822F47D029A600022DA60009201921A6842F001021A601A6802F0BA
:2033400002020192009A01320092019A1AB9009AB2F5A04FF2D11B6813F0020318BF012390
:203360000193019B012B43D14FF40061254B1A68A3F5806342F00402C3F80024D3F80024C6
:2033800042F00202C3F80024D3F8002442F00102C3F800245A6A42F080525A621A4A1160BC
:2033A0005168C906FCD49A689A609A6842F460529A609A689A609A6822F47D029A609A6846
:2033C00042F408029A601A6842F080721A600B4B1A689201FCD59A6822F003029A609A6842
:2033E00042F003029A609A6802F00C020C2AFAD14FF00062054B9A6002B0704700380240CB
:203400000CC0FF88003C02400070004000ED00E01EF0040F0CBFEFF30880EFF309808169B3
:2034200011F8021C00292ED101B590E80F10E047BDE80050CCF80000224B93E8060091424F
:2034400008BF70471A60A9B1ACF1200CC1F838C006B40846FFF7C2FE06BC38B9012001F01D
:20346000E7FF184B5A681A60002103E0D1F838C08CE8F00F1400A06B6FF0020EB0E8F00F6A
:2034800080F309887047104A13689942FAD801B552F821C00FC8E047BDE80050CCF8000057
:2034A000704701B5FFF752FEBDE80140EFF3098CC2E701B5FFF792FDBDE80140EFF3098CBB
:2034C000BAE7000054000020688E000803685A004CBF43F0004323F000431844704700BF6B
:2034E0002DE9F84339B34F1E044615463E464FF0000808EB060101EBD171491004EBC10978
:203500004846FFF7E3FF0346C80008308F4220440BD0AB420BD8FFF7D9FF0138A84201F139
:203520000108E6D34846BDE8F883AB42FAD9884501D04E1EDDE74FF000094846BDE8F88397
:20354000012807D0022807D0044B00280CBF1846002070470248704702487047313C00087C
:20356000353C0008393C000830B5244B044683B08D1E3BB3284601A9AFF30080E8B101997E
:203580002A46FFF7ADFF0146B8B1FFF79FFF4B68A064012B2ED0002B27DB081DFFF796FF17
:2035A0000023C4E913030368002B12DBFFF78EFF03460020236103B030BD002309202361C2
:2035C00003B030BD0E4B0F491846C91AC9100191D6E7C3F30360FFF7B3FF0028034614BF2C
:2035E00000200920236103B030BD0123081DC4E91303D8E7002305202361DCE70000000004
:203600007CA5000834A80008036810B5DA07044606D49B0700F1480009D500F05DFC2368DB
:20362000590709D51A070ED5DB0613D510BD00F04BFC23685907F5D404F1D00000F054FCC2
:2036400023681A07F0D404F5A87000F055FC2368DB06EBD404F5E870BDE8104000F090BCFB
:20366000092070470346006800B11844704700BF704700BF70B504460E462046316CFFF704
:2036800073FF054698B9D6F840C03246214601202369C4F814C098470828EED0072806D15F
:2036A0002846316CFFF7E4FF301D00F001FC03F053FA00BF2DE9F0474FF0000AADF5727DC6
:2036C0000DF10C0E01F1040CC768D0F8188006461446BCE80F00AEE80F00BCE80F00AEE8FA
:2036E0000F00BCE80F00AEE80F009CE80F0002AD8EE80F00C5F800A021E02B6C4FF4F07202
:20370000294673617AA803F05BFA3146504633697AAA9847889C82466C6433463246494614
:203720000120CDE90058B8470446F0B94FF4F07228467AA903F044FABAF1080F1BD13046DD
:20374000296CFFF711FF04F109095FFA89FA04460028D2D0A96B3346696432460120CDE92E
:2037600000584AF01001B84700B1092420460DF5727DBDE8F087BAF1070FF6D12046296CD3
:20378000FFF776FF03A800F093FB00BF406C7047F0B54FF0FF37CB6BF9B00B6401AC01F16C
:2037A000040C0E460546BCE80F000FC4BCE80F000FC4BCE80F000FC49CE80F0084E80F00BA
:2037C000009706E06A4629462B6998470828044608D128461099FFF7C7FE0028F2D00920A2
:2037E00079B0F0BD6846FFF70FFF062CF7D131462846FFF73FFF00BF10B414468461DC6B25
:20380000C16000221C64194610BC53E770B54369C6680B64AEB90A46036904460D4601460B
:2038200002209847072805D008280FD129462046FFF720FF3046296CFFF71AFF281D00F03A
:2038400037FB0122FFF736FF03F086F903F084F9C2682AB1D1F83CC00022C1F840C029E751
:2038600096E700BF704700BF836801460BB1012018477047012912D009D873B90F2A0CD83B
:2038800000EB820042681846009B1A6070470339012994BF0120022070470220704708460D
:2038A000704700BF002300B585B00A4603A900911946FFF7DFFF039805B05DF804FB00BF62
:2038C000012912D009D873B90F2A0CD8009900EB820209681846516070470339012994BFBA
:2038E000012002207047022070470846704700BF002310B584B003AC039200940A4619468E
:20390000FFF7DEFF04B010BD70B54FF0FF36D36BADF50E7D13640DF15C0E02F1040C054622
:203920000C46BCE80F00AEE80F00BCE80F00AEE80F00BCE80F00AEE80F009CE80F008EE824
:203940000F00169612E00C2116A86A46FFF7D0FF214616A8A84778B969460820049B16AADF
:2039600098470528064608D0092805D068462699FFF7FAFD0028E6D0092616A8FFF744FEB4
:2039800030460DF50E7D70BD2DE9F04F1E46CC6C89B054F8043B0D46174600F003080694FD
:2039A000002E79D002228DF81C201A0C8DF81D201B04D2B2059304EB82042B6DB8F1020FC1
:2039C00008BFAC6B13F001030CD0384605A900F071FB18B9082009B0BDE8F08F092009B0E6
:2039E000BDE8F08FD4F800A0BAF1000FEDD0019300F008030293022E4AD0B4F800A0B4F85A
:203A000002900434AA6C0F21384629F0010B9344FFF748FF834539D82AF001025A44824287
:203A200094BF002001204FEA490303F002030AF0010A43EA0A03012B49D0022B32D0002B97
:203A4000CCD1B8F1000F02D0002840F0CE800434D4F800A0BAF1000FCDD1384605A900F081
:203A600029FB0028BAD1019B002BB3D00F213846FFF718FF0E2102463846FFF739FF3846C9
:203A80000F216A4AFFF734FF0720A8E70020CAE7D4F804900834B5E71B0205930323ADF8DA
:203AA0001C308AE7236823F0004BB8F1000F45D128B1029A002A5CD0BBF1000F74D0002B9D
:203AC00000DA04340BF1010B04EB8B04C0E7B8F1000F19D1B0B163682268991C4FEAD2721D
:203AE0003FF47CAF05F158010133049100F09180201DFFF7B7FD04AB0146284602F092FE82
:203B000000285CD10834A3E70D213846D5F82090FFF7C8FE8145F5D1AB6A9C42F2D12046FD
:203B2000FFF7D4FC0F2102463846FFF7E1FE38462A460021FFF7DCFE072050E70D2138460B
:203B4000D5F82090FFF7AEFE814501D02368B6E7AB6A9C42FAD104230022C5E90B23E318A9
:203B6000C5F828B06B632368002B5ADB01230193A8E705F15803CDF80C809146B04604F14C
:203B8000040A1E460EE050460496FFF76BFD0022014604AB284609F101090AF1040A02F0B2
:203BA00041FEE8B9D945EED10D213846FFF77AFE0346049A0620C5E909242B620FE78146FC
:203BC0000D213846FFF76EFEB9F1020F286225D12B46049A43F82C2F6B620620AC62FEE612
:203BE00046462368DDF80C8069E72046FFF76EFC02460434AC632846144602F071FE002857
:203C00003FF4ECAE384622460F21FFF771FE0720E5E60D213846FFF745FE2862049B6B628F
:203C2000DBE70BF1010004EB800079E7736900080023A9E60123A7E60223A5E62DE9F043B6
:203C4000064615461C46C3B0042900F2B880DFE801F09C56B62D0300002C40F0B080102A3B
:203C600000F2AD800368D80600F1F18020AF384600F090F9012438460023B16B04FA03F2DF
:203C80002A4203F1010305D00A4652F804CB1146C0F800C0042B00F10400EFD13846B1633D
:203CA00000F06EF9002043B0BDE8F083032C40F0868094B204EB1243102B4FEA12457ED872
:203CC00003681F0700F1CB8020AF384600F036F9B26B07EBC50154B10B4601EBC401D01AE5
:203CE000E4001D5843F8045B8B42FAD122443846B26300F001F9002043B0BDE8F083012CFE
:203D00004FEA124895B256D0052C58D108EB0509B9F1200F53D8B8F10F0F73D9A946002D15
:203D200040F08480B36B65B320AF4FF0000907EBC807043F03EBC50553F8041BAB4247F8B0
:203D4000041FF9D1B9F1000F0FD06F464146102938BF102107EBC101843903EBC90553F8C9
:203D6000040BAB4241F8040FF9D1012C7FD0B8F10F0FB56342D9B9F1000F02D0684600F092
:203D8000B3F8002043B0BDE8F083C4B923460124826B371DA8B204FA03F101421CBF52F84D
:203DA000041B47F823100133102BF4D115F40050E7D1B26304E008EB0503102B03D9022000
:203DC00043B0BDE8F083B8F10F0FF8D83368DA0706D5304623F0030340F8483B00F078F840
:203DE00020AF384600F074F8B36B002D9DD11D4604353846B56300F067F8C2E720A800F07F
:203E00006BF8B8E7B9F1100F3FD9A9F110093368D90708D5304623F0010343F0020340F8B7
:203E2000483B00F05DF8B9F1000F31D033685A071FD4B8F10F0F24D96F46C8F1100538464C
:203E400000F056F8002DB36B80DD20AF6FE723F01003336006F5E87000F09CF806E723F0C7
:203E60000803036000F5A87000F068F82CE720AFBEE7304623F0040340F8D03B00F038F8FD
:203E8000D7E720A800F02CF8D6E74FF00009BEE7B8F10F0F3FF646AF20AF384600F020F898
:203EA000B36B002D7FF441AF384600F015F868E700F1340191E838009C46A6464CF8045D40
:203EC00090E8FF0FE54600BD90EC210B704700BF80EC210B704700BF90EC200B704700BF2B
:203EE00080EC200B704700BFD0EC200B704700BFC0EC200B704700BFF0EC0201F0EC02113D
:203F0000F0EC0221F0EC0231F0EC0241F0EC0251F0EC0261F0EC0271F0EC0281F0EC0291E9
:203F2000F0EC02A1F0EC02B1F0EC02C1F0EC02D1F0EC02E1F0EC02F1704700BFE0EC020152
:203F4000E0EC0211E0EC0221E0EC0231E0EC0241E0EC0251E0EC0261E0EC0271E0EC0281A9
:203F6000E0EC0291E0EC02A1E0EC02B1E0EC02C1E0EC02D1E0EC02E1E0EC02F1704700BFE2
:203F8000B0FC0181B0FC0191B0FC01A1B0FC01B1704700BFA0FC0181A0FC0191A0FC01A109
:203FA000A0FC01B1704700BFEC4600B52DE900502DE9FF1F4FF000032DE90C0001A9FFF7B8
:203FC000E7FBDDF840E012B0704700BFEC4600B52DE900502DE9FF1F4FF000032DE90C00ED
:203FE00001A9FFF713FCDDF840E012B0704700BFEC4600B52DE900502DE9FF1F4FF0000322
:204000002DE90C0001A9FFF723FCDDF840E012B0704700BFEC4600B52DE900502DE9FF1F11
:204020004FF000032DE90C0001ABFFF7E5FBDDF840E012B0704700BFEC4600B52DE9005020
:204040002DE9FF1F4FF000032DE90C0001AAFFF75BFCDDF840E012B0704700BF027A0346DE
:204060007AB9427AA2B14FF0030C4168013A427208680A1D5A60020283F808C0000E1A60F8
:2040800070470068013A1A7202021A60000E7047B0207047002300B585B003A900910C22F8
:2040A0001946FFF7E7FB039805B05DF804FB00BFF0E700BF2DE9F0434FF0000805460E46A1
:2040C00085B03046FFF7CAFFB028044600F0BA80070620D500F0F003802B4DD0902B36D0BC
:2040E000A02B60D0B02B73D0C02B00F08A8000F0F803D02B0BD100F007020132052301218A
:20410000284642F40022FFF799FD0028D9D0092005B0BDE8F0838300DBB21F1D00230DF119
:204120000C0919460D222846CDF80090FFF7A2FB039B60064CBFDF1BFF1800230D222846A6
:204140001946CDF800900397FFF7BAFBB9E700F00D030D2BDBD0002303AF194600F00F02AE
:2041600000972846FFF786FB00230D22284619460097FFF7A5FBA4E73046FFF76FFF2402EC
:204180002043B0F5004FC2D00023040119462846A2B2FFF753FD0028B9D114F4004F18BFC7
:2041A0004FF001088DE7C3434FF47F6203F007031A410023010702F47F6248BF42F48042C0
:2041C00028461946FFF73AFD00283FF47AAF9EE7B1283CD0B22800F0B080B3284AD000F018
:2041E000FC03B42B93D0012300F007021A442846194642F40022FFF721FD00283FF461AF5F
:2042000085E7C6284FD0C72861D000F0F803C02B70D0C8287CD0C9287FF479AF3046FFF7BB
:204220001DFF0523024601212846140302F00F0204F470240A442243FFF700FD00283FF4BB
:2042400040AF64E7B8F1000F1CD0002060E73046FFF704FF024600283FF459AF10F0F0030C
:204260007FF455AF19462846FFF7E8FC00283FF428AF4CE73046FFF7F1FE01230246194695
:204280002846D2E703AC43460E22414628460094FFF7F0FA43460F22284641460094FFF7ED
:2042A0000FFB404634E73046FFF7D8FE02460323140302F00F0204F47024013228461946FD
:2042C0002243FFF7BBFC00283FF4FBAE1FE73046FFF7C4FE024600283FF419AF10F0F00336
:2042E0007FF415AF04212846FFF7A8FC00283FF4E8AE0CE7032300F00F020132284619464F
:2043000042F42022FFF79AFC00283FF4DAAEFEE63046FFF7A3FE0246012102F0F00402F083
:204320000F0210340A440523284642EA0432FFF785FC00283FF4C5AEE9E600230DF10C0998
:204340000D2219462846CDF80090FFF793FA3046FFF784FE02064FF002040CD5039B00F0DF
:204360007F00A040184403903046FFF777FE030604F10704F2D4039B00F07F02A24003F556
:2043800001731A440023039228460D221946CDF80090FFF795FA94E60B464FF0030C00B5EF
:2043A000C26C1846536885B00832029201A91A0E1B028DF80CC001938DF80D20FFF77AFEBF
:2043C00005B05DF804FB00BF08B5FFF771FE806C08BD00BF08B5FFF76BFEC06CC3790233CA
:2043E00000EB830008BD00BF80F0004002E000BF81F0004142001FBF5FEA410392EA030F8D
:204400007FEA226C7FEA236C6AD04FEA1262D2EB1363C1BFD218414048404140B8BF5B428B
:20442000192B88BF704710F0004F40F4000020F07F4018BF404211F0004F41F4000121F0F8
:204440007F4118BF494292EA030F3FD0A2F1010241FA03FC10EB0C00C3F1200301FA03F100
:2044600000F0004302D5494260EB4000B0F5000F13D3B0F1807F06D340084FEA310102F163
:204480000102FE2A51D2B1F1004F40EBC25008BF20F0010040EA03007047490040EB000070
:2044A000013A28BFB0F5000FEDD2B0FA80FCACF1080CB2EB0C0200FA0CF0AABF00EBC25089
:2044C00052421843BCBFD0401843704792F0000F81F4000106BF80F400000132013BB5E705
:2044E0004FEA41037FEA226C18BF7FEA236C21D092EA030F04D092F0000F08BF08467047C9
:2045000090EA010F1CBF0020704712F07F4F04D1400028BF40F00040704712F100723CBFFC
:2045200000F50000704700F0004343F0FE4040F4000070477FEA226216BF08467FEA236341
:204540000146420206BF5FEA412390EA010F40F4800070474FF0000304E000BF10F0004341
:2045600048BF40425FEA000C08BF704743F0964301464FF000001CE050EA010208BF704796
:204580004FF000030AE000BF50EA010208BF704711F0004302D5404261EB41015FEA010CF4
:2045A00002BF84460146002043F0B64308BFA3F18053A3F50003BCFA8CF2083AA3EBC253FB
:2045C00010DB01FA02FC634400FA02FCC2F12002BCF1004F20FA02F243EB020008BF20F072
:2045E0000100704702F1200201FA02FCC2F1200250EA4C0021FA02F243EB020008BF20EA8A
:20460000DC7070474FF0FF0C1CEAD0521EBF1CEAD15392EA0C0F93EA0C0F6FD01A4480EAE8
:20462000010C400218BF5FEA41211ED04FF0006343EA501043EA5111A0FB01310CF00040F4
:20464000B1F5000F3EBF490041EAD3715B0040EA010062F17F02FD2A1DD8B3F1004F40EB5C
:20466000C25008BF20F00100704790F0000F0CF0004C08BF49024CEA502040EA51207F3AB6
:20468000C2BFD2F1FF0340EAC250704740F400004FF00003013A5DDC12F1190FDCBF00F041
:2046A00000407047C2F10002410021FA02F1C2F1200200FA02FC5FEA310040F1000053EA4A
:2046C0004C0308BF20EADC70704792F0000F00F0004C02BF400010F4000F013AF9D040EAA8
:2046E0000C0093F0000F01F0004C02BF490011F4000F013BF9D041EA0C018FE70CEAD153F4
:2047000092EA0C0F18BF93EA0C0F0AD030F0004C18BF31F0004CD8D180EA010000F00040C5
:20472000704790F0000F17BF90F0004F084691F0000F91F0004F14D092EA0C0F01D142024F
:204740000FD193EA0C0F03D14B0218BF084608D180EA010000F0004040F0FE4040F4000085
:20476000704740F0FE4040F4400070474FF0FF0C1CEAD0521EBF1CEAD15392EA0C0F93EA5C
:204780000C0F69D0A2EB030280EA010C49024FEA402037D04FF0805343EA111143EA101320
:2047A0000CF000408B4238BF5B0042F17D024FF4000C8B4224BF5B1A40EA0C00B3EB510F44
:2047C00024BFA3EB510340EA5C00B3EB910F24BFA3EB910340EA9C00B3EBD10F24BFA3EB96
:2047E000D10340EADC001B0118BF5FEA1C1CE0D1FD2A3FF650AF8B4240EBC25008BF20F07E
:20480000010070470CF0004C4CEA50207F32C2BFD2F1FF0340EAC250704740F400004FF095
:204820000003013A37E792F0000F00F0004C02BF400010F4000F013AF9D040EA0C0093F07E
:20484000000F01F0004C02BF490011F4000F013BF9D041EA0C0195E70CEAD15392EA0C0F84
:2048600008D142027FF47DAF93EA0C0F7FF470AF084676E793EA0C0F04D14B023FF44CAFBF
:2048800008466EE730F0004C18BF31F0004CCAD130F000427FF45CAF31F000437FF43CAF88
:2048A0005FE700BF4FF0FF3C06E000BF4FF0010C02E000BF4FF0010C4DF804CD4FEA40020A
:2048C0004FEA41037FEA226C18BF7FEA236C11D001B052EA530C18BF90EA010F58BFB2EB53
:2048E000030088BFC81738BF6FEAE17018BF40F0010070477FEA226C02D15FEA402C05D1DA
:204900007FEA236CE4D15FEA412CE1D05DF8040B704700BF844608466146FFE70FB5FFF74A
:20492000C9FF002848BF10F1000F0FBD4DF808EDFFF7F4FF0CBF012000205DF808FB00BF5E
:204940004DF808EDFFF7EAFF34BF012000205DF808FB00BF4DF808EDFFF7E0FF94BF012070
:2049600000205DF808FB00BF4DF808EDFFF7D2FF94BF012000205DF808FB00BF4DF808ED1A
:20498000FFF7C8FF34BF012000205DF808FB00BF4FEA4002B2F1FE4F0FD34FF09E03B3EB44
:2049A00012620DD94FEA002343F0004310F0004F23FA02F018BF404270474FF00000704767
:2049C00012F1610F01D1420205D110F0004008BF6FF0004070474FF00000704742000ED203
:2049E000B2F1FE4F0BD34FF09E03B3EB126209D44FEA002343F0004323FA02F070474FF043
:204A00000000704712F1610F01D1420202D14FF0FF3070474FF00000704700BF7BB972B94A
:204A20000029BEBF00204FF0004106E008BF00281CBF6FF000414FF0FF3000F02DBBADF1FC
:204A4000080C6DE904CE002909DB002B1ADB00F04DF8DDF804E0DDE9022304B07047404227
:204A600061EB4101002B1BDB00F040F8DDF804E0DDE9022304B0404261EB4101524263EB15
:204A800043037047524263EB430300F02FF8DDF804E0DDE9022304B0404261EB41017047BB
:204AA000524263EB430300F021F8DDF804E0DDE9022304B0524263EB4303704753B94AB97F
:204AC000002908BF00281CBF4FF0FF314FF0FF3000F0E2BAADF1080C6DE904CE00F006F8B2
:204AE000DDF804E0DDE9022304B070472DE9F047089E0D4604468846002B4DD18A4294465A
:204B000068D9B2FA82F252B101FA02F3C2F1200120FA01F10CFA02FC41EA030894404FEA1A
:204B20001C41B8FBF1F71FFA8CFE01FB178807FB0EF0230C43EA084398420AD91CEB0303CE
:204B400007F1FF3580F01E81984240F21B81023F63441B1AB3FBF1F001FB103300FB0EFE80
:204B6000A4B244EA0344A6450AD91CEB040400F1FF3380F00981A64540F2068164440238EA
:204B80000021A4EB0E0440EA07401EB10023D440C6E90043BDE8F0878B4208D9002E00F002
:204BA000EE800021C6E900050846BDE8F087B3FA83F100294AD1AB4202D3824200F2FC80EF
:204BC000841A65EB030301209846002EE2D0C6E90048DFE702B9FFDEB2FA82F2002A40F033
:204BE0009180A1EB0C0001214FEA1C471FFA8CFEB0FBF7F307FB1300250C45EA00450EFB53
:204C000003F0A84208D91CEB050503F1FF3802D2A84200F2CE8043462D1AB5FBF7F007FB33
:204C200010550EFB00FEA4B244EA0544A64508D91CEB040400F1FF3502D2A64500F2B68054
:204C40002846A4EB0E0440EA03409EE7C1F120078B4022FA07FC4CEA030C25FA07FA4FEAF2
:204C60001C49BAFBF9F820FA07F309FB18AA8D401FFA8CFE1D4300FA01F308FB0EF02C0C58
:204C800044EA0A44A04202FA01F20BD91CEB040408F1FF3A80F08880A04240F28580A8F178
:204CA00002086444241AB4FBF9F009FB104400FB0EFEADB245EA0444A64508D91CEB04045C
:204CC00000F1FF356CD2A6456AD90238644440EA0840A0FB0295A4EB0E04AC42C846AE462C
:204CE00056D353D0002E69D0B3EB080264EB0E0422FA01F304FA07F71F43CC40C6E900745B
:204D0000002147E70CFA02FCC2F1200125FA01F34FEA1C4720FA01F195400D43B3FBF7F1F6
:204D200007FB11331FFA8CFE280C40EA034001FB0EF3834204FA02F408D91CEB000001F159
:204D4000FF382FD283422DD902396044C01AB0FBF7F307FB1300ADB245EA004503FB0EF01E
:204D6000A84208D91CEB050503F1FF3816D2A84214D9023B6544281A43EA014138E7314640
:204D8000304607E72F46E4E61846F9E64B45A9D2B9EB020865EB0C0E0138A3E74346EAE7F3
:204DA000284694E74146D1E7D0467BE76444023847E7023B65442FE7084606E73146E9E6C6
:204DC00010B40024224610F801CB0CF07F0393401CF0800F44EA030402F10702F3D10C6062
:204DE00010BC704710B40024224610F801CB0CF07F0393401CF0800F44EA030402F10702EF
:204E0000F3D11F2A07D81CF0400F04D04FF0FF3303FA02F214430C6010BC7047FF2808B5EB
:204E2000034619D003F07002302A084616D005D8202A09D1BDE8084001F08BBE402A09D1E1
:204E4000BDE80840FFF7C0BA02D813F0600F03D001F082FE502AFBD1002008BDBDE808404D
:204E600001F074BEF0B5502815461E4683B01ED000F00F0304460F460C2B38D8DFE803F070
:204E8000072D33071F373737372723071F00284650F8043B43B104F07002102A08BF2F4674
:204EA00022063B4448BF1B68336003B0F0BDD01C20F0030050F8043B336003B0F0BD2846E7
:204EC00050F8083BE6E7284630F9023BE2E7284601A9FFF787FF019BDCE7284601A9FFF7DC
:204EE0006FFF019BD6E7284630F8023BD2E701F033FE00BF70B50C460146204615461E469B
:204F0000FFF78CFF334601462A462046BDE87040A8E700BF70B506460C46154682B060B374
:204F2000FFF752FA034620462B6010F8011BFF2912D16B6010F8013BFF2B2B7516D10023E3
:204F400001A9EB6010F8013B6B75FFF739FF019B03442B6102B070BD02462B1D3046FFF7C0
:204F6000C9FF10F8013BFF2B2B75E8D001A9FFF727FF019B0344EB60E4E70346D3E700BF22
:204F8000002310B584B003AC039200940A461946FEF796FC04B010BD002300B585B003A9AD
:204FA00000910F221946FEF765FC039805B05DF804FB00BF70B500F0030001280D46144629
:204FC0008CB00AD021462846FFF7E6F910B908200CB070BD09200CB070BD0A4620460C2142
:204FE000FFF7CEFF2046FFF7F5F901460028E9D006AA2046FFF78EFF024620460192FFF7AC
:20500000CBFF0A9B019A20F001069A4206F1FF3603D3D7E70A9B8342D4D99DF82D1002AB3D
:205020000020FFF767FF9DF82D10024603AB0020FFF760FF04AB02469DF82D100020FFF7D8
:2050400059FF05A9FFF7BCFE029A069B1344B3420246B7D803990B44B342DBD9049B002BDC
:20506000B0D0079E9E19ADD02A4600212046FFF787FF002201212046FFF782FF2046FFF7E7
:205080008BFF024602F0010220460F213243FFF777FF07209CE700BF704700BF10F8012BBF
:2050A00011F8013B012A28BF9A42F7D0D01A7047034613F8012B002AFBD1181A01387047BD
:2050C00010B50B4C237CBFF35B8FDB070DD404F1100001F01EF940B1064A0749074800F0D9
:2050E00058FC04F1100001F020F9044810BD00BF7801002000000020651200080400002019
:2051000010B50B4C237DBFF35B8FDB070DD404F1140001F0FEF840B1064A0749074800F0B4
:2051200038FC04F1140001F000F9044810BD00BF78010020000000203D1200080800002038
:2051400038B5044610460B464A6841680A44194651F8085B8D420CBF0F2199688A4212D93B
:20516000014651F8085B8D420CBF0F2181688A4209D81A460021FCF77BFE01462046FCF74F
:2051800027FC204638BD01461846FCF7B1FDF4E770B592B004460E4606A819461546FCF710
:2051A0009FFC1A4906A8FCF78CFD01E0044624E02B683246294668461B6998476A4606A9AE
:2051C0000CA8FFF7BDFF20460CA901F083F90CA8FCF73EFC6846FCF73BFC06A8FCF738FC53
:2051E0000B4BC4E90265236012B070BD04460CA8FCF72EFC6846FCF72BFC06A8FCF728FC2B
:205200002046FEF7E3FE0446F4E7CFE7E3950008649A0008F0B515461F46136893B00A467E
:2052200004460E460CA829461B69984700211A4A0CA8FCF727FE014606A8FCF7C9FB3A46CD
:20524000002106A8FCF71EFE01466846FCF7C0FB6946204601F03EF96846FCF7F9FB06A84D
:20526000FCF7F6FB0CA8FCF7F3FB0C4BC4E90265236013B0F0BD04466846FCF7E9FB06A8DA
:20528000FCF7E6FB0CA8FCF7E3FB2046FEF79EFE0446F4E70446F5E7E3950008649A0008ED
:2052A000F0B593B0054606A81446FCF719FC2822012106A8FDF776F901E0044656E0234664
:2052C000012142F20F7042F21072092B02D9632B07D801310EAB00220CA80C93FDF709F971
:2052E0000CE0B3F57A7F01D20231F3E7834201D80331EFE7B3FBF2F30431E6E76426DDE9B4
:205300000C13274F0B44632C0FD9B4FBF6F006FB104207EB4202044692F88D0B92F88C2B67
:2053200003F8010C03F8022DEDE7092C89BF1C4A303402EB440494F88D3B92BF0C704B700F
:2053400094F88C3B684688BF0B700CAA06A9FFF7F7FE292201216846FDF724F90FE00446D5
:205360006846FCF775FB0CA8FCF772FB06A8FCF76FFB2046FEF72AFE0446F4E79DE701468A
:205380002846FCF725FB6846FCF762FB0CA8FCF75FFB06A8FCF75CFB284613B0F0BD00BFF8
:2053A000F0810008F0B504468DB010200F4600F0C5FB0646FFF784FE1A49054606A8FCF700
:2053C0009CFB3A46684606A9FFF76AFF6B462A4621463046FFF7DCFE6846FCF739FB06A8A9
:2053E000FCF736FB3046104A104900F041FF0D460BE0044668460D46FCF72AFB06A8FCF7EE
:2054000027FB304600F0B0FB2046012D07D0FEF7DDFD04460D46F1E704460D46F1E700F045
:20542000E4FBFEE7C2960008696700088099000808B5FFF7B7FF00BF464B474A2DE9F043BC
:20544000DA60464B202618680023454D19468FB0444C0222806801F0CFFC0422202128463B
:20546000FCF706F82046022204216E83FCF700F802224FF48041FBF7FBFF02221146FBF72F
:20548000F7FF02224FF40051FBF7F2FF02220121FBF7EEFF4FF400536383012363830023AD
:2054A0002E838DF807309DF80730013BDBB28DF80730002BF7D102222B4D62838DF80730FE
:2054C0009DF807305A1C2B4493F8550CD2B28DF80720FBF79BFA9DF807300D2BF0D9AF20DC
:2054E000FBF794FAB020FBF791FA00250226E8B26683FBF78BFA1020FBF788FA013500209E
:205500002683FBF783FA102DF1D1B8206683FBF77DFA002302258DF807309DF80730658390
:205520005F2B23D89DF8070000F00F00FBF76EFA9DF80700000940F01000FBF767FA002099
:205540002583FBF763FA9DF807300133DBB28DF80730E2E700ED00E00003FA05F40000205F
:205560000008024000040240F08100080026B020FBF74CFA0020FBF749FA1120FBF746FA3C
:205580004FF4407825834FF004090125A64FA74B3E769A68A64C22F470629A609A6802A9D8
:2055A0009A609A68A34822F00F029A609A689A60E36943F00103E361E36943F00203E3615C
:2055C000E36943F00103E361ADF80C808DF80F500295FAF79DFEADF80C808DF80F50CDF8F2
:2055E0000890FAF795FE10234FF4406800F580600293FAF78DFE04A80495ADF814808DF888
:205600001650FBF7D2F9CDF81090ADF814808DF81650FBF7CAF932460F210820FBF710FA5D
:2056200032460F210620FBF70BFA834B0AA90993824B06A808930C96FAF75BFE07F1880105
:205640000AA8FAF756FE0AA8FBF72CFC06A8FBF729FC7B4B0AA909937A4B06A808930C96FD
:20566000FAF747FE07F198010AA8FAF742FE0AA8FBF718FC06A8FBF715FC236A43F40073E0
:205680002362636943F400736361636923F400736361A4F58A34636823F0407323F480733F
:2056A00043F480736360A268674B134043F0407343F00203A360236B23F0F87323632369AF
:2056C00043F007032361236C23F01F0343F00A032364A36823F0F00343F07003A3606368F9
:2056E00043F440336360A3682B43A36023685A06FCD500220F211220FBF7A2F963684C4A93
:2057000043F0200363606FF002032360A368494843F08043A360D3694FF4006443F00103DA
:20572000D36140F201330AA9CDE90A43FAF7F0FD0483EFF305839BB1444B187A08BBFAF729
:205740004AFE0546E8B1102000F0F8F90446FFF7B7FC294602463E4B2046FFF75BFD0BE03A
:20576000FAF726FE0028E7D1EFF31483DB07E3D5DFF8E0C000DFE1E72046374A374900F0AC
:2057800077FD102200210AA801F042FA082000F0CFFD334B0690036006AA0AA904A8FCF706
:2057A000C9FB06E00546204600F0DEF92846FEF70DFC06A8FBF770FBEFF30583A3B16FF033
:2057C0000504102000F0BAF90546FFF779FC21460246244B2846FFF71DFD16E0044606A8AD
:2057E000FBF75AFB2046E2E7FAF7E2FD0028E6D1DFF874C000DF04460028E2D104A8FBF7D7
:2058000045FD20460FB0BDE8F0832846124A134900F02EFD044603E00446284600F0A4F956
:2058200004A8FBF733FDDDE778010020000001400038024000000240010200081502000816
:205840002D02000841020008FDF7FFC04000002075970008C70300086967000880990008D4
:205860005C8E0008889700082513000870B500252B4C2C4E204632462B49A56000F089F8CC
:205880002A4A2B4B62632B4A6362A2632A4A2B4BE2634FF08B42A36200232946626504F18C
:2058A00070001822E362236463642365A365E365236663662563A564A56601F0A9F900232F
:2058C00000221F49C4E94623C4E94823C4E94A2304F168003246C4F89050C4F8A050C4F81D
:2058E000B050C4F8C050C4F8D050C4F8E050C4F8F050C4F80051C4F81051C4F8305100F0C1
:2059000048F832460F4904F59C7000F042F83246E56104F118000C49BDE8704000F039B8F2
:205920007801002000000020B30E00080000204100803B441A34CCC31A34CC43000070419A
:205940007B280008D7280008E3280008002103E00A4B5B584350043109480A4B42189A42D2
:20596000F6D3094A02E0002342F8043B074B9A42F9D3FDF7C3FCFFF75FFD704748A80008DF
:205980000000002058010020580100206C880020FEE70B460146184601F0E6B87FB500241F
:2059A0001023CDE90234036815469E69CDE900446B461268B0479DF8043003F00603062BE9
:2059C00009BF01202046009B2B6004B070BD0098904214BF012006207047000010B5044627
:2059E000024B036000F037FD204610BDDC97000810B50446FFF7F2FF2046082100F042F876
:205A0000204610BD2DE9F041DDF818801F46DDE9083498450646154607D1079900F01EFD31
:205A200018B165710020BDE8F0813946304600F015FD0028F6D00123C4F800802571A371A2
:205A4000F0E738B515461C4600F008FD20B10823E36006232560237138BD2DE9F0410546C8
:205A60000C4616461F4600F0F9FC48B9032F07D82368324629462046BDE8F0415B6918474B
:205A8000BDE8F08100F0AEBE194A70B55368A0F1080423B150F8081C6518AB4203D940F8F6
:205AA000043C546070BD05D1D3E90035194440E90215F6E704325E684EB1B54202D21A1D87
:205AC0003346F8E701BF2E686D6889195D6013681D685E19B44217BF5B68491940F8043C04
:205AE000136816BF40F8081C19605C60DAE700BF2888002000F10803082B38BF082330B53F
:205B00000D4A073352F8040F23F0070368B1D0E900148B420AD9021D2046F7E7C1184C60FC
:205B2000C550106803601160083030BDCD1A072DF4D801601460F7E72888002010B500F1BF
:205B40008004204601F01EF8034630B92046FFF7D1FF034608B900F025FB802200211846BB
:205B600001F056F8803010BD064A80389368984205D9D2681344984201D2FFF785BF01F045
:205B800009B800BF2888002038B54FF41E65074C2846E56000F0F6FFA06010B9E06060604E
:205BA00038BD0023606005604360F9E7288800200378472B17D143784E2B14D18378552BEC
:205BC00011D1C378432B0ED10379432B0BD143792B2B08D183792B2B05D1C07901288CBFD5
:205BE0000020012070470020704738B5044600F04FF8024605682046A4F12001FFF7D8FFCA
:205C000028B90DB100F0CEFA1160284638BD54F80C3C2046002BB4BFC3F10103013344F899
:205C20000C3C53688D4203F1FF3353601CBF44F8105C1160656AFDF715FEE6E710B500F06D
:205C400023F8026801469AB102F120042046FFF7AFFF28B908602046BDE81040FDF704BEB2
:205C60005369002B05DA013301D110690860536110BD013B02D113690B60ECE7591CF6D1F1
:205C800000F090FA704700000048704738880020004870473888002000231A4630B510F8A5
:205CA000015B05F07F04944023432C0602F10702F5D40B6030BD00231A4630B510F8014BCB
:205CC00004F07F0595402B43250602F10702F5D41F2A06D8640642BF4FF0FF3404FA02F223
:205CE00013430B6030BD50282DE9F3410646884615461F4608D1D01C20F0030050F8044BEB
:205D00003C6002B0BDE8F08100F00F030C2B2ED8DFE803F025071D25292D2D2D2D1821257D
:205D20002900284601A9FFF7B7FF019C002CE7D006F07003102B08BFA8463306444448BFD5
:205D40002468DDE7284601A9FFF7B5FFEDE7284630F8024BEAE7284630F9024BE6E728468A
:205D600050F8044BE2E7284650F8084BDEE700F0F3FE08B50346FF2B084610D003F0700251
:205D8000302A12D007D8202A0BD002D813F0600F05D000F0E1FE402A0BD0502AF9D100202A
:205DA00008BDBDE8084000F0D4BEBDE8084000F0CDBEBDE80840FEF707BB70B50C460146E5
:205DC000204615461E46FFF7D4FF334601462A462046BDE87040FFF786BF73B50C461546DA
:205DE000064628B3FEF7F0FA034620462B6010F8011BFF291ED002462B1D3046FFF7DDFF51
:205E000010F8013BFF2B2B7516D0102301A92B75FFF742FF019B0344EB6010F8013B01A9BE
:205E20006B75FFF739FF019B03442B6102B070BD0346DAE76B60E3E70023EDE71FB503ABEE
:205E4000009300230A461946FDF714FD039805B05DF804FB00232DE9F04F91B0059300F0F3
:205E60000303012B06460C4617460ED0022B03D0002B3BD101073BD539462046FEF78CFA68
:205E800090B3092011B0BDE8F08F020706D40D6A38460D21FFF7D2FF85422BD002200023DD
:205EA00006F008060DF1280A06430C2219463846CDF800A00A94FDF703FD062E1CD1D4E985
:205EC0000A59D4F83080B8F1000F0CBF4FF0010B4FF0030B16F0080600F00781BBF1010F80
:205EE00040F0FF8000F05EF90820CBE700F034FE0120D4E70620D2E73846FEF76BFA814656
:205F00000028B9D0524601463846FFF766FF394605469DF83C00FFF72CFF0F210C90384612
:205F2000FFF78CFF20F0010808F1FF380E9BAB4240F2BF802A469DF83D1006AB0020FFF777
:205F40003CFF9DF83D10024607AB0020FFF735FF08AB02469DF83D100020FFF72EFF09A90E
:205F6000FFF79AFE0A9B069A05461344434501D90E9DDBE7079A13444345D7D9DDF8208038
:205F8000B8F1000F01D00B9B9844099D15B10E98013D0544B8F1000F3FF46EAF002D00F038
:205FA000F28016F00803029334D0472323704E2363705523A3704323E370462323714F23D1
:205FC00063715223A3710023E3714FF0000B07A92846FFF770FE08A90390FFF76CFE0799DD
:205FE000002963D03ADD9DF83C00FF2832D000F00703042B3FF67AAF01A252F823F000BFEE
:2060000059600008ED5E0008276000085960000851600008E379012B0CBF54F8203C04F173
:2060200058030593D1E702250D9A09AB05FB11220C99FFF758FE099931B15CB300222046F4
:2060400005AB00F0EFFB28B34FF0030B079D34E00825E9E70025E7E70425E5E7C1F17F516F
:2060600001F57F110D9B01F57F513F3103EB8105BCB1029AAAB9059B043D099355F8041FEF
:206080000029E1D00022204609AB294400F0CAFB0028F3D0089D002D71D0039B2B441D465A
:2060A00095E753F82130002BF4D1CDE74FF0010BF0E700254FF0010BA846F3077FF50AAF7D
:2060C000BBF1020F3FF4D8AE0D213846059EFFF7B5FEC4E90A59C4E90806C4F830800620F5
:2060E000D0E6002D22DA00F06FF8BBF1010F02D1204600F02FFC002D18DA52464946384696
:20610000FFF76BFE39469DF83C00FFF732FEEB430D9A0C9002EB830353F826200AB1013643
:20612000FAE70422C4E90A60C4E90C23002309AE1A461946384600960994FDF7C1FB002348
:2061400001221946384600960995FDF7B9FB0F213846FFF773FE002300F0010040EA080008
:2061600009900F22194638460096FDF7A9FBBBF1020F02D1204600F0B3FB072082E6BBF17B
:20618000000F3FF479AE4FF0020B96E708B5804700F0E2FC024B1868BFF35B8F704700BF9C
:2061A000F000002008B5FFF7F5FFFFF7EFFF08B58047FFF7F7FF0000024B1868BFF35B8F6B
:2061C000704700BFE400002008B5FFF7F5FFFFF7EEFF012810B503D951F8140CFFF7D6FFBD
:2061E000BFF35B8FA1F1280353E8002F013A43E800200028F8D1BFF35B8F5AB951F81C3C15
:2062000001F158040BB1204698472046BDE81040FFF7AABC10BD000038B5002540E91E1240
:2062200040F8805C0446FFF7C7FF44F8700CFFF7B1FF472304F8583C4E2304F8573C552374
:2062400004F8563C432304F8553C04F8543C2B2304F8533C04F8523C044B44F86C0C04F8CF
:20626000515C44F8503CA4F1800038BDD361000808B504460D461646FFF70AFD436832468D
:206280000133294643602046FFF7C6FF0123044644F8283B2046FDF787FE2046FFF7A5FCAE
:2062A000FFF780FF08B5FFF7F3FCD0E90042013242604CB394F82020472A27D194F82120F6
:2062C0004E2A23D194F82220552A1FD194F82320432A1BD194F82420432A17D194F82520F7
:2062E0002B2A13D194F826202B2A0FD194F82720012A0BD862695242626120342046FDF7AD
:2063000077FE2046FFF771FCFFF74CFF00220260F3E702680346D20705D4427802B1FFDEF1
:2063200001205870704700207047012303607047012838BF012010B50446204600F022FCE4
:2063400030B900F02BFB08B900F006FC8047F4E710BD000010B50446024B0360FFF73EFB2E
:20636000204610BDA898000810B50446FFF7F2FF20460C21FFF786FB204610BD2DE9F04128
:20638000DDF81880064690450F4615461C460BD0B0682A460368CDF818801E6A39462346C2
:2063A000B446BDE8F0416047194600F057F80028EED00620BDE8F0812DE9F14F0D46DDE937
:2063C0000A4BDDE90CA6194681461746984600F045F890B1002D3460377109DB2C44A2457D
:2063E0000CBF06240124B471002001B0BDE8F08F0235F9D10123B371F6E7544506D1594634
:20640000484600F02BF808B17771EDE7D9F808003A460368CDE90CA6CDE90A4BDC6929467B
:206420004346A44601B0BDE8F04F60472DE9F04107460C4615461E46FFF703FB48B9B868F3
:206440002A46036821469F693346BC46BDE8F0416047BDE8F081704700207047814208B5D6
:206460000ED0406803782A2B0CD049680B782A2B08BF0131FEF712FEB0FA80F0400908BD3B
:206480000120FCE70020FAE71FB504460021684600F0ACFF0A49009B0198A3FB013201FB1B
:2064A00000224FF47A7002995B1842EBE172A3FB003100FB02122046C4E9003204B010BD5B
:2064C00040420F0010B5D1E90012044600F08BFA204610BD10B50446034B40F8043BFFF7DE
:2064E000F1FF204610BD00BF989A000808B500F033FB08B500F030FB08B500F02DFB0FB435
:2065000080B582B000AF07F1100454F8045B2846FEF7CEFD00F2072323F00703ADEB030D9F
:2065200000F5007123462A4668467C6000F058F800F012FB08B500F00FFB000006460C4600
:2065400080B59CB000AFA41B69220E49381D00F037FB04F1700323F00703ADEB030D6D4613
:206560006822391D284600F02BFB2246314605F1680000F025FB00232C44284684F8683055
:20658000FFF7B7FFE19800082DE9F04100AF84B06D4605F10C0423464FF00A0CDFF83C809A
:2065A000B2FBFCF60CFB162E18F80EE003F801ED9646BEF1090F3246F2D8E41A8C4209D878
:2065C000C4F10C032246E91800F0FAFA2046BD46BDE8F0814FF0FF34F8E700BF4A99000830
:2065E0002DE9F041074615460446013900EB01082A7892B344452AD2252A07D16A78732A22
:2066000009D07A2A12D0252A00D1013515F8012B04F8012BECE753F8042B013A12F8011FB2
:20662000C9B1444513D004F8011BF7E7AA78752AECD11E46204656F8042BA8EB0401FFF72B
:20664000A3FF002803DD334604440335D0E721463846FFF773FF0235CAE72270E01BBDE879
:20666000F0810000004870475599000800487047BF9D0008742A22DC572A0BDC4D2A28DCD2
:206680003B2A0DDC242A16DC0F2A10DC531E0D2B1FD80CE00121A2F1580399400E4B15E084
:2066A0000123A2F13C018B400C490B4211D00C4B026043607047A2F12D03012BE8E7A2F134
:2066C0007603182B05D801219940064B0B40002BEDD1054B0260ECE79D00BF1F8F08020008
:2066E000EC000020BF07F101E8000020C0E90021704713B5144603680A465B6901466846B7
:2067000098476368019A9A4206D100982368C31A5842584102B010BD0020FBE74B68834255
:2067200004D10868831A584258417047002070477047704710B5044600F054F8204610BDCA
:2067400010B5044600F04EF8204610BD13B50446104600F041FE01AA0146204600F0E1F908
:20676000204602B010BD000010B50446024B036000F01EF9204610BD649A000810B5044626
:20678000FFF7F2FF204600F02DF8204610BD10B504460B6886B01B6968469847DDE90012C3
:2067A000204600F020F96846FBF752F9204606B010BD704710B5064C064922460648FFF7CD
:2067C000E8F82246BDE8104004490548FFF7E1B80000002033670008EC00002031670008E5
:2067E000E800002000F0D6B90378472B17D143784E2B14D18378552B11D1C378432B0ED13F
:206800000379432B0BD143792B2B08D183792B2B05D1C07901288CBF0020012070470020DA
:20682000704700002DE9F3411D4603780E46472B0246C17913D143784E2B10D18378552BBD
:206840000DD1C378432B0AD10379462B07D143794F2B04D18379522B01D1002930D010463C
:20686000FFF7C2FF002380F00104E4B2002001904BBB54BB01290ABF52F8203CA2F120031E
:20688000783B01290CBF52F8202C58321C680192236820469B689847C8B10227019B1B6885
:2068A000019333682146D3F810803046012301AAC04770B1019B2B60384602B0BDE8F0810D
:2068C00001230C46D2E7044CE2E7044CE0E70127E7E70746F0E700BF009800080898000838
:2068E00010B50446FFF7D4F902462046A4F12001FFF77AFF60B154F8043C0133012B44F8BA
:20690000043C03D1936844F8083C9160012010BD9368002BF9D0FFF745FC0378472B17D10E
