:020000040800F2
:2000000000C0002009650008053E0008073E0008093E00080B3E00080D3E000800000000FF
:20002000000000000000000000000000253F00080F3E000800000000B73F0008C73F0008F3
:20004000516500085165000851650008516500085165000851650008A51D0008B91D000884
:20006000CD1D0008E11D0008F51D00085165000851650008516500085165000851650008B8
:2000800051650008516500087519000851650008516500085165000851650008091E000827
:2000A00000000000516500085165000851650008516500085165000851650008516500080E
:2000C000516500085165000851650008516500085165000851650008516500085165000830
:2000E000516500085165000851650008516500085165000851650008516500085165000810
:200100005165000851650008516500085165000851650008516500085165000800000000AD
:200120005165000800000000000000000000000000000000000000005FF808F1FFFFFFFFB5
:2001400010B5054C237833B9044B13B10448AFF300800123237010BD580100200000000084
:20016000E08D000808B5034B1BB103490348AFF3008008BD000000005C010020E08D0008C3
:2001800010B5D0E90042D1E900039A4208BF844206D0844272EB030304DA4FF0FF3010BD61
:2001A0000020FCE70120FAE71AB1012A04D000207047024B0360FAE70160F8E7F88D00083B
:2001C00013B56C460B46024603C884E8030093E8030082E8030094E8030083E803009868FA
:2001E000916890609960D168D868D060D96002B010BD13B56C460B46024603C884E803006F
:2002000093E8030082E8030094E8030083E803009868916890609960D168D868D060D96042
:2002200002B010BD1AB1012A04D000207047024B0360FAE70160F8E7008E00081AB1012A41
:2002400004D000207047024B0360FAE70160F8E7088E00081AB1012A04D000207047024B96
:200260000360FAE70160F8E7108E00081AB1012A04D000207047024B0360FAE70160F8E7E2
:20028000188E00081AB1012A04D000207047024B0360FAE70160F8E7208E00081AB1012A92
:2002A00004D000207047024B0360FAE70160F8E7288E00082AB1012A06D0022A05D10B68B3
:2002C00000E0034B036000E001600020704700BF308E00082AB1012A06D0022A05D10B689F
:2002E00000E0034B036000E001600020704700BF388E00082AB1012A06D0022A05D10B6877
:2003000000E0034B036000E001600020704700BF408E00081AB1012A04D000207047024BB1
:200320000360FAE70160F8E7488E000870472DE9F0410022012703260B6807FA02FE3EEA4E
:2003400003032BD1036891F804C0540006FA04F86FEA080523EA08080CFA04F30CF1FF3CDB
:2003600043EA0803BCF1010F03600ED883682B404D79A5401D43856083889BB223EA0E0581
:200380008B7993409BB22B438380C36806FA04F523EA0505CB79A3402B43C3600132102A68
:2003A000CAD1BDE8F081426801780389128A21B113420CBF012000207047134214BF01200E
:2003C0000020704708B50348FFF7EDFF003818BF012008BD7801002008B50348FFF7E3FFEE
:2003E000003818BF012008BD8401002007B503896946009300238DF80430012340688DF8AC
:200400000730FFF794FF03B05DF804FB0123017803724288436809B15A8370471A837047EC
:200420000023017803724288436809B11A8370475A83704708B50248FFF7F2FF002008BDC1
:200440009001002008B50248FFF7EAFF002008BD9C01002008B50248FFF7E2FF002008BDA0
:200460009C010020014BD868704700BF4000002000487047209E000800487047299E0008CA
:20048000014B5869704700BF40000020EFF310832BB9EFF31180003818BF012070470120A5
:2004A0007047014B187A7047400000204FF47A70704708B5EFF3058313B16FF0050008BD98
:2004C000FFF7E4FF0028F8D1DFF804C000DFF6E7E916000808B5EFF3058313B14FF47A70DC
:2004E00008BDFFF7D3FF0028F8D1DFF808C000DFF6E700BFAD040008034610B588B1084319
:2005000010F007000DD117290AD9102219600839CC189C605A60C85099684A60D860012031
:2005200010BD0020FCE70346F0B588B159B30F3121F0070100F108073C463F686568381B16
:2005400025F00305401B814203D938680028F3D1F0BD5E681D680E445E602B4453F8040C26
:20056000083B864288BF5E60636811431BB9616004F10800ECE723F00303E018E7504160FE
:2005800020600830E4E70846E2E710B5D0E85F3F5A1C914200D80022C0E8542F04B1F5E7A7
:2005A00098B210BD930710B502F0010422D400F1280384B153E8000F00EA01028A4203D0B1
:2005C000BFF32F8F002005E020EA010243E8002404B1EFE710BD53E8000F084203D1BFF3D8
:2005E0002F8F002005E020EA010243E8002404B1F1E7EFE7806A01EA00031CB18B4218BF30
:200600000020E7E7002B08BF0020E3E710B591F9202083681BB193F92040944205DAC1E97F
:200620000230816003B1D96010BD18469B68F1E70346806882689A6002B1D3600023C36073
:200640007047C2682AB18368936003B1DA600023C360704710B504465CB12378F12B06D06C
:20066000FFF7EFFF01462046BDE81040CEE7E468F2E710BD0123014643700148C6E700BF7A
:200680005C00002010B5D0E90431C469621C0CD103B1596142691AB113610023436101E0A3
:2006A000074A13630023C36110BD1BB1DA6959612244DA614269002AEED1014AD362F1E709
:2006C00040000020012310B5094A437090F92010536A1C321BB193F920408C4205DCC0E9F7
:2006E0000232906003B1D86010BD1A469B68F1E7400000200223C2784370520758BF0323DA
:2007000083F31488BFF36F8F014B9861704700BF4000002010B5134B04461A7A596998B9E8
:20072000022A1DD15C6ADCB194F9202091F920309A4215DD2046FFF784FF0846FFF7C2FFF3
:200740002046BDE81040D5E7022A05D190F9202091F920309A42F0DC2046BDE8104089E76A
:2007600010BD00BF4000002010B51446836B1962FFF788FF14B1BDE81040CBE7BDE8104027
:2007800078E7284B70B55A690446002A41D0002842D00378F52B3FD1037E002B3FD0C16851
:2007A00091423CD1013BDBB2037613BB43690BB1016919612169F1B14B6192F92130D56A0A
:2007C000DDB982F82030A36883B12046FFF730FF06462A462946FFF7C7FFF36AC4E9036596
:2007E000636103B11C610123F46223760020FFF791FF00200FE0D362DFE7E978890706D575
:20080000A96821B191F920108B42B8BF0B466D69D6E74FF0FF3070BD6FF00300FBE76FF0D5
:200820000200F8E7400000202DE9F0410446002601270CB9BDE8F081E378D4F814801B07E0
:2008400012D5A36826767BB12046FFF7F1FE002205461146FFF788FFEB6AC4E90356636133
:2008600003B11C61EC6227764446E2E738B51D4C0246237A022B33D1606A98B163695A70F4
:200880004A1C15D10021226B6AB94FF0FF30C3E90421D86151B10B611348FFF7C9FEFFF747
:2008A00029FF012038BD11461269EDE72363F3E70020E26A12B1D569A9420BD2C3E90420EF
:2008C000D96158B10361002AE6D0D0695361411AD161E1E71046491B1269EBE7E362F2E72A
:2008E0000020DFE7400000205C000020224B70B55D6904460E46002D35D0002836D0037865
:20090000F52B33D1037E53B9C0E90353EB6A436103B118610123EC620020237670BDC2786F
:20092000D10706D5C168A94203D1FF2B21D00133F2E7F6B193070AD5E06895F9203090F925
:2009400020209A4203DA80F82030FFF783FE31465320FFF78BFF18B129462046FFF756FE0D
:200960006FF00100DAE74FF0FF30D7E76FF00300D4E76FF00200D1E740000020014608B590
:2009800038B11320FFF772FF80F00100C0B2404208BD6FF00300FBE708B58847DFF804C03F
:2009A00000DFFEE70D3D000810B543780446332B0BD1416A90F82320FFF7F4FD014620B1A8
:2009C0002046BDE810400022CEE610BD10B50446806918B100221146FFF7C6FE6378232BFC
:2009E00002BF0022A3689A6110BD70B5044648B30378F12B26D1002924DB4378042B24D043
:200A000000F1280353E8002F42EA010543E8005606B1F7E74378332B12D1416A90F8232096
:200A2000FFF7C0FD014658B194F8233001229B0756BF656A054620EA05052046FFF794FEDE
:200A4000284670BD6FF00305FAE76FF00205F7E70B4B10B55B6963B100280DDB283353E8D6
:200A6000002F22EA000143E8001404B1F7E7104610BD4FF0FF30FBE76FF00300F8E700BFF5
:200A800040000020F8B5114B04465E690F46154696B1002813DB0A4601463046FFF782FD4D
:200AA00048B97DB129463320746286F82370FFF7DDFE6FF00100F8BD4FF0FF30FBE76FF0C9
:200AC0000300F8E76FF00200F5E700BF40000020002230B50B4D6B6C13B11C698C420AD9A8
:200AE000C0E9022301611BB11C699860611A19612AB1D06030BD1A46091BDB68ECE768642A
:200B0000F8E700BF40000020C36810B52BB104691A69816822441A61996082680AB1D36080
:200B200010BD014A5364FBE74000002038B50D460446B0B10378F22B13D191B14378022B13
:200B400008D14161FFF7E0FF20462946FFF7C0FF002038BD064B1B6D33B10223437061614F
:200B6000F2E76FF00300F4E76FF00200F1E700BF4000002008B558B10278F22A08D1427818
:200B8000022A08D101224270FFF7BEFF002008BD6FF00300FBE76FF00200F8E740B10378F3
:200BA000F22B04D14078831E58425841704700207047024608B5EFF305830BB1002008BD19
:200BC000FFF764FC0028F9D11046DFF808C000DFF5E700BF9D0B00087047F8B504460825D3
:200BE0000B4E06F10C073046FFF71AFC230638460BD5FFF70BFC3046013DFFF707FC64007B
:200C000015F0FF05E4B2EED1F8BDFFF709FCF2E7A80100200F4B10B5DB68DB43C3F30223C9
:200C2000C3F10404E4B2A1400F2444FA03F31A40C9B21143084A09011318C9B283F8001361
:200C40000123410900F01F0003FA00F042F8210010BD00BF00ED00E000E100E00023028907
:200C6000F0B4B2F5807F1C4674D04FD8102A74D042D8511E8DB2072D09D8072907D8DFE82C
:200C800001F00460066306060666002306240F2103F0030503F47F7303F1804303F580335B
:200CA0009E68AD0001FA05F726EA0706807A9E609E68A84030439860314B186820EA020014
:200CC0001860586820EA020058602E48D0F800541543C0F800549D6825EA02059D60DD68C5
:200CE00025EA0205DD60D0F80C341A43C0F80C24E0B20022F0BC8DE7402A31D0802A31D06A
:200D0000202A08BF052308BF1724C0E7B2F5805F2AD00AD8B2F5806F29D0B2F5006F28D0F2
:200D2000B2F5007F08BF0923EDE7B2F5804F22D0B2F5004F21D0B2F5005F04BF0D23282432
:200D4000A5E701230724A2E7022308249FE7032309249CE70823172499E704230A2496E7CA
:200D60000623F8E70723F6E70C2328248FE70A23FBE70B23F9E70E23F7E70F23F5E700BF7A
:200D8000000401400000014030B5E0B1C3688B4219D80369994216D200F114031A680A604B
:200DA000BFF35F8F53E8002F0C689442F6D143E8001505B1F2E7043050E8003F5A1E40E8FE
:200DC000002101B1F8E730BD30B588B181B17AB173B10024C0E9014202FB01F41D1901603C
:200DE000C360436105611846013902D1A21A995030BD851805602846F6E750E8003F5A1C8F
:200E000040E8002101B1F8E7704710B590B100F1140353E8004F14B9BFF32F8F04E02268FE
:200E200043E8002101B1F4E714B10430FFF7E5FF204610BD0446FBE738B5034650B3D0E9B5
:200E40000054D3E9020318B11C2B21D0002038BD002BFBD1114BD3F8940030B901221C216C
:200E6000D3F88000FFF75FFB01E0FFF7CEFF0028ECD00123F5228370002304F00F04C0E94E
:200E80000233C0E904330270C47045600376DEE70023EFE705460446DCE700BF4000002044
:200EA000F8B50E4617461C46054608B90020F8BD0129FBD8C3B1D4E902021B6888B1202A59
:200EC000F4D11C4600234FF4F97283700023C0E90657C0E90233C0E904330280C6704460E4
:200EE000E5E7002AE2D11C46084BD3F88C0028B1FFF78BFF0028D9D00123E4E701222021C0
:200F0000D3F88000FFF70FFBF4E700BF40000020036B30B4B3B10024CD78DA78AA4209D353
:200F20001A46C1E901245AB1916074B16160283030BC62E75A681C46002AF2D01346ECE7D7
:200F4000C162F2E7C1E90133C1620163EFE730B578B171B10023A1F1080400F10802944298
:200F600008D1626822F003054268521B42603BB9636030BD15681346002DFAD02A46EEE745
:200F800051F8082C1A60F4E72DE9F04F85B0CDE9010120B90024204605B0BDE8F08F002AD7
:200FA00000F08B80D2E9018408F00603062BF1D0D368002C7ED0502BECD1D2E904B5BBF1F6
:200FC000000F04D01BF0070FE4D1002DE2D09769D2F800A0002F77D07A1E372ADAD818F0E6
:200FE000060F08BF48F0020835B16B07D2D1524AA5F148019142CDD8504E002C6DD1D6F80F
:201000008800002862D0FFF700FF04460028C1D04FF00109BBF1000F12D1002D75D1D6F8CE
:20102000840000285CD0FFF7F0FE002873D083464FF4406549F0100949F00209002CA9D09D
:2010400040F2F1122280FD220021019B628465633B4A403D7FB208F00F085D44A563E363FE
:20106000C4E90211C4E90411C4E90611C4E90911C4E90B1B84F8029084F80380C4F804A023
:2010800084F8207084F82170CBF80020A36B3822184606F0C1FB2B4A2B4B82634FF08072DB
:2010A000C263029A0262019A426220463366FFF731FB70E7002B80D06CE79246934614467B
:2010C0001827154690468AE7182788E701225021D6F88000FFF727FA97E74FF0000999E742
:2010E0002A464FF44061706FFFF71DFA4FF44065F0B9B9F1000F1DD0D6F8882072B1214679
:201100001046FFF741FE002496E75A462946706FFFF709FAECE74FF44065EAE72146D6F8FB
:2011200080000392FFF713FF039A1446934683E7834681E74C467FE7B7FFFF7F400000209B
:20114000A52E5AE299090008A909000870B5044600284AD00378F52B47D1037EC3B16369F7
:20116000C0680BB122691A6122690AB3536190F92120C36AF3B990F92030934203D080F8ED
:201180002020FFF767FAA06800BB2076FFF7C2FA0026A078267010F0010008D0144B21463A
:2011A000D3F89450DDB12846FFF7EEFD304670BDC362DCE7D978890706D5996821B191F9FF
:2011C00020108A42B8BF0A465B69D3E72046FFF72FFA6FF002010022FFF7C6FAD3E7D3F88A
:2011E0008000FFF7B4FE2846E1E76FF00300DEE74000002010B5C378044613F0010320D1C8
:20120000038083789A0708D513F0100F016B124B0ED0D3F88400FFF7B7FDA378DB071AD524
:201220000D4B2146D3F8880030B1BDE81040ABE5586FFFF78CFEF0E7D3F88000BDE81040D8
:2012400085E6042343700023034AC360536B836003B1D860546310BD4000002070B50546D5
:20126000E8B10378F22B1AD14378022B01D1FFF74BFC0026AB782E8013F0010008D0094B34
:201280002946D3F88C4024B12046FFF77DFD304670BDD3F88000FFF75AFE2046F8E76FF0BD
:2012A0000300F5E740000020006810B103685B681847704708B5836801460BB103229847D3
:2012C00008BD10B50446FFF7F5FF204610BD10B504460C2105F0B6F9204610BD70B504469B
:2012E000056855B1284650F8086BFFF7E3FF2846182105F0A7F93546F3E7204670BD10B591
:201300000446082105F09EF9204610BD38B50D460446042005F0ECFD2B68036000232B606B
:201320002060204638BD826810B50AB905F0E2FEC368BDE81040184738B50546064B9C6C7B
:2013400044B1A388AB4203D104F10800FFF7EBFF2468F5E738BD00BF7801002038B5054CDC
:2013600004F14C05636D03B9FEE72846FFF7DBFFF8E700BF7801002073B51E462A4B0446F6
:2013800099420846154615D1284AD36943F00103D36140F20133694600950193FEF7C7FFD1
:2013A0002670002E3ED00583002365802372606002B070BD1E4B994204D11C4AD36943F0A9
:2013C0000203E5E71B4B994204D1184AD36943F00403DDE7184B994204D1144AD36943F0AA
:2013E0000803D5E7154B994204D1104AD36943F01003CDE7124B994204D10C4AD36943F0B4
:201400004003C5E70F4B994204D1084AD36943F08003BDE70C4B9942BBD1044AD36943F070
:201420002003B5E74583BFE700000240003802400004024000080240000C02400010024093
:2014400000180240001C024000140240044607B50A4DEFF30583002BFBD1FFF717F8024673
:201460000028F6D1204669464FF0FF33AC4600DF0028EED1DDE900309847EAE7E515000897
:20148000F8B5817804468568002935D04368C66873B39D60A2686AB35360002706F10C053C
:2014A000214628462770FFF76FFCB368002B46D02846FFF7AAFC0446002840D03046FFF70B
:2014C000B7F805463A463946FFF74EF9AD6B726A696A04F10C0006F077F9F92321463046AF
:2014E0002370A770AB6A2035E370BDE8F8400FE5F562CFE73363D0E7AB68EBB15B78832B2A
:201500001AD12846FFF794F806460A46FFF72CF9B66B6A6A04F10C01706A06F055F9B36A07
:2015200020360BB1E2781A7000232370214605F10C00BDE8F84027E421462846D5E7F8BD68
:201540002DE9F0410C4690461F460546002841D00378FA2B3ED100293CD08368B3B15B782D
:20156000832B13D1FFF764F8064601220021FFF7FBF8B66B21466A6A706A06F025F9B06AAA
:2015800010B180F800800020BDE8F08105F10C00FFF73BFC064678B121466A6A0C3006F04B
:2015A00013F90024F923314628463370B47086F80380FFF7ADFCE6E77FB139469320FFF76E
:2015C00055F920B1064B28465969FFF71FF86FF00100D9E76FF00300D6E76FF00200D3E704
:2015E00040000020F8B59C460D461746044600286BD00378FA2B68D1002966D000F128034B
:2016000053E8002F12B9BFF32F8F04E0501E43E8000606B1F4E712B10122E66A7EB9BCF1F6
:20162000000F55D061468320FFF720F920B12D4B20465969FEF7EAFF6FF0010023E0B01C9F
:20164000D0E84F3FC0E8412F01B1F9E7DBB2002B41D0B668E2E79A60B268AAB1536028465A
:20166000626A06F10C0106F0AFF80FB1F3783B70002504F10C07314638463570FFF784FBEB
:20168000A3681BB90020F8BD2363E8E73846FFF7BCFB06460028F5D02046FEF7C9FF07466D
:2016A00029460122FFF760F8BF6B626A796A06F10C0006F089F8F923B5703370BB6A314677
:2016C0002046F370FFF724FCDCE76FF00300DAE76FF00200D7E7D6E90132002BBBD1E26239
:2016E000BAE700BF4000002038B51F4C217A01292FD0B1BB9C2204F1080006F08DF81B4B06
:201700001B4DE3651023A4F8543005234FF4004128462364FEF7F0FE08B1C4F880500021DC
:201720000846FEF7E9FEB0B9D4F88030002108466367FEF7E1FE80B9D4F880300021084669
:20174000A367FEF7D9FE50B9D4F88030E36701232372002038BD0023E8E70023EEE7002309
:20176000F4E74FF0FF30F5E740000020500300209803002010B50446024B036005F0F9FD0C
:20178000204610BD588E000810B50446FFF7F2FF2046042104F056FF204610BD10B504461C
:2017A000024B036005F0E5FD204610BD808E000810B50446FFF7F2FF2046042104F042FFA3
:2017C000204610BD406810B503689B689847DFF828C000DFFEE7012909D104F0E6FF05F0C7
:2017E00041FB044605F00AF8204603F079F904F0DCFF05F0B7FA00BF0D3D0008036810B5EB
:201800003BB1BFF35B8F1B7ABFF35B8F0BB905F0A9FA04689CB12268EFF3058333B9FEF725
:2018200035FE18B91046DFF818C000DF201DFFF73BFD2046BDE810400C2104F003BF10BD4A
:20184000653D000810B5046844B12046FFF7D6FF2046BDE81040042104F0F4BE10BD38B5A7
:20186000294C237A012B03D04FF0FF35284638BD0021264A2648FFF787FBA06200F054F8CC
:2018800005460028F0D1234AE16C2348FFF77CFBA0640028E8D0FF23204A214982F82230DC
:2018A00092F82230D26863F0FF03DB4314BFB3FA83F32023C2F30222C3F12003934298BF8A
:2018C000531CFE2202FA03F3144ADBB2D377FF2382F823304FF0E02306221A6147F6FF4200
:2018E0005A6100229A6181F840204FF0FF3222611A690C4842F001021A61FEF799FEFEF73C
:20190000F9FE02232372B1E740000020A08E00085D130008C48E00084D14000800ED00E0E0
:20192000500300205C00002038B5FA230C4C00252370082304F10C00C4E90935142204212C
:20194000084BC4E90155C4E90B556580FFF73CFA054B064A28461A67054ADC641A6538BD81
:2019600098830020CC83002040000020811400084D3A00082DE9F04F324B334C986DB4F82F
:20198000642085B010446FF0020280B2A4F864001A6094F866300133DBB2012B04D884F8C4
:2019A000663005B0BDE8F08F0023400884F8663003F05AFBD4F89C10054603F069FDB8B36C
:2019C000C4F89C50B4F88E303F2B47D80133A4F88E30002384F88C3000221B4B1B49A3F8FC
:2019E0006420D3F8940003F04BFC194903F094FB03F058FD4FF4B4735A3090FBF3F203FB3C
:201A00001200144B1B7A984203DD03F10A02824208D803F1B402904240F3B781BE338342C5
:201A200040F2B3810C4805B0BDE8F04FFEF7EEBC2846D4F8981003F00DFD0028C2D0C4F85F
:201A40009850BFE70024014078010020DB0F49400000344304000020240200200123D4F8B6
:201A60009890D4F89C8084F88C304146484603F04BFA4FF07C5103F04FFB0146284603F0E0
:201A800041FA49460546404603F03CFAD4F8A0700146284603F0F4FBD4F8A460394603F0CD
:201AA00031FAA94903F038FB314603F02BFAA74903F032FBA64903F02FFB394603F024FAA8
:201AC000A449C4F8A000009003F026FB314603F01BFAD4F894B0C4F8A4009F490190584613
:201AE00003F01AFB9D49029003F016FB0021044603F0B0FC08B104F10044204603F0D2FC3F
:201B000003F0B6FA0146204603F0FCF94FF0884103F002FB044603F0EBFCC0F3080630463A
:201B200003F0A2FA0146204603F0ECF906F1800804468B48C8F3080800EB8803D3F8F050A9
:201B4000D3F8F4A0294600EB86035046D3F8F090D3F8F47003F0D6F909F100480646394664
:201B6000404603F0CFF97F4903F0D6FA31460390304603F0C9F9039A0146104603F0C2F97C
:201B8000214603F0C9FA78490390304603F0C4FA41460646404603F0B7F9394603F0B2F994
:201BA000704903F0B9FA0146304603F0ABF9039A114603F0A9F9214603F0AEFA06466949E9
:201BC000404603F0A9FA314603F09EF9214603F0A3FA294603F098F949468046384603F038
:201BE00091F951460646284603F08EF95D4903F093FA31460390304603F086F9039B014693
:201C0000184603F07FF9214603F086FA56490390304603F081FA29460646284603F074F982
:201C2000514603F071F94F4903F076FA0146304603F068F9039B194603F066F9214603F0FB
:201C40006BFA06464749284603F066FA314603F05BF9214603F060FA494603F055F900211F
:201C60000446029803F0F6FB08B104F100444146019803F051FA21460546009803F04CFAC9
:201C80000146284603F03EF90146002003F03AF9364C0746D4F88890A16E03F03DFA49465D
:201CA00003F032F9D4F880800546414603F0F0FB38B9E66F2846314603F0CCFB10B92E4668
:201CC00000E046462946304603F01CF9E16E0546C4F88400384603F01FFAA16F8246284601
:201CE00003F01AFA0146504603F00EF9494603F00BF905460146C4F88800404603F0AAFB8C
:201D000010B1C4F8888007E0D4F87C802846414603F0A0FB0028F4D10D49304603F0FCF96B
:201D2000594603F0F1F81249054603F0B1FB08B328460F4903F0E6F80546C4F89060C4F8DE
:201D40009450C4F8A87047E6F4FDB43F63149D430AD7A339DB0FC93DE02E6542610B363B24
:201D6000F88D0008DB0F493C0000404078010020DB0FC9402846084903F06CFB0028DCD06E
:201D80002846064903F0C0F8D6E7054805B0BDE8F04FFEF745BB00BFDB0FC9C0DB0FC9401E
:201DA0002402002008B50120FFF7C6FA0122014B5A6108BD0004014008B50220FFF7BCFA8A
:201DC0000222014B5A6108BD0004014008B50420FFF7B2FA0422014B5A6108BD0004014014
:201DE00008B50820FFF7A8FA0822014B5A6108BD0004014008B51020FFF79EFA1022014B32
:201E00005A6108BD0004014010B5174C63699B0604D52020FFF790FA20236361636958069E
:201E200004D54020FFF788FA402363616369190604D58020FFF780FA802363616369DA05E4
:201E400006D54FF48070FFF777FA4FF48073636163699B0506D54FF40070FFF76DFA4FF479
:201E60000073636110BD00BF00040140F8B50D460646E0B1EFF30583FBB1144BDC68FEF7CF
:201E800029FB134902460023A4FB010103F0A0FB00230F4A07460C4603F09AFB0023C6E9B3
:201EA00000010B4A3846214603F092FBB26015B10023C5E900330020F8BDFEF7E7FA0028B8
:201EC000DBD1DFF810C000DF0446D8E74000002040420F00650400080B4600F108020260B7
:201EE00070B553F8084BA3420FD11C4601F1180554F8046BAC4242F8046BF9D10B6000233F
:201F00004A680B7242604B6070BD8A6804608260F4E708B50B68002B02DA0C4805F0CCF8C1
:201F200093420AD9B3EB420F4FEA420005D20028B6BF6FF0004308600B600868013001D51F
:201F400005F0B4F8BDE8084004F0D2BF349E00080068013104F076BB024652F8081B91424D
:201F600002D08168FFF7F4BF7047406801F100410139091A914208B502D2184605F09CF8C3
:201F800008BD012A30B403D10B78037030BC7047002AFBD030BC05F017BC521AFFF7F1BF45
:201FA00073B5044616460D4619B912B10D4805F080F8731B0F2B019307D90022204601A93B
:201FC000FFF7A7FF019B2060A360324629462068FFF7E3FF0021019B22686360D15402B01E
:201FE00070BD00BF4C9E000810B5044600F10802026006C94FF000030A44FFF7D1FF20460C
:2020000010BD38B500F108030446036008460D4603F0D8FD4FF000032A1829462046FFF7A5
:20202000BFFF204638BD052A10B504460CDC931D0EDB05320A2A1AD8DFE802F01715131162
:202040000F0C2022242628006FF000439A4210D00F4900E00F4920460CE00F49FBE70F49DF
:20206000F9E70F49F7E70F49F5E70F49F3E70F49F1E70F49FFF7C5FF204610BD0D49EAE748
:202080000D49E8E70D49E6E70D49E4E70D49E2E728A10008769E0008979E0008DE9E00080A
:2020A000109F0008279F0008379F0008929F0008EC9F00081AA000083EA0000870A0000831
:2020C000A6A00008F5A00008063210B50446052A12D8DFE802F00F110D0B09030749204602
:2020E000FFF78FFF204610BD0549F8E70549F6E70549F4E70549F2E70549F0E736A100087D
:2021000044A100089CA1000815A20008929F000828A100082DE9F3470A9E1F46436801EBD0
:202120000208B21A1A44A3EB08090346019253F8082B0D469A420CBF0F22826801A9044669
:20214000FFF7E7FE82461DB12A462168FFF719FF37B12EB1324639460AEB0500FFF711FF49
:20216000B9F1000F07D0216835444A4641440AEB0500FFF706FF2046FFF7EEFE019BC4F823
:2021800000A0A36002B0BDE8F08773B50446234653F8086B40689E420CBF0F23A368851808
:2021A0009D420AD812B13044FFF7EBFE00222046236865605A5502B070BD0B4600920146B8
:2021C00000222046FFF7A6FFF0E770B5044608460D4603F0F7FC0646024600212046054BA4
:2021E000FFF7C3FE324629462046BDE87040FFF7CCBF00BF30A2000806C9FFF7C6BF08B565
:20220000034608465B681146984203D90246024804F055FF08BD00BF45A20008FFF7C0BE96
:2022200003688B4206D840681844814294BF00200120704701207047012A30B403D10B7838
:20224000037030BC7047002AFBD030BC05F0CABA2DE9F74F144680460C9D89462A461F4645
:202260002146384BFFF781FE424652F8086BD8F8043096420CBF0F22D8F80820A5EB040B4B
:2022800003EB0B0A524550D34E443946A1444046A3EB0909FFF7C4FF80B1B9F1000F06D0EC
:2022A000AC4204D04A4631197019FFF7C5FF0DB32A4639463046FFF764FE1BE02DB1AC42FB
:2022C0003BD32A463046FFF7B7FFB9F1000F11D0AC420FD04A4631197019FFF7ADFFAC4204
:2022E00008D234447B199C420FD32A4639463046FFF7A2FF00224046D8F80030C8F804A030
:2023000003F80A2003B0BDE8F08FBC4203D82A4607EB0B01CEE7E41B224639463046FFF773
:202320008BFF2A1B71193019C5E73B462246494640460095FFF7EEFEDCE7B9F1000FD0D0BE
:20234000C8E700BF7CA200082DE9F04104460F461546084A1E46FFF752FF62680146D21BAD
:20236000AA42334628BF2A462046BDE8F041FFF76FBF00BF95A2000807B5536800931368BE
:202380000022FFF7E1FF03B05DF804FB73B50546104614460E4603F015FC234600900022A8
:2023A00031462846FFF7D0FF02B070BD38B551EA000305462AD0002928DBFEF78BF8044636
:2023C000A0FB0505002304FB0151174A03F0B0F80246EFF3058373B16FF00505102004F085
:2023E0008DF9044603F0F6FB294602460F4B204603F09AFC0BE0FEF749F80028ECD11046CD
:20240000DFF82CC000DF05460028E7D138BD2046084A094904F00CFD0546204604F084F9D1
:20242000284602F05DFB00BF40420F00AEA200087D0900082973000884A60008F0B500270C
:20244000136806468BB00C2017600C46009304F04FFD009B07604360077205461C2239468C
:2024600003A8009705F0D8F901230293E36801932368059363680693A368ABB10793EFF352
:2024800005821AB9FEF702F880B12A60102004F035F9064603F09EFB4FF0FF310246184BF4
:2024A000304603F041FC11E01823E7E729461548DFF854C001AA00DF28600028E6D0684627
:2024C0003560FEF7F1FE30460BB0F0BD30460F4A0F4904F0ADFC044603E00446304604F000
:2024E00023F9281DFEF7E0FE0C21284604F0AAF86846FEF7D9FE204602F0F2FA0446F7E791
:20250000B6A20008C5170008890F00082973000884A600082DE9F0412B4D0F46D5F880118F
:20252000044686B005F1B80639BB102202A805F073F90C2004F0DCFC244B0190C0E900365F
:2025400001AA684602A9FFF779FF01A8FEF7ACFE042004F0CDFC009AD5F8808102600022F4
:20256000C5F8800100920292B8F1000F1ED102A8FFF768F96846FFF741F90023384602A925
:202580000493FDF736FE611D06EB011102A8FDF730FE02A8FEF78EFE06B0BDE8F0810446EE
:2025A00001A8FEF781FE204602F09AFA4046FFF725F90421404604F045F8D8E704466846E5
:2025C000FFF71CF9EFE700BF78010020F4960008002330B585B0CDE90233036002230193EC
:2025E000164B02460093EFF3058119B9FDF74EFF70B11160102004F081F8044603F0EAFAD4
:202600004FF0FF3102460E4B204603F08DFB08E06846DFF830C000DF10600028EAD005B086
:2026200030BD2046084A094904F002FC0546204604F07AF8284602F053FA00BFC2A20008C2
:20264000C8A20008390E00082973000884A600082DE9F047D1E900970446202090461E4681
:2026600004F046FC4FF0000A05460146C0F808A04046FDF7A5FDAB68C5E90697C5F810A002
:202680009BB9102004F03AF8064603F0A3FA6FF0030102462D4B304603F046FB30462C4AFB
:2026A0002C4904F0C5FB044643E059EA070313D0002F11DA102004F021F8064603F08AFA3A
:2026C0006FF003010246244B304603F02DFB30461F4A204904F0ACFBEFF3058222B9FDF734
:2026E000D5FE034670B12A61102004F007F8064603F070FA4FF0FF310246184B304603F0C3
:2027000013FB0DE02A461648DFF858C086F0010100DF28610028E7D020462560BDE8F0873B
:2027200030460B4A0B4904F083FB0446304603F0FBFF2846FEF7BEFD2846202103F082FF1A
:20274000204602F0CDF9F0E7EFE700BFD3A200082973000884A60008EBA200080CA3000850
:20276000452D0008A10E000838B5EFF3058373B16FF00505102003F0C1FF044603F04AFAE0
:20278000294602460E4B204603F0CEFA0BE0FDF77DFE0028ECD16FF00040DFF828C000DF8C
:2027A000051EE7DB38BD2046074A084904F040FB0546204603F0B8FF284602F091F900BF04
:2027C00017A30008510A00082973000884A60008002200232DE9F04F0646002587B0CDE906
:2027E0000223CDE904239A4FDFF86882002D00F0998004A902A8FDF7C3FCDDE9043440B2FD
:20280000002804DCD91944F10002CDE9021202980399C01A61EB040100238D4A02F088FEEA
:202820004FF47A74A0FB042004FB010452EA040313D0002C11DA102003F060FF044603F0A8
:20284000C9F96FF003010246834B204603F06CFA2046824A824904F0EBFAFDF73BFE8146B4
:20286000EFF30583002B40F0F080FDF70FFE8246002840F0EA80A9FB0201002309FB0411B5
:20288000734A02F055FE51460246DFF8D8C16FF0004000DF04460AB9C21C33D0002C11DA64
:2028A000A31C2FD0102003F029FF054603F0B2F9214602466C4B284603F036FA2846674A10
:2028C0006749C8E74FF00009FFF74EFF04A804F0BBFBB9F1000F52D02C464FF000094FF0E4
:2028E000010A049B059A13EB080342F10002CDE9023215F0010F09F1010B4FEA550575D173
:20290000D946F6E74FF00109DEE70546204603F00BFF284602F0E4F80446284603F004FF15
:202920002046F7E7EFF3058373B16FF00504102003F0E4FE054603F06DF9214602464A4B70
:20294000284603F0F1F9B9E7FDF7A0FD0028ECD16FF0004029464FF0FF32DFF808C100DF19
:20296000041EE4DBFFF700FF04A804F06DFB049B059A13EB080342F10002CDE902322C43A4
:20298000A1464FF0000AB9F1000F5CD009F00103D4464FEA59090AF1010A002BF6D0012355
:2029A00003FA0CF32B42EED173680CF1160E53F83A2003EBCA01A2FB0702496803EBCE0B77
:2029C00007FB012204994118059843F83E1042EB00020CF1050003EB0010CBF804208268B6
:2029E000002AD0D0FEF79FFCCDE795E7716809F10200030101EB001082680AB904F07AFB62
:202A000001EB0911CA6A01939047A0B1019B7268603313449968019389B109F1160102EB93
:202A2000C10104A8FDF7ACFB40B2002807DD019B1846FEF778FC0AFA09F924EA0904D946EC
:202A4000002D7FF456AF2546D0E66FF0050429E740420F0080F0FA022AA3000829730008C2
:202A600084A60008850A000846A30008FFF795BA0B46012B10B41146044602D1227010BC44
:202A80007047002BFBD01A4610BC04F0C5BE37B50F2904461546019106D9002201A9FFF7EA
:202AA00038FA019B2060A360019919B12A462068FFF7DEFF0021019B22686360D15403B0B4
:202AC00030BD2DE9F34116461D4604462A461B4B0F463146FFF749FA234653F8080B62684A
:202AE00098420CBF0F23A368A5EB0608904443451BD3F319D21A06D0AE4204D03844811964
:202B00002844FFF799FB35B1206829469DF820203844FFF7ADFF002220462368C4F804809C
:202B200003F8082002B0BDE8F08100233246394620460095FFF7EEFAE5E700BF58A3000829
:202B400007B500920B4600224168FFF7BAFF03B05DF804FBF0B5026806468DB0EFF3058353
:202B60006BB16FF00504102003F0C8FD054603F031F81E49074606A8FFF743FA0EE0FDF70B
:202B800085FC0028EDD110464FF0FF31DFF860C000DF04460028E6D10DB0F0BD6846326858
:202BA00006A903F007F96B463A462146284603F079F86846FFF7D0F906A8FFF7CDF92846C4
:202BC0000C4A0D4904F034F904466846FFF7C4F906A8FFF7C1F9284603F0A6FD204601F0C4
:202BE0007FFF0446F4E70446F5E700BF75A30008ED0800082973000884A60008F0B502684B
:202C000006468DB0EFF305836BB16FF00504102003F074FD054602F0DDFF1D49074606A82F
:202C2000FFF7EFF90CE0FDF731FC0028EDD11046DFF860C000DF04460028E8D10DB0F0BD02
:202C40006846326806A903F0B5F86B463A462146284603F027F86846FFF77EF906A8FFF706
:202C60007BF928460C4A0D4904F0E2F804466846FFF772F906A8FFF76FF9284603F054FDE1
:202C8000204601F02DFF0446F4E70446F5E700BF84A30008830700082973000884A6000810
:202CA000F0B5026906468DB0EFF305836BB16FF00504102003F022FD054602F08BFF1D491E
:202CC000074606A8FFF79DF90CE0FDF7DFFB0028EDD11046DFF860C000DF04460028E8D176
:202CE0000DB0F0BD6846326906A903F063F86B463A462146284602F0D5FF6846FFF72CF98F
:202D000006A8FFF729F928460C4A0D4904F090F804466846FFF720F906A8FFF71DF9284628
:202D200003F002FD204601F0DBFE0446F4E70446F5E700BF93A30008750B000829730008FD
:202D400084A6000810B504460069FDF732FF58B1A3680BB904F0CEF92046E368984718B9B0
:202D60002046BDE810409BE710BD006838B588B9102003F0C3FC044602F02CFF6FF0020168
:202D80000246094B204602F0CFFF2046074A084904F04EF8BDE8384082E70546204603F005
:202DA000C3FC284601F09CFE9FA300082973000884A60008F0B506688DB08EB9102003F081
:202DC0009DFC044602F006FF6FF002010246314B204602F0A9FF20462F4A304904F028F887
:202DE000D6E90615FDF776FB0446A0FB0101002304FB05112A4A02F09BFB32690146EFF3B5
:202E000005836BB16FF00504102003F077FC054602F0E0FE234907466846FFF7F2F80CE0C2
:202E2000FDF734FB0028EDD11046DFF87CC000DF04460028E8D10DB0F0BD6946326906A8B4
:202E400002F0B8FF3A462146284606AB02F02AFF06A8FFF781F86846FFF77EF828460E4AAB
:202E60000E49BBE7044606A8FFF776F86846FFF773F8284603F058FC204601F031FE044669
:202E8000F4E70446F5E70546204603F04DFC2846F3E700BFABA300082973000884A6000811
:202EA00040420F00B8A300082D0B0008F0B505468DB0002850D00268EFF305836BB16FF01A
:202EC0000504102003F01AFC064602F083FE2349074606A8FFF795F811E0FDF7D7FA002829
:202EE000EDD11046DFF878C000DF04460028E8D1042128460DB0BDE8F04003F0A3BB684681
:202F00002A6806A902F056FF6B463A462146304602F0C8FE6846FFF71FF806A8FFF71CF8F0
:202F20003046104A104903F083FF044609E004466846FFF711F806A8FFF70EF8304603F0B6
:202F4000F3FB2846042103F07DFB204601F0C8FD0446F0E70446F1E70DB0F0BDD6A300083B
:202F60004D1100082973000884A6000810B50446006808B1FFF79AFF204610BD08B503461D
:202F800000200A68086018681A6008B1FFF78EFF08BD2DE9F04F424D8846D5F888311746A7
:202FA00085B073B9042003F0A3FF0446FFF710FB05F5C47003A90394FFF7E0FF03A8FFF7C5
:202FC000D5FFD5F888A1C1465046FFF7C3FD354EDFF8D4B0A9EB08039F4259DD19F8014BE3
:202FE0000D2C0FD095F88C31192B0ED80A2C1CD10D2BEFD80E23304685F88C31FDF710FA44
:20300000B12006E0002385F88C313046FDF708FAB020FDF7E2FD0020FDF7DFFD1120FDF778
:20302000DCFD3046FDF7F2F9D4E70133DBB20E2B85F88C3114D10020FDF7CFFD0020FDF79A
:20304000CCFD3046FDF7ECF9B120FDF7C6FD0020FDF7C3FD1120FDF7C0FD3046FDF7D6F9E1
:203060000623203CE4B203FB04B414F8010B0193FDF7B3FD019B013B13F0FF03F5D1A9E7FC
:2030800005460421204603F0DDFA284601F028FD5046FFF7B3FD384605B0BDE8F08F00BFBA
:2030A000780100200C030020C99700082DE9F0434B4D0746D5F8A031884687B003BB04202D
:2030C00003F016FF0446FFF783FA01A905F5D0700194FFF753FF01A8FFF748FFD5F8A031E6
:2030E00073B9042003F004FF0446FFF771FA05F5D07001A90194FFF741FF01A8FFF736FF5C
:20310000D5F8A091374E4846FFF724FD34462646246874B1A2883B899A42F8D1204650F8AF
:20312000083B3360FEF7C6F81821204603F08AFAECE74846FFF762FDD5F8A0613046FFF700
:2031400009FD3B89404602A9ADF804300494FDF750F8182003F0CCFE0023BDF80420036073
:203160000361049B044682809BB9AB6C02A82360AC64FEF79FF83046FFF740FD07B0BDE8C7
:20318000F08305460421204603F05CFA284601F0A7FC00F108070222384602A99847059BCF
:2031A0006361049B2361E0E705463846FEF782F8284603F0FAFA1821204603F043FA03F012
:2031C00051FE044603F01AFB02A8FEF773F83046FFF714FD2046DAE7D3E70446F4E700BF02
:2031E00078010020C0010020F0B504688DB0002C51D0EFF305836BB16FF00506102003F0A7
:203200007DFA054602F0E6FC2449074606A8FEF7F8FE15E02269FDF739F90028ECD11046E4
:20322000DFF87CC000DF06460028E7D12046FEF741F8202120460DB0BDE8F04003F002BAF4
:203240006846226906A902F0B5FD6B463A463146284602F027FD6846FEF77EFE06A8FEF7F4
:203260007BFE28460F4A104903F0E2FD08E06846FEF772FE06A8FEF76FFE284603F054FA29
:203280002046FEF717F82021204603F0DBF903F069FDEFE7F1E70DB0F0BD00BFE4A3000897
:2032A0005D1200082973000884A600080346002010B50A6808601C681A6044B12046FFF76A
:2032C00093FF2046BDE81040042103F0BBB910BD10B5046844B12046FFF786FF2046BDE896
:2032E0001040042103F0AEB910BD10B504460430FFF7EEFF204610BD10B50446C830FEF7DD
:20330000A1FA04F1A000FDF7D5FF04F19000FDF7D1FF04F18000FDF7CDFF04F17000FDF7DE
:20332000C9FF04F16000FDF7C5FF04F15000FDF7C1FF04F14000FDF7BDFF04F13000FDF7C1
:20334000B9FF04F12000FDF7B5FF2046FFF7C0FF204610BD10B504460830FFF7B9FF20464F
:2033600010BD10B5264C88B0D4F890314BBB22A1D1E90001234ACDE902010792224A02A92A
:20338000069201A804AAFFF763F904A8FDF792FF01A904A8FDF7BAFF04A904F5C870FFF7E4
:2033A00085FF04A8FFF794FFD4F89001FFF702FD01A8FFF719FF154808B0BDE81040FDF74D
:2033C00025B81B683BB11869FDF7F3FB18B1D4F89001FFF7CAFCD4F89001FFF7EBFCEAE751
:2033E000044604A8FDF766FF204601F079FB044601A8FFF7F9FEF7E7404B4C00000000001E
:203400007801002035040008A901000890010020F0B54FF47A74384DA0FB0470D5F8AC315B
:2034200004FB010489B005F5D67663B9334B04AA0793334B02A9069301A80023CDE902746D
:20344000FFF706F918E01B68002BEFD01869FDF7B0FB0028EAD0D5F8AC01FFF786FC294BAA
:2034600004AA0793284B02A9069301A80023CDE90274FFF7EDF807E004A8FDF71BFF01A92F
:2034800004A8FDF743FF07E004A8FDF713FF01A904A8FDF73BFF0EE004A93046FFF706FF21
:2034A00004A8FFF715FF1948FCF7B0FFD5F8AC01FFF780FC0DE004A93046FFF7F7FE04A8C0
:2034C000FFF706FF1148FCF7A1FFD5F8AC01FFF771FC01A8FFF788FE09B0F0BD044604A8A7
:2034E000FDF7E8FE03E0044601A8FFF77DFE204601F0F6FAF2E7F6E77801002055040008B4
:2035000025020008450400083D0200089C01002010B50446FFF725FF054805F05BF8322017
:203520000021FFF775FF0A2223681A6010BD00BFF2A3000810B50446FFF713FF054805F04D
:2035400049F8C8200021FFF763FF0A2223681A6010BD00BF04A4000838B505460D48FCF7DC
:2035600022FF0D4C237A88B1642B01D9013B2372FFF7F7FE217A094805F02CF8142000217C
:20358000FFF746FF0A222B681A6038BDB32BEFD80133ECE728030020040000201AA40008E1
:2035A00008B503200021FFF733FF012008BD00232DE9F043A0488BB0009305F00BF8322090
:2035C0000021FFF725FF4FF08B42002300259B4C06A9C4F898209A4AC4F89430A266994A03
:2035E000C4F8A830E266984AC4F8A030C4F8A430C4F89C302367A267C4F88830934AC4F8C9
:203600008430934BE2670593924A934B02A8C4F88020049384F88C50A4F88E500895FCF77E
:20362000CFFD04F1D80106A8FCF7CAFD06A8FDF741FE02A8FDF73EFE884B06A90593884BE0
:2036400002A804930895FCF7BBFD04F1E80106A8FCF7B6FD06A8FDF72DFE02A8FDF72AFE1C
:20366000804B20460993804B06A90893FFF71EFD06A8FDF71FFE7D4B06A909937C4B04F1C9
:203680000C000893FFF712FD06A8FDF713FEFFF768FE00217748FEF789FE774B2846099347
:2036A000764B06A9CDF818D00893FEF733FF06A8FDF700FE724B4FF4FA620593714B06A92C
:2036C0000493002302A8C4E93023CDF808D00895FCF78FFD04F59C7106A8FCF78AFD06A8F1
:2036E000FDF7E8FD02A8FDF7E5FD674B01200993664B06A9CDF818D00893FEF70BFF06A8AD
:20370000FDF7D8FD624B634A0993634B02A90893002301A8CDE902232B4606AAFEF798FFA2
:2037200006A8FDF7C7FD01A8FFF744FB002500264FF07C59444FDFF8648100215848FEF7E1
:2037400035FE009B002B49D13946284601F098FD0146284601F0D6FB41460546D4F890003E
:2037600001F08EFD014601F0D7FC294601F0CCFB002E054614BF3046012001F079FC064606
:203780003946284601F07CFD314601F079FD314601F0BAFB494601F0BFFC01F083FE94F89E
:2037A0008C2006463AB13F49D4F8A80001F052FE021E18BF012231463B4804F00BFF3B4953
:2037C000D4F8940001F05CFD394901F0A5FC01F069FE0146374804F0FDFEAEE7013B0093BA
:2037E000ABE7044606A80D46FDF764FD2946012920460DD001F074F9F3E7F2E7F1E7F0E7FB
:20380000044601A80D46FFF7EFFCEFE70446EEE702F0CBFF03689B6898470146264804F0DA
:20382000D9FE02F0EBFF0BB0BDE8F083044602F0E5FF2046DEE700BF27A40008780100208C
:2038400000803B4400007041000020411A34CCC3C50300081A34CC4355020008D90300080A
:203860006D020008253A000885020008393A00089D02000820A1070011350008B5020008E4
:2038800035350008D502000859350008F5020008A1350008C0C62D0015030008DB0FC9409E
:2038A000A08601000AD7233C34A40008DB0F4940000034434BA4000861A4000808B5EFF334
:2038C000058313B1054B586908BDFCF7DFFD0028F8D1DFF80CC000DFF6E700BF4000002088
:2038E0008104000870B5154C0546B4F8541004F15602D2E85F3F994202D8BFF32F8F04E0AC
:20390000581CC2E8560F06B1F3E79BB2994203D82946022002F016FB04F15800FCF735FE89
:20392000E36D43F82050637A23B94FF08052044B5A6070BD0123A372FBE700BF4000002052
:2039400000ED00E0F0B5026806468DB002B11268EFF3058373B1BAB96FF00304102002F04C
:20396000CDFE054602F036F92A4907466846FEF748FB25E0FCF78AFD0028ECD11046DFF8D9
:2039800098C000DF044614E01378F12BE4D10029E2DB5378042B10D002F1280353E8000F2E
:2039A00040EA010443E8004505B1F7E71046FFF799FF002CD2DB0DB0F0BD6FF00204CDE794
:2039C000326802B11268694606A802F0F3F93A462146284606AB02F065F906A8FEF7BCFA36
:2039E0006846FEF7B9FA28460C4A0D4903F020FA044606A8FEF7B0FA6846FEF7ADFA2846FB
:203A000002F092FE204601F06BF80446F4E70446F5E700BF69A40008EB09000829730008AB
:203A200084A60008034BD3F8800108B1012189E7704700BF78010020034BD3F8800108B10D
:203A400002217FE7704700BF780100202DE9F74F2C4E746C002C4FD04FF000094FF0F90B42
:203A60007369DFF8A4A001932369013B23612369002B3FD1E3680BB1A2689A60F76C736463
:203A800004F11808EFF3058333B18FB9B36921460320736102F056FAFCF7F8FC0246002868
:203AA000F3D1384641461346D44600DFC0B1EDE73B78FA2BEAD107F10C00FDF7A6F9054631
:203AC0000028E3D041467A6A0C3003F07DFE2846C5E9018785F800B0A5F80290FFF702FFFF
:203AE000E378DB070BD520466169FCF7F1FF746C002CBCD1019B736103B0BDE8F08F012392
:203B00006370F4E74000002041150008FCF7D1BC38B54FF0E023514D1B69EB68EC6A01338B
:203B2000EB6004B3E369013BE361E3B96378732B7ED007D8532B6DD0632B72D0432B05D1A6
:203B400023463FE0832B7AD0932B7FD02046FCF778FDFCF78FFD246924B1E369002BE5D0FD
:203B600000236361EC620020FCF7D4FD2B6D03B198472A6C002A6FD0AB69E96B994203D0EC
:203B8000D969EB6301B9DA61DA69002A60D12B7A022B61D16C6A002C5ED0EB6B94F92020AB
:203BA00093F920309A4257D12046FCF74AFDE86BFCF760FD2046FCF79DFD2B6CEC63E361C5
:203BC0004AE0DB681A78F12AFBD0BFE7DB681A78F12AFBD0DA789007B8D5D86890F921201F
:203BE000C36AD978890709D599688C4208BFA16821B191F920108A42B8BF0A465B69002B2C
:203C0000EFD190F920309342A0D080F82020FCF721FD9BE72346DAE7DB681A78F12AFBD096
:203C200094E72346F9E7DB681A78F12AFBD08DE72346F9E7DB681A78F12AFBD086E72346B7
:203C4000F9E7DB681A78F12AFBD07FE72346F9E7013ADA61002A9AD038BD00BF40000020FC
:203C600070B5224C04F1560504F15A06B4F85410D5E85F3F13B9BFF32F8F04E05A1EC5E85C
:203C8000502F00B1F4E79BB25BB33046FCF77DFCE36D53F8200020B30378F13B082BE5D8B7
:203CA00001A252F823F000BFCD3C00086D3C0008D33C00086D3C00086D3C0008D73C0008EF
:203CC000DB3C00086D3C0008DF3C0008236E9847CCE7636EFBE7A36EF9E7E36EF7E7236F69
:203CE000F5E70020BDE87040FCF714BD40000020036B826B934205D21868034BC31A584203
:203D00005841704700207047A52E5AE238B5144C237A022B22D1636A03B36569E86AFCF7CD
:203D200083FD2846FCF752FE04F11C00FCF780FCFCF7E0FCEFF309832846AB63FFF7D8FF4C
:203D400028B9A36929460120636102F0FBF8002328466361BDE83840FDF74CBA38BD00BF1D
:203D60004000002010B50446002845D00378F12B42D1437803F00F03022B06D0032B2BD001
:203D8000012B26D06FF0020031E01D4B1A7A022AF8D15B6A002BF5D0E06AFCF745FD204604
:203DA000FCF714FE6378022B22D1154901F11C00FCF73EFCFCF79EFCEFF309832046A36303
:203DC000FFF796FF68B98B6901204B61214602F0B9F8FCF736FCDFE7FCF733FCFCF752FC1E
:203DE000DAE700234B612046FDF704FA002010BD0020FCF78FFCF6E76FF00300F7E700BF74
:203E0000400000207047FEE7FEE7FEE7FEE770473F4B82B01A6842F480721A6099683D4AD8
:203E20000A409A601A6822F0885222F001121A601A6822F480221A609A6822F47D029A60EC
:203E40000022DA60009201921A6842F001021A601A6802F002020192009A01320092019AAB
:203E60001AB9009AB2F5A04FF2D11B6813F0020318BF01230193019B012B43D14FF40061E2
:203E8000254B1A68A3F5806342F00402C3F80024D3F8002442F00202C3F80024D3F80024AB
:203EA00042F00102C3F800245A6A42F080525A621A4A11605168C906FCD49A689A609A683F
:203EC00042F460529A609A689A609A6822F47D029A609A6842F408029A601A6842F0807291
:203EE0001A600B4B1A689201FCD59A6822F003029A609A6842F003029A609A6802F00C02C4
:203F00000C2AFAD14FF00062054B9A6002B07047003802400CC0FF88003C02400070004051
:203F200000ED00E01EF0040F0CBFEFF30880EFF30980816911F8021C00292ED101B590E88C
:203F40000F10E047BDE80050CCF80000224B93E80600914208BF70471A60A9B1ACF1200C86
:203F6000C1F838C006B40846FFF7C2FE06BC38B9012001F0E7FF184B5A681A60002103E084
:203F8000D1F838C08CE8F00F1400A06B6FF0020EB0E8F00F80F309887047104A136899425D
:203FA000FAD801B552F821C00FC8E047BDE80050CCF80000704701B5FFF752FEBDE80140FE
:203FC000EFF3098CC2E701B5FFF7A2FDBDE80140EFF3098CBAE7000054000020889A0008DA
:203FE00003685A004CBF43F0004323F000431844704700BF2DE9F84339B34F1E0446154604
:204000003E464FF0000808EB060101EBD171491004EBC1094846FFF7E3FF0346C8000830EC
:204020008F4220440BD0AB420BD8FFF7D9FF0138A84201F10108E6D34846BDE8F883AB4260
:20404000FAD9884501D04E1EDDE74FF000094846BDE8F883012807D0022807D0044B002851
:204060000CBF184600207047024870470248704745470008494700084D47000830B5244B22
:20408000044683B08D1E3BB3284601A9AFF30080E8B101992A46FFF7ADFF0146B8B1FFF7E5
:2040A0009FFF4B68A064012B2ED0002B27DB081DFFF796FF0023C4E913030368002B12DB3B
:2040C000FFF78EFF03460020236103B030BD00230920236103B030BD0E4B0F491846C91A6E
:2040E000C9100191D6E7C3F30360FFF7B3FF0028034614BF00200920236103B030BD012302
:20410000081DC4E91303D8E7002305202361DCE700000000D4B300080CB70008036810B5DF
:20412000DA07044606D49B0700F1480009D500F05DFC2368590709D51A070ED5DB0613D5E2
:2041400010BD00F04BFC23685907F5D404F1D00000F054FC23681A07F0D404F5A87000F031
:2041600055FC2368DB06EBD404F5E870BDE8104000F090BC092070470346006800B11844A3
:20418000704700BF704700BF70B504460E462046316CFFF773FF054698B9D6F840C0324623
:2041A000214601202369C4F814C098470828EED0072806D12846316CFFF7E4FF301D00F067
:2041C00001FC03F0A9FA00BF2DE9F0474FF0000AADF5727D0DF10C0E01F1040CC768D0F855
:2041E000188006461446BCE80F00AEE80F00BCE80F00AEE80F00BCE80F00AEE80F009CE8F5
:204200000F0002AD8EE80F00C5F800A021E02B6C4FF4F072294673617AA803F0D5FA314623
:20422000504633697AAA9847889C82466C643346324649460120CDE90058B8470446F0B9EC
:204240004FF4F07228467AA903F0BEFABAF1080F1BD13046296CFFF711FF04F109095FFA5E
:2042600089FA04460028D2D0A96B3346696432460120CDE900584AF01001B84700B109247E
:2042800020460DF5727DBDE8F087BAF1070FF6D12046296CFFF776FF03A800F093FB00BFD5
:2042A000406C7047F0B54FF0FF37CB6BF9B00B6401AC01F1040C0E460546BCE80F000FC45F
:2042C000BCE80F000FC4BCE80F000FC49CE80F0084E80F00009706E06A4629462B699847B5
:2042E0000828044608D128461099FFF7C7FE0028F2D0092079B0F0BD6846FFF70FFF062CCC
:20430000F7D131462846FFF73FFF00BF10B414468461DC6BC16000221C64194610BC53E78B
:2043200070B54369C6680B64AEB90A46036904460D46014602209847072805D008280FD1F3
:2043400029462046FFF720FF3046296CFFF71AFF281D00F037FB0122FFF736FF03F0DCF9DC
:2043600003F0DAF9C2682AB1D1F83CC00022C1F840C029E796E700BF704700BF83680146DE
:204380000BB1012018477047012912D009D873B90F2A0CD800EB820042681846009B1A606A
:2043A00070470339012994BF012002207047022070470846704700BF002300B585B00A4699
:2043C00003A900911946FFF7DFFF039805B05DF804FB00BF012912D009D873B90F2A0CD8D4
:2043E000009900EB820209681846516070470339012994BF012002207047022070470846A4
:20440000704700BF002310B584B003AC039200940A461946FFF7DEFF04B010BD70B54FF0CB
:20442000FF36D36BADF50E7D13640DF15C0E02F1040C05460C46BCE80F00AEE80F00BCE861
:204440000F00AEE80F00BCE80F00AEE80F009CE80F008EE80F00169612E00C2116A86A46FF
:20446000FFF7D0FF214616A8A84778B969460820049B16AA98470528064608D0092805D0C6
:2044800068462699FFF7FAFD0028E6D0092616A8FFF744FE30460DF50E7D70BD2DE9F04F3A
:2044A0001E46CC6C89B054F8043B0D46174600F003080694002E79D002228DF81C201A0CD5
:2044C0008DF81D201B04D2B2059304EB82042B6DB8F1020F08BFAC6B13F001030CD03846D9
:2044E00005A900F071FB18B9082009B0BDE8F08F092009B0BDE8F08FD4F800A0BAF1000FB0
:20450000EDD0019300F008030293022E4AD0B4F800A0B4F802900434AA6C0F21384629F0D1
:20452000010B9344FFF748FF834539D82AF001025A44824294BF002001204FEA490303F0F7
:2045400002030AF0010A43EA0A03012B49D0022B32D0002BCCD1B8F1000F02D0002840F0F9
:20456000CE800434D4F800A0BAF1000FCDD1384605A900F029FB0028BAD1019B002BB3D0B4
:204580000F213846FFF718FF0E2102463846FFF739FF38460F216A4AFFF734FF0720A8E7FC
:2045A0000020CAE7D4F804900834B5E71B0205930323ADF81C308AE7236823F0004BB8F123
:2045C000000F45D128B1029A002A5CD0BBF1000F74D0002B00DA04340BF1010B04EB8B0429
:2045E000C0E7B8F1000F19D1B0B163682268991C4FEAD2723FF47CAF05F158010133049114
:2046000000F09180201DFFF7B7FD04AB0146284602F0E8FE00285CD10834A3E70D213846AF
:20462000D5F82090FFF7C8FE8145F5D1AB6A9C42F2D12046FFF7D4FC0F2102463846FFF7E7
:20464000E1FE38462A460021FFF7DCFE072050E70D213846D5F82090FFF7AEFE814501D0DC
:204660002368B6E7AB6A9C42FAD104230022C5E90B23E318C5F828B06B632368002B5ADBE6
:2046800001230193A8E705F15803CDF80C809146B04604F1040A1E460EE050460496FFF7E9
:2046A0006BFD0022014604AB284609F101090AF1040A02F097FEE8B9D945EED10D2138464E
:2046C000FFF77AFE0346049A0620C5E909242B620FE781460D213846FFF76EFEB9F1020F71
:2046E000286225D12B46049A43F82C2F6B620620AC62FEE646462368DDF80C8069E7204682
:20470000FFF76EFC02460434AC632846144602F0C7FE00283FF4ECAE384622460F21FFF72A
:2047200071FE0720E5E60D213846FFF745FE2862049B6B62DBE70BF1010004EB800079E7AF
:20474000337500080023A9E60123A7E60223A5E62DE9F043064615461C46C3B0042900F2B2
:20476000B880DFE801F09C56B62D0300002C40F0B080102A00F2AD800368D80600F1F180E1
:2047800020AF384600F090F9012438460023B16B04FA03F22A4203F1010305D00A4652F8AB
:2047A00004CB1146C0F800C0042B00F10400EFD13846B16300F06EF9002043B0BDE8F08363
:2047C000032C40F0868094B204EB1243102B4FEA12457ED803681F0700F1CB8020AF3846AF
:2047E00000F036F9B26B07EBC50154B10B4601EBC401D01AE4001D5843F8045B8B42FAD149
:2048000022443846B26300F001F9002043B0BDE8F083012C4FEA124895B256D0052C58D103
:2048200008EB0509B9F1200F53D8B8F10F0F73D9A946002D40F08480B36B65B320AF4FF0CC
:20484000000907EBC807043F03EBC50553F8041BAB4247F8041FF9D1B9F1000F0FD06F46C3
:204860004146102938BF102107EBC101843903EBC90553F8040BAB4241F8040FF9D1012C99
:204880007FD0B8F10F0FB56342D9B9F1000F02D0684600F0B3F8002043B0BDE8F083C4B953
:2048A00023460124826B371DA8B204FA03F101421CBF52F8041B47F823100133102BF4D1B0
:2048C00015F40050E7D1B26304E008EB0503102B03D9022043B0BDE8F083B8F10F0FF8D8F8
:2048E0003368DA0706D5304623F0030340F8483B00F078F820AF384600F074F8B36B002DC3
:204900009DD11D4604353846B56300F067F8C2E720A800F06BF8B8E7B9F1100F3FD9A9F1CA
:2049200010093368D90708D5304623F0010343F0020340F8483B00F05DF8B9F1000F31D087
:2049400033685A071FD4B8F10F0F24D96F46C8F11005384600F056F8002DB36B80DD20AFEE
:204960006FE723F01003336006F5E87000F09CF806E723F00803036000F5A87000F068F886
:204980002CE720AFBEE7304623F0040340F8D03B00F038F8D7E720A800F02CF8D6E74FF007
:2049A0000009BEE7B8F10F0F3FF646AF20AF384600F020F8B36B002D7FF441AF384600F0E7
:2049C00015F868E700F1340191E838009C46A6464CF8045D90E8FF0FE54600BD90EC210B1B
:2049E000704700BF80EC210B704700BF90EC200B704700BF80EC200B704700BFD0EC200B22
:204A0000704700BFC0EC200B704700BFF0EC0201F0EC0211F0EC0221F0EC0231F0EC0241D8
:204A2000F0EC0251F0EC0261F0EC0271F0EC0281F0EC0291F0EC02A1F0EC02B1F0EC02C13E
:204A4000F0EC02D1F0EC02E1F0EC02F1704700BFE0EC0201E0EC0211E0EC0221E0EC023107
:204A6000E0EC0241E0EC0251E0EC0261E0EC0271E0EC0281E0EC0291E0EC02A1E0EC02B1FE
:204A8000E0EC02C1E0EC02D1E0EC02E1E0EC02F1704700BFB0FC0181B0FC0191B0FC01A14A
:204AA000B0FC01B1704700BFA0FC0181A0FC0191A0FC01A1A0FC01B1704700BFEC4600B5ED
:204AC0002DE900502DE9FF1F4FF000032DE90C0001A9FFF7E7FBDDF840E012B0704700BF29
:204AE000EC4600B52DE900502DE9FF1F4FF000032DE90C0001A9FFF713FCDDF840E012B06B
:204B0000704700BFEC4600B52DE900502DE9FF1F4FF000032DE90C0001A9FFF723FCDDF8A6
:204B200040E012B0704700BFEC4600B52DE900502DE9FF1F4FF000032DE90C0001ABFFF796
:204B4000E5FBDDF840E012B0704700BFEC4600B52DE900502DE9FF1F4FF000032DE90C0063
:204B600001AAFFF75BFCDDF840E012B0704700BF027A03467AB9427AA2B14FF0030C416812
:204B8000013A427208680A1D5A60020283F808C0000E1A6070470068013A1A7202021A60A2
:204BA000000E7047B0207047002300B585B003A900910C221946FFF7E7FB039805B05DF855
:204BC00004FB00BFF0E700BF2DE9F0434FF0000805460E4685B03046FFF7CAFFB0280446C6
:204BE00000F0BA80070620D500F0F003802B4DD0902B36D0A02B60D0B02B73D0C02B00F029
:204C00008A8000F0F803D02B0BD100F00702013205230121284642F40022FFF799FD0028D8
:204C2000D9D0092005B0BDE8F0838300DBB21F1D00230DF10C0919460D222846CDF8009002
:204C4000FFF7A2FB039B60064CBFDF1BFF1800230D2228461946CDF800900397FFF7BAFBE8
:204C6000B9E700F00D030D2BDBD0002303AF194600F00F0200972846FFF786FB00230D22AE
:204C8000284619460097FFF7A5FBA4E73046FFF76FFF24022043B0F5004FC2D0002304017E
:204CA00019462846A2B2FFF753FD0028B9D114F4004F18BF4FF001088DE7C3434FF47F62C7
:204CC00003F007031A410023010702F47F6248BF42F4804228461946FFF73AFD00283FF426
:204CE0007AAF9EE7B1283CD0B22800F0B080B3284AD000F0FC03B42B93D0012300F00702E4
:204D00001A442846194642F40022FFF721FD00283FF461AF85E7C6284FD0C72861D000F008
:204D2000F803C02B70D0C8287CD0C9287FF479AF3046FFF71DFF05230246012128461403E6
:204D400002F00F0204F470240A442243FFF700FD00283FF440AF64E7B8F1000F1CD00020C5
:204D600060E73046FFF704FF024600283FF459AF10F0F0037FF455AF19462846FFF7E8FCC1
:204D800000283FF428AF4CE73046FFF7F1FE0123024619462846D2E703AC43460E22414672
:204DA00028460094FFF7F0FA43460F22284641460094FFF70FFB404634E73046FFF7D8FEEB
:204DC00002460323140302F00F0204F470240132284619462243FFF7BBFC00283FF4FBAEA9
:204DE0001FE73046FFF7C4FE024600283FF419AF10F0F0037FF415AF04212846FFF7A8FCBD
:204E000000283FF4E8AE0CE7032300F00F0201322846194642F42022FFF79AFC00283FF428
:204E2000DAAEFEE63046FFF7A3FE0246012102F0F00402F00F0210340A440523284642EA52
:204E40000432FFF785FC00283FF4C5AEE9E600230DF10C090D2219462846CDF80090FFF78B
:204E600093FA3046FFF784FE02064FF002040CD5039B00F07F00A040184403903046FFF741
:204E800077FE030604F10704F2D4039B00F07F02A24003F501731A440023039228460D22BE
:204EA0001946CDF80090FFF795FA94E60B464FF0030C00B5C26C1846536885B008320292A1
:204EC00001A91A0E1B028DF80CC001938DF80D20FFF77AFE05B05DF804FB00BF08B5FFF763
:204EE00071FE806C08BD00BF08B5FFF76BFEC06CC379023300EB830008BD00BF80F0004078
:204F000002E000BF81F0004142001FBF5FEA410392EA030F7FEA226C7FEA236C6AD04FEAA1
:204F20001262D2EB1363C1BFD218414048404140B8BF5B42192B88BF704710F0004F40F4FD
:204F4000000020F07F4018BF404211F0004F41F4000121F07F4118BF494292EA030F3FD0D3
:204F6000A2F1010241FA03FC10EB0C00C3F1200301FA03F100F0004302D5494260EB400074
:204F8000B0F5000F13D3B0F1807F06D340084FEA310102F10102FE2A51D2B1F1004F40EBEE
:204FA000C25008BF20F0010040EA03007047490040EB0000013A28BFB0F5000FEDD2B0FA70
:204FC00080FCACF1080CB2EB0C0200FA0CF0AABF00EBC25052421843BCBFD0401843704711
:204FE00092F0000F81F4000106BF80F400000132013BB5E74FEA41037FEA226C18BF7FEAB2
:20500000236C21D092EA030F04D092F0000F08BF0846704790EA010F1CBF0020704712F013
:205020007F4F04D1400028BF40F00040704712F100723CBF00F50000704700F0004343F0FD
:20504000FE4040F4000070477FEA226216BF08467FEA23630146420206BF5FEA412390EAB1
:20506000010F40F4800070474FF0000304E000BF10F0004348BF40425FEA000C08BF704731
:2050800043F0964301464FF000001CE050EA010208BF70474FF000030AE000BF50EA01029F
:2050A00008BF704711F0004302D5404261EB41015FEA010C02BF84460146002043F0B643D3
:2050C00008BFA3F18053A3F50003BCFA8CF2083AA3EBC25310DB01FA02FC634400FA02FC6B
:2050E000C2F12002BCF1004F20FA02F243EB020008BF20F00100704702F1200201FA02FC04
:20510000C2F1200250EA4C0021FA02F243EB020008BF20EADC7070474FF0FF0C1CEAD052AF
:205120001EBF1CEAD15392EA0C0F93EA0C0F6FD01A4480EA010C400218BF5FEA41211ED073
:205140004FF0006343EA501043EA5111A0FB01310CF00040B1F5000F3EBF490041EAD3711E
:205160005B0040EA010062F17F02FD2A1DD8B3F1004F40EBC25008BF20F00100704790F07A
:20518000000F0CF0004C08BF49024CEA502040EA51207F3AC2BFD2F1FF0340EAC250704773
:2051A00040F400004FF00003013A5DDC12F1190FDCBF00F000407047C2F10002410021FA47
:2051C00002F1C2F1200200FA02FC5FEA310040F1000053EA4C0308BF20EADC70704792F082
:2051E000000F00F0004C02BF400010F4000F013AF9D040EA0C0093F0000F01F0004C02BF86
:20520000490011F4000F013BF9D041EA0C018FE70CEAD15392EA0C0F18BF93EA0C0F0AD084
:2052200030F0004C18BF31F0004CD8D180EA010000F00040704790F0000F17BF90F0004F8F
:20524000084691F0000F91F0004F14D092EA0C0F01D142020FD193EA0C0F03D14B0218BF9F
:20526000084608D180EA010000F0004040F0FE4040F40000704740F0FE4040F4400070477A
:205280004FF0FF0C1CEAD0521EBF1CEAD15392EA0C0F93EA0C0F69D0A2EB030280EA010C24
:2052A00049024FEA402037D04FF0805343EA111143EA10130CF000408B4238BF5B0042F1C4
:2052C0007D024FF4000C8B4224BF5B1A40EA0C00B3EB510F24BFA3EB510340EA5C00B3EBBE
:2052E000910F24BFA3EB910340EA9C00B3EBD10F24BFA3EBD10340EADC001B0118BF5FEA3E
:205300001C1CE0D1FD2A3FF650AF8B4240EBC25008BF20F0010070470CF0004C4CEA5020C2
:205320007F32C2BFD2F1FF0340EAC250704740F400004FF00003013A37E792F0000F00F033
:20534000004C02BF400010F4000F013AF9D040EA0C0093F0000F01F0004C02BF490011F4D5
:20536000000F013BF9D041EA0C0195E70CEAD15392EA0C0F08D142027FF47DAF93EA0C0F60
:205380007FF470AF084676E793EA0C0F04D14B023FF44CAF08466EE730F0004C18BF31F0E1
:2053A000004CCAD130F000427FF45CAF31F000437FF43CAF5FE700BF4FF0FF3C06E000BF40
:2053C0004FF0010C02E000BF4FF0010C4DF804CD4FEA40024FEA41037FEA226C18BF7FEA4F
:2053E000236C11D001B052EA530C18BF90EA010F58BFB2EB030088BFC81738BF6FEAE17012
:2054000018BF40F0010070477FEA226C02D15FEA402C05D17FEA236CE4D15FEA412CE1D064
:205420005DF8040B704700BF844608466146FFE70FB5FFF7C9FF002848BF10F1000F0FBD60
:205440004DF808EDFFF7F4FF0CBF012000205DF808FB00BF4DF808EDFFF7EAFF34BF0120D9
:2054600000205DF808FB00BF4DF808EDFFF7E0FF94BF012000205DF808FB00BF4DF808ED01
:20548000FFF7D2FF94BF012000205DF808FB00BF4DF808EDFFF7C8FF34BF012000205DF81A
:2054A00008FB00BF4FEA4002B2F1FE4F0FD34FF09E03B3EB12620DD94FEA002343F0004333
:2054C00010F0004F23FA02F018BF404270474FF00000704712F1610F01D1420205D110F009
:2054E000004008BF6FF0004070474FF00000704742000ED2B2F1FE4F0BD34FF09E03B3EBEB
:20550000126209D44FEA002343F0004323FA02F070474FF00000704712F1610F01D1420223
:2055200002D14FF0FF3070474FF00000704700BF7BB972B90029BEBF00204FF0004106E033
:2055400008BF00281CBF6FF000414FF0FF3000F02DBBADF1080C6DE904CE002909DB002B89
:205560001ADB00F04DF8DDF804E0DDE9022304B07047404261EB4101002B1BDB00F040F899
:20558000DDF804E0DDE9022304B0404261EB4101524263EB43037047524263EB430300F0AC
:2055A0002FF8DDF804E0DDE9022304B0404261EB41017047524263EB430300F021F8DDF89F
:2055C00004E0DDE9022304B0524263EB4303704753B94AB9002908BF00281CBF4FF0FF31F8
:2055E0004FF0FF3000F0E2BAADF1080C6DE904CE00F006F8DDF804E0DDE9022304B07047DA
:205600002DE9F047089E0D4604468846002B4DD18A42944668D9B2FA82F252B101FA02F3E9
:20562000C2F1200120FA01F10CFA02FC41EA030894404FEA1C41B8FBF1F71FFA8CFE01FBAC
:20564000178807FB0EF0230C43EA084398420AD91CEB030307F1FF3580F01E81984240F2F3
:205660001B81023F63441B1AB3FBF1F001FB103300FB0EFEA4B244EA0344A6450AD91CEBFC
:20568000040400F1FF3380F00981A64540F20681644402380021A4EB0E0440EA07401EB15D
:2056A0000023D440C6E90043BDE8F0878B4208D9002E00F0EE800021C6E900050846BDE8A3
:2056C000F087B3FA83F100294AD1AB4202D3824200F2FC80841A65EB030301209846002ED9
:2056E000E2D0C6E90048DFE702B9FFDEB2FA82F2002A40F09180A1EB0C0001214FEA1C47C2
:205700001FFA8CFEB0FBF7F307FB1300250C45EA00450EFB03F0A84208D91CEB050503F1CB
:20572000FF3802D2A84200F2CE8043462D1AB5FBF7F007FB10550EFB00FEA4B244EA054492
:20574000A64508D91CEB040400F1FF3502D2A64500F2B6802846A4EB0E0440EA03409EE761
:20576000C1F120078B4022FA07FC4CEA030C25FA07FA4FEA1C49BAFBF9F820FA07F309FBA5
:2057800018AA8D401FFA8CFE1D4300FA01F308FB0EF02C0C44EA0A44A04202FA01F20BD91F
:2057A0001CEB040408F1FF3A80F08880A04240F28580A8F102086444241AB4FBF9F009FBF2
:2057C000104400FB0EFEADB245EA0444A64508D91CEB040400F1FF356CD2A6456AD90238F2
:2057E000644440EA0840A0FB0295A4EB0E04AC42C846AE4656D353D0002E69D0B3EB080271
:2058000064EB0E0422FA01F304FA07F71F43CC40C6E90074002147E70CFA02FCC2F1200163
:2058200025FA01F34FEA1C4720FA01F195400D43B3FBF7F107FB11331FFA8CFE280C40EAAB
:20584000034001FB0EF3834204FA02F408D91CEB000001F1FF382FD283422DD90239604493
:20586000C01AB0FBF7F307FB1300ADB245EA004503FB0EF0A84208D91CEB050503F1FF38CE
:2058800016D2A84214D9023B6544281A43EA014138E73146304607E72F46E4E61846F9E63C
:2058A0004B45A9D2B9EB020865EB0C0E0138A3E74346EAE7284694E74146D1E7D0467BE708
:2058C0006444023847E7023B65442FE7084606E73146E9E610B40024224610F801CB0CF01B
:2058E0007F0393401CF0800F44EA030402F10702F3D10C6010BC704710B40024224610F87C
:2059000001CB0CF07F0393401CF0800F44EA030402F10702F3D11F2A07D81CF0400F04D083
:205920004FF0FF3303FA02F214430C6010BC7047FF2808B5034619D003F07002302A08469C
:2059400016D005D8202A09D1BDE8084001F0E1BE402A09D1BDE80840FFF7C0BA02D813F065
:20596000600F03D001F0D8FE502AFBD1002008BDBDE8084001F0CABEF0B5502815461E46B1
:2059800083B01ED000F00F0304460F460C2B38D8DFE803F0072D33071F373737372723078A
:2059A0001F00284650F8043B43B104F07002102A08BF2F4622063B4448BF1B68336003B08C
:2059C000F0BDD01C20F0030050F8043B336003B0F0BD284650F8083BE6E7284630F9023B07
:2059E000E2E7284601A9FFF787FF019BDCE7284601A9FFF76FFF019BD6E7284630F8023B43
:205A0000D2E701F089FE00BF70B50C460146204615461E46FFF78CFF334601462A4620469C
:205A2000BDE87040A8E700BF70B506460C46154682B060B3FFF752FA034620462B6010F8DC
:205A4000011BFF2912D16B6010F8013BFF2B2B7516D1002301A9EB6010F8013B6B75FFF72D
:205A600039FF019B03442B6102B070BD02462B1D3046FFF7C9FF10F8013BFF2B2B75E8D016
:205A800001A9FFF727FF019B0344EB60E4E70346D3E700BF002310B584B003AC0392009491
:205AA0000A461946FEF796FC04B010BD002300B585B003A900910F221946FEF765FC039864
:205AC00005B05DF804FB00BF70B500F0030001280D4614468CB00AD021462846FFF7E6F950
:205AE00010B908200CB070BD09200CB070BD0A4620460C21FFF7CEFF2046FFF7F5F9014683
:205B00000028E9D006AA2046FFF78EFF024620460192FFF7CBFF0A9B019A20F001069A42D7
:205B200006F1FF3603D3D7E70A9B8342D4D99DF82D1002AB0020FFF767FF9DF82D10024679
:205B400003AB0020FFF760FF04AB02469DF82D100020FFF759FF05A9FFF7BCFE029A069B50
:205B60001344B3420246B7D803990B44B342DBD9049B002BB0D0079E9E19ADD02A460021BA
:205B80002046FFF787FF002201212046FFF782FF2046FFF78BFF024602F0010220460F2149
:205BA0003243FFF777FF07209CE700BF704700BF10F8012B11F8013B012A28BF9A42F7D0F7
:205BC000D01A7047034613F8012B002AFBD1181A0138704710B50B4C94F85C30BFF35B8FBC
:205BE000DB070DD404F15C0001F073F940B1064A0649074800F0ADFC04F15C0001F075F90C
:205C0000034810BD78010020000000209D1700080400002010B50B4C94F86030BFF35B8FFF
:205C2000DB070DD404F1600001F053F940B1064A0649074800F08DFC04F1600001F055F923
:205C4000034810BD7801002000000020751700080800002038B5044610460B464A6841687E
:205C60000A44194651F8085B8D420CBF0F2199688A4212D9014651F8085B8D420CBF0F218C
:205C800081688A4209D81A460021FCF775FB01462046FCF721F9204638BD01461846FCF7DD
:205CA000ABFAF4E770B592B004460E4606A819461546FCF799F91A4906A8FCF786FA01E00D
:205CC000044624E02B683246294668461B6998476A4606A90CA8FFF7BDFF20460CA901F01A
:205CE000D9F90CA8FCF738F96846FCF735F906A8FCF732F90B4BC4E90265236012B070BD83
:205D000004460CA8FCF728F96846FCF725F906A8FCF722F92046FEF7E3FE0446F4E7CFE7DF
:205D2000ABA2000868A70008F0B515461F46136893B00A4604460E460CA829461B69984760
:205D400000211A4A0CA8FCF721FB014606A8FCF7C3F83A46002106A8FCF718FB014668460E
:205D6000FCF7BAF86946204601F094F96846FCF7F3F806A8FCF7F0F80CA8FCF7EDF80C4BF3
:205D8000C4E90265236013B0F0BD04466846FCF7E3F806A8FCF7E0F80CA8FCF7DDF82046DB
:205DA000FEF79EFE0446F4E70446F5E7ABA2000868A70008F0B593B0054606A81446FCF76D
:205DC00013F92822012106A8FCF7BAFE01E0044656E02346012142F20F7042F21072092B69
:205DE00002D9632B07D801310EAB00220CA80C93FCF74DFE0CE0B3F57A7F01D20231F3E750
:205E0000834201D80331EFE7B3FBF2F30431E6E76426DDE90C13274F0B44632C0FD9B4FBEB
:205E2000F6F006FB104207EB4202044692F8090992F8082903F8010C03F8022DEDE7092C17
:205E400089BF1C4A303402EB440494F8093992BF0C704B7094F80839684688BF0B700CAAB2
:205E600006A9FFF7F7FE292201216846FCF768FE0FE004466846FCF76FF80CA8FCF76CF8C8
:205E800006A8FCF769F82046FEF72AFE0446F4E79DE701462846FCF71FF86846FCF75CF820
:205EA0000CA8FCF759F806A8FCF756F8284613B0F0BD00BFF88D0008F0B504468DB0102075
:205EC0000F4600F01BFC0646FFF784FE1A49054606A8FCF796F83A46684606A9FFF76AFF89
:205EE0006B462A4621463046FFF7DCFE6846FCF733F806A8FCF730F83046104A104900F026
:205F000097FF0D460BE0044668460D46FCF724F806A8FCF721F8304600F006FC2046012D9D
:205F200007D0FEF7DDFD04460D46F1E704460D46F1E700F03AFCFEE7C5A3000829730008B2
:205F400084A6000808B5FFF7B7FF00BF2DE9F043002601274FF00409914A924B924DDA6033
:205F6000EB69DFF8488287B0914C43F00103EB6102A94046A67202978DF80C608DF80F60CE
:205F8000FAF7D5F9204627702781C4F80480FAF72DFA2046FAF762FEEB6902A93B43EB61C5
:205FA0004046A675CDF808908DF80C608DF80F60FAF7BDF904F10C002773A4F81490C4F8C0
:205FC0001080FAF713FA04F10C00FAF747FEEB69784843F00203EB6184F8BA71102702A9DB
:205FE00002978DF80C608DF80F60FAF7A0F9C4F8B40104F5D87084F8B061A4F8B871FAF7A4
:20600000F5F93346802204F1AC006B49FBF7B4F92B6A6A4C43F400732B626B6943F4007383
:206020006B616B6923F400736B61636823F0407323F4807343F480736360A268604B1340DA
:2060400043F0407343F00203A360236B23F0F8732363236943F007032361236C23F01F037C
:2060600043F00A032364A36823F0F00343F07003A360636843F440336360A36843F0010325
:20608000A36023685A06FCD500220F211220FAF7C1FD636843F0200363606FF00203236043
:2060A000A36843F08043A360EFF305839BB1454B187A08BBFAF7FDF90546E8B1102000F056
:2060C0001DFB0446FFF786FD294602463E4B2046FFF72AFE0BE0FAF7D9F90028E7D1EFF3B1
:2060E0001483DB07E3D5DFF8E4C000DFE1E72046374A384900F09CFE1022002102A801F06D
:206100008BFB082000F0F4FE334B0190036001AA684602A9FCF792F906E00546204600F074
:2061200003FB2846FEF7DCFC01A8FBF7BDF8EFF30583A3B16FF00504102000F0DFFA05466C
:20614000FFF748FD21460246244B2846FFF7ECFD16E0044601A8FBF7A7F82046E2E7FAF7FF
:2061600095F90028E6D1DFF878C000DF04460028E2D16846FBF742FB204607B0BDE8F0838D
:206180002846134A134900F053FE044603E00446284600F0C9FA6846FBF730FBDDE700BFB1
:2061A0000003FA0500ED00E0003802400000024078010020000402400008024000240140C6
:2061C000FDF7FFC0400000207AA40008A30400082973000884A600086C9A00088DA40008BA
:2061E0005F18000873B50025AF4CB04AB04904F14C00656500F0ADF92046AC4AAD4940F8BA
:20620000485F00F0A6F9A94AAB4904F5D07000F0A0F901232022A94904F5DE7084F8BC5177
:2062200084F8C451FBF7A8F82B460422A44904F1300084F8305084F83850FBF79DF82B469A
:206240004FF480429E4904F13C0084F83C5084F84450FBF791F82B460222994904F5CA70E4
:2062600084F8945184F89C51FBF786F801234FF40052934904F5E47084F8C85184F8D051D0
:20628000FBF77AF801238E491A4604F11800257684F82050FBF770F8844A874904F5C47086
:2062A00000F057F9874B0222186829462B468068C4F8905101F0A4FB04F5DE708DF8075010
:2062C000FAF7A4F89DF80730013BDBB28DF80730002BF7D17C48FAF799F80C38FAF7A0F8DA
:2062E0009DF80750013DEDB28DF80750002DF7D17648FAF795F88DF80750754D9DF807305E
:206300005A1C2B4493F8800CD2B28DF80720FAF764FC9DF807300D2BF0D9AF20FAF75DFC1A
:20632000B020FAF75AFC0025684E3046FAF778F8E8B2FAF752FC1020FAF74FFC3046FAF7E8
:2063400065F801350020FAF748FC102DEDD15F48FAF766F8B820FAF740FC00235B4D8DF80F
:2063600007309DF807305F2B1CD82846FAF758F89DF8070000F00F00FAF72FFC9DF807009A
:20638000000940F01000FAF728FC2846FAF73EF80020FAF722FC9DF807300133DBB28DF8C9
:2063A0000730DEE700254948FAF73AF8B020FAF714FC0020FAF711FC1120FAF70EFC434862
:2063C000FAF724F8394A4349083884F88C5100F0C0F8414A414BA267414AA366E267414AD8
:2063E000414BC4F880204FF08B42E36600232946C4F898203D4818222367C4F88430C4F8E5
:206400008830C4F89430C4F89C30C4F8A030C4F8A430C4F8A83084F8245084F82C5025708F
:20642000257384F8B05184F8AC5084F8B4506567C4F88C50C4F8B85001F0EEF9002300220A
:206440002B49C4E95A23C4E95C23C4E95E232948164AC4F8E050C4F8F050C4F80051C4F8C2
:206460001051C4F82051C4F83051C4F84051C4F85051C4F86051C4F8805100F06AF84FF418
:2064800084331D494FF40062C4E969131B480123C4F8AC51FAF770FF044A1949194802B0AE
:2064A000BDE8704000F055B87801002000000020C3120008DD1200086D2F0008000802400F
:2064C00000040240F4000020400300200C030020F88D0008EB3200080000204100803B44BE
:2064E0001A34CCC31A34CC430000704138020020F932000830020020000002409C010020D3
:20650000553300081C0300200C480D490D4A002302E0D458C4500433C4188C42F9D30A4A65
:206520000A4C002301E013600432A242FBD3FDF76FFC01F007F9FFF709FD70470000002083
:206540005801002020B700085801002004890020FEE70B460146184601F0E6B87FB50024FB
:206560001023CDE90234036815469E69CDE900446B461268B0479DF8043003F00603062B1D
:2065800009BF01202046009B2B6004B070BD0098904214BF012006207047000010B504465B
:2065A000024B036000F037FD204610BDE0A4000810B50446FFF7F2FF2046082100F042F899
:2065C000204610BD2DE9F041DDF818801F46DDE9083498450646154607D1079900F01EFD66
:2065E00018B165710020BDE8F0813946304600F015FD0028F6D00123C4F800802571A371D7
:20660000F0E738B515461C4600F008FD20B10823E36006232560237138BD2DE9F0410546FC
:206620000C4616461F4600F0F9FC48B9032F07D82368324629462046BDE8F0415B6918477F
:20664000BDE8F08100F0AEBE194A70B55368A0F1080423B150F8081C6518AB4203D940F82A
:20666000043C546070BD05D1D3E90035194440E90215F6E704325E684EB1B54202D21A1DBB
:206680003346F8E701BF2E686D6889195D6013681D685E19B44217BF5B68491940F8043C38
:2066A000136816BF40F8081C19605C60DAE700BFC088002000F10803082B38BF082330B5DB
:2066C0000D4A073352F8040F23F0070368B1D0E900148B420AD9021D2046F7E7C1184C6031
:2066E000C550106803601160083030BDCD1A072DF4D801601460F7E7C088002010B500F15C
:206700008004204601F042F8034630B92046FFF7D1FF034608B900F025FB802200211846CB
:2067200001F07AF8803010BD064A80389368984205D9D2681344984201D2FFF785BF01F055
:206740002DB800BFC088002038B54FF41E65074C2846E56001F01AF8A06010B9E0606060A8
:2067600038BD0023606005604360F9E7C08800200378472B17D143784E2B14D18378552B88
:2067800011D1C378432B0ED10379432B0BD143792B2B08D183792B2B05D1C07901288CBF09
:2067A0000020012070470020704738B5044600F04FF8024605682046A4F12001FFF7D8FFFE
:2067C00028B90DB100F0CEFA1160284638BD54F80C3C2046002BB4BFC3F10103013344F8CE
:2067E0000C3C53688D4203F1FF3353601CBF44F8105C1160656AFDF7BFFDE6E710B500F0F9
:2068000023F8026801469AB102F120042046FFF7AFFF28B908602046BDE81040FDF7AEBD3D
:206820005369002B05DA013301D110690860536110BD013B02D113690B60ECE7591CF6D125
:2068400000F090FA7047000000487047D088002000487047D088002000231A4630B510F8A9
:20686000015B05F07F04944023432C0602F10702F5D40B6030BD00231A4630B510F8014BFF
:2068800004F07F0595402B43250602F10702F5D41F2A06D8640642BF4FF0FF3404FA02F257
:2068A00013430B6030BD50282DE9F3410646884615461F4608D1D01C20F0030050F8044B1F
:2068C0003C6002B0BDE8F08100F00F030C2B2ED8DFE803F025071D25292D2D2D2D182125B2
:2068E0002900284601A9FFF7B7FF019C002CE7D006F07003102B08BFA8463306444448BF0A
:206900002468DDE7284601A9FFF7B5FFEDE7284630F8024BEAE7284630F9024BE6E72846BE
