:020000040800F2
:2000000000C0002085630008653C0008673C0008693C00086B3C00086D3C000800000000AF
:20002000000000000000000000000000853D00086F3C000800000000173E0008273E000879
:20004000C9630008C9630008C9630008C9630008C9630008C9630008011F0008151F000804
:20006000291F00083D1F0008511F0008C9630008C9630008C9630008C9630008C963000850
:20008000C9630008C9630008CD1A0008C9630008C9630008C9630008C9630008651F0008AD
:2000A000C9630008C9630008C9630008C9630008C9630008C9630008C9630008C9630008A0
:2000C000C9630008C9630008C9630008C9630008C9630008C9630008C9630008C963000880
:2000E000C9630008C9630008C9630008C9630008C9630008C9630008C9630008C963000860
:20010000C9630008C9630008C9630008C9630008C9630008C9630008C9630008C96300083F
:20012000C963000800000000000000000000000000000000000000005FF808F1FFFFFFFF3F
:2001400010B5054C237833B9044B13B10448AFF300800123237010BD580100200000000084
:20016000108C000808B5034B1BB103490348AFF3008008BD000000005C010020108C000865
:2001800010B5D0E90042D1E900039A4208BF844206D0844272EB030304DA4FF0FF3010BD61
:2001A0000020FCE70120FAE71AB1012A04D000207047024B0360FAE70160F8E7288C00080C
:2001C00013B56C460B46024603C884E8030093E8030082E8030094E8030083E803009868FA
:2001E000916890609960D168D868D060D96002B010BD13B56C460B46024603C884E803006F
:2002000093E8030082E8030094E8030083E803009868916890609960D168D868D060D96042
:2002200002B010BD2AB1012A06D0022A05D10B6800E0034B036000E001600020704700BF86
:20024000308C00081AB1012A04D000207047024B0360FAE70160F8E7388C00081AB1012AA6
:2002600004D000207047024B0360FAE70160F8E7408C00081AB1012A04D000207047024B40
:200280000360FAE70160F8E7488C00081AB1012A04D000207047024B0360FAE70160F8E78C
:2002A000508C0008034642B1012A0AD0022A04BFD1E90001C3E9000101E0034A0260002012
:2002C00070470160FBE700BF588C0008034642B1012A0AD0022A04BFD1E90001C3E90001E1
:2002E00001E0034A0260002070470160FBE700BF608C00082AB1012A06D0022A05D10B6850
:2003000000E0034B036000E001600020704700BF688C00081AB1012A04D000207047024B8B
:200320000360FAE70160F8E7708C000870472DE9F0410022012703260B6807FA02FE3EEA28
:2003400003032BD1036891F804C0540006FA04F86FEA080523EA08080CFA04F30CF1FF3CDB
:2003600043EA0803BCF1010F03600ED883682B404D79A5401D43856083889BB223EA0E0581
:200380008B7993409BB22B438380C36806FA04F523EA0505CB79A3402B43C3600132102A68
:2003A000CAD1BDE8F081426801780389128A21B113420CBF012000207047134214BF01200E
:2003C0000020704708B50348FFF7EDFF003818BF012008BD7801002008B50348FFF7E3FFEE
:2003E000003818BF012008BD8401002007B503896946009300238DF80430012340688DF8AC
:200400000730FFF794FF03B05DF804FB0123017883604288436809B15A8370471A8370477E
:200420000023017883604288436809B11A8370475A83704708B50248FFF7F2FF002008BD53
:200440009001002008B50068FFF7EAFF002008BD014BD868704700BF4000002000487047A1
:20046000E49B000800487047ED9B0008014B5869704700BF40000020EFF310832BB9EFF348
:200480001180003818BF0120704701207047014B187A7047400000204FF47A70704708B576
:2004A000EFF3058313B16FF0050008BDFFF7E4FF0028F8D1DFF804C000DFF6E77117000834
:2004C00008B5EFF3058313B14FF47A7008BDFFF7D3FF0028F8D1DFF808C000DFF6E700BF6C
:2004E00099040008034610B588B1084310F007000DD117290AD9102219600839CC189C60F1
:200500005A60C85099684A60D860012010BD0020FCE70346F0B588B159B30F3121F00701A9
:2005200000F108073C463F686568381B25F00305401B814203D938680028F3D1F0BD5E685C
:200540001D680E445E602B4453F8040C083B864288BF5E60636811431BB9616004F108007B
:20056000ECE723F00303E018E750416020600830E4E70846E2E710B5D0E85F3F5A1C9142C1
:2005800000D80022C0E8542F04B1F5E798B210BD930710B502F0010422D400F1280384B1F1
:2005A00053E8000F00EA01028A4203D0BFF32F8F002005E020EA010243E8002404B1EFE709
:2005C00010BD53E8000F084203D1BFF32F8F002005E020EA010243E8002404B1F1E7EFE7B2
:2005E000806A01EA00031CB18B4218BF0020E7E7002B08BF0020E3E710B591F9202083686E
:200600001BB193F92040944205DAC1E90230816003B1D96010BD18469B68F1E7034680688C
:2006200082689A6002B1D3600023C3607047C2682AB18368936003B1DA600023C360704725
:2006400010B504465CB12378F12B06D0FFF7EFFF01462046BDE81040CEE7E468F2E710BDC4
:200660000123014643700148C6E700BF5C00002010B5D0E90431C469621C0CD103B1596182
:2006800042691AB113610023436101E0074A13630023C36110BD1BB1DA6959612244DA6183
:2006A0004269002AEED1014AD362F1E740000020012310B5094A437090F92010536A1C323B
:2006C0001BB193F920408C4205DCC0E90232906003B1D86010BD1A469B68F1E74000002092
:2006E0000223C2784370520758BF032383F31488BFF36F8F014B9861704700BF4000002075
:2007000010B5134B04461A7A596998B9022A1DD15C6ADCB194F9202091F920309A4215DDE3
:200720002046FFF784FF0846FFF7C2FF2046BDE81040D5E7022A05D190F9202091F9203019
:200740009A42F0DC2046BDE8104089E710BD00BF4000002010B51446836B1962FFF788FF35
:2007600014B1BDE81040CBE7BDE8104078E7284B70B55A690446002A41D0002842D0037824
:20078000F52B3FD1037E002B3FD0C16891423CD1013BDBB2037613BB43690BB10169196109
:2007A0002169F1B14B6192F92130D56ADDB982F82030A36883B12046FFF730FF06462A4660
:2007C0002946FFF7C7FFF36AC4E90365636103B11C610123F46223760020FFF791FF0020AE
:2007E0000FE0D362DFE7E978890706D5A96821B191F920108B42B8BF0B466D69D6E74FF03F
:20080000FF3070BD6FF00300FBE76FF00200F8E7400000202DE9F0410446002601270CB9F4
:20082000BDE8F081E378D4F814801B0712D5A36826767BB12046FFF7F1FE002205461146FC
:20084000FFF788FFEB6AC4E90356636103B11C61EC6227764446E2E738B51D4C0246237A52
:20086000022B33D1606A98B163695A704A1C15D10021226B6AB94FF0FF30C3E90421D86109
:2008800051B10B611348FFF7C9FEFFF729FF012038BD11461269EDE72363F3E70020E26A2C
:2008A00012B1D569A9420BD2C3E90420D96158B10361002AE6D0D0695361411AD161E1E7D6
:2008C0001046491B1269EBE7E362F2E70020DFE7400000205C000020224B70B55D6904468F
:2008E0000E46002D35D0002836D00378F52B33D1037E53B9C0E90353EB6A436103B11861F3
:200900000123EC620020237670BDC278D10706D5C168A94203D1FF2B21D00133F2E7F6B1DB
:2009200093070AD5E06895F9203090F920209A4203DA80F82030FFF783FE31465320FFF777
:200940008BFF18B129462046FFF756FE6FF00100DAE74FF0FF30D7E76FF00300D4E76FF05C
:200960000200D1E740000020014608B538B11320FFF772FF80F00100C0B2404208BD6FF04D
:200980000300FBE708B58847DFF804C000DFFEE76D3B000810B543780446332B0BD1416A28
:2009A00090F82320FFF7F4FD014620B12046BDE810400022CEE610BD10B50446806918B1AE
:2009C00000221146FFF7C6FE6378232B02BF0022A3689A6110BD70B5044648B30378F12B04
:2009E00026D1002924DB4378042B24D000F1280353E8002F42EA010543E8005606B1F7E72C
:200A00004378332B12D1416A90F82320FFF7C0FD014658B194F8233001229B0756BF656AD9
:200A2000054620EA05052046FFF794FE284670BD6FF00305FAE76FF00205F7E70B4B10B527
:200A40005B6963B100280DDB283353E8002F22EA000143E8001404B1F7E7104610BD4FF0A8
:200A6000FF30FBE76FF00300F8E700BF40000020F8B5114B04465E690F46154696B10028CC
:200A800013DB0A4601463046FFF782FD48B97DB129463320746286F82370FFF7DDFE6FF0DE
:200AA0000100F8BD4FF0FF30FBE76FF00300F8E76FF00200F5E700BF40000020002230B58C
:200AC0000B4D6B6C13B11C698C420AD9C0E9022301611BB11C699860611A19612AB1D06074
:200AE00030BD1A46091BDB68ECE76864F8E700BF40000020C36810B52BB104691A69816800
:200B000022441A61996082680AB1D36010BD014A5364FBE74000002038B50D460446B0B127
:200B20000378F22B13D191B14378022B08D14161FFF7E0FF20462946FFF7C0FF002038BD20
:200B4000064B1B6D33B1022343706161F2E76FF00300F4E76FF00200F1E700BF40000020D0
:200B600008B558B10278F22A08D14278022A08D101224270FFF7BEFF002008BD6FF00300B2
:200B8000FBE76FF00200F8E740B10378F22B04D14078831E58425841704700207047024673
:200BA00008B5EFF305830BB1002008BDFFF764FC0028F9D11046DFF808C000DFF5E700BFB6
:200BC000890B00087047F8B5044608250B4E06F10C073046FFF724FC230638460BD5FFF732
:200BE00015FC3046013DFFF711FC640015F0FF05E4B2EED1F8BDFFF713FCF2E79C0100201B
:200C00000F4B10B5DB68DB43C3F30223C3F10404E4B2A1400F2444FA03F31A40C9B21143B6
:200C2000084A09011318C9B283F800130123410900F01F0003FA00F042F8210010BD00BFD3
:200C400000ED00E000E100E000230289F0B4B2F5807F1C4674D04FD8102A74D042D8511E3A
:200C60008DB2072D09D8072907D8DFE801F00460066306060666002306240F2103F003059C
:200C800003F47F7303F1804303F580339E68AD0001FA05F726EA0706807A9E609E68A8405C
:200CA00030439860314B186820EA02001860586820EA020058602E48D0F800541543C0F823
:200CC00000549D6825EA02059D60DD6825EA0205DD60D0F80C341A43C0F80C24E0B200220F
:200CE000F0BC8DE7402A31D0802A31D0202A08BF052308BF1724C0E7B2F5805F2AD00AD87A
:200D0000B2F5806F29D0B2F5006F28D0B2F5007F08BF0923EDE7B2F5804F22D0B2F5004FEB
:200D200021D0B2F5005F04BF0D232824A5E701230724A2E7022308249FE7032309249CE76C
:200D40000823172499E704230A2496E70623F8E70723F6E70C2328248FE70A23FBE70B239E
:200D6000F9E70E23F7E70F23F5E700BF000401400000014030B5E0B1C3688B4219D8036966
:200D8000994216D200F114031A680A60BFF35F8F53E8002F0C689442F6D143E8001505B18B
:200DA000F2E7043050E8003F5A1E40E8002101B1F8E730BD30B588B181B17AB173B10024AD
:200DC000C0E9014202FB01F41D190160C360436105611846013902D1A21A995030BD8518D7
:200DE00005602846F6E750E8003F5A1C40E8002101B1F8E7704710B590B100F1140353E87C
:200E0000004F14B9BFF32F8F04E0226843E8002101B1F4E714B10430FFF7E5FF204610BDF9
:200E20000446FBE738B5034650B3D0E90054D3E9020318B11C2B21D0002038BD002BFBD172
:200E4000114BD3F8940030B901221C21D3F88000FFF75FFB01E0FFF7CEFF0028ECD0012347
:200E6000F5228370002304F00F04C0E90233C0E904330270C47045600376DEE70023EFE7FE
:200E800005460446DCE700BF40000020F8B50E4617461C46054608B90020F8BD0129FBD83D
:200EA000C3B1D4E902021B6888B1202AF4D11C4600234FF4F97283700023C0E90657C0E93A
:200EC0000233C0E904330280C6704460E5E7002AE2D11C46084BD3F88C0028B1FFF78BFF93
:200EE0000028D9D00123E4E701222021D3F88000FFF70FFBF4E700BF40000020036B30B437
:200F0000B3B10024CD78DA78AA4209D31A46C1E901245AB1916074B16160283030BC62E74C
:200F20005A681C46002AF2D01346ECE7C162F2E7C1E90133C1620163EFE730B578B171B10E
:200F40000023A1F1080400F10802944208D1626822F003054268521B42603BB9636030BDE5
:200F600015681346002DFAD02A46EEE751F8082C1A60F4E72DE9F04F85B0CDE9010120B972
:200F80000024204605B0BDE8F08F002A00F08B80D2E9018408F00603062BF1D0D368002C2F
:200FA0007ED0502BECD1D2E904B5BBF1000F04D01BF0070FE4D1002DE2D09769D2F800A089
:200FC000002F77D07A1E372ADAD818F0060F08BF48F0020835B16B07D2D1524AA5F1480154
:200FE0009142CDD8504E002C6DD1D6F88800002862D0FFF700FF04460028C1D04FF0010980
:20100000BBF1000F12D1002D75D1D6F8840000285CD0FFF7F0FE002873D083464FF4406519
:2010200049F0100949F00209002CA9D040F2F1122280FD220021019B628465633B4A403D12
:201040007FB208F00F085D44A563E363C4E90211C4E90411C4E90611C4E90911C4E90B1B81
:2010600084F8029084F80380C4F804A084F8207084F82170CBF80020A36B3822184606F04B
:20108000E3FA2B4A2B4B82634FF08072C263029A0262019A426220463366FFF731FB70E796
:2010A000002B80D06CE79246934614461827154690468AE7182788E701225021D6F88000E6
:2010C000FFF727FA97E74FF0000999E72A464FF44061706FFFF71DFA4FF44065F0B9B9F138
:2010E000000F1DD0D6F8882072B121461046FFF741FE002496E75A462946706FFFF709FAE1
:20110000ECE74FF44065EAE72146D6F880000392FFF713FF039A1446934683E7834681E786
:201120004C467FE7B7FFFF7F40000020A52E5AE2850900089509000870B5044600284AD027
:201140000378F52B47D1037EC3B16369C0680BB122691A6122690AB3536190F92120C36A3E
:20116000F3B990F92030934203D080F82020FFF767FAA06800BB2076FFF7C2FA0026A078EA
:20118000267010F0010008D0144B2146D3F89450DDB12846FFF7EEFD304670BDC362DCE703
:2011A000D978890706D5996821B191F920108A42B8BF0A465B69D3E72046FFF72FFA6FF0F1
:2011C00002010022FFF7C6FAD3E7D3F88000FFF7B4FE2846E1E76FF00300DEE740000020CA
:2011E00010B5C378044613F0010320D1038083789A0708D513F0100F016B124B0ED0D3F81D
:201200008400FFF7B7FDA378DB071AD50D4B2146D3F8880030B1BDE81040ABE5586FFFF77F
:201220008CFEF0E7D3F88000BDE8104085E6042343700023034AC360536B836003B1D860A8
:20124000546310BD4000002070B50546E8B10378F22B1AD14378022B01D1FFF74BFC002601
:20126000AB782E8013F0010008D0094B2946D3F88C4024B12046FFF77DFD304670BDD3F84E
:201280008000FFF75AFE2046F8E76FF00300F5E740000020006810B103685B681847704730
:2012A00008B5836801460BB10322984708BD10B50446FFF7F5FF204610BD826810B50AB91C
:2012C00005F054FEC368BDE81040184738B50546064BDC6B44B1A388AB4203D104F108009A
:2012E000FFF7EBFF2468F5E738BD00BF7801002038B5054C04F14005A36C03B9FEE72846C3
:20130000FFF7DBFFF8E700BF7801002010B504460C2105F0D3F8204610BD70B504460568BB
:2013200055B1284650F8086BFFF7BAFF2846182105F0C4F83546F3E7204670BD10B5044680
:20134000082105F0BBF8204610BD73B51E462A4B044699420846154614D1284AD36943F0F4
:201360000103D36140F20133694601930095FEF7DEFF2378002B3DD005832670658060608F
:2013800002B070BD1E4B994204D11C4AD36943F00203E6E71B4B994204D1184AD36943F0C7
:2013A0000403DEE7184B994204D1144AD36943F00803D6E7154B994204D1104AD36943F0E0
:2013C0001003CEE7124B994204D10C4AD36943F04003C6E70F4B994204D1084AD36943F0B8
:2013E0008003BEE70C4B9942BCD1044AD36943F02003B6E74583C0E700000240003802405E
:201400000004024000080240000C02400010024000180240001C024000140240044607B588
:201420000A4DEFF30583002BFBD1FFF725F802460028F6D1204669464FF0FF33AC4600DF53
:201440000028EED1DDE900309847EAE76D160008F0B507460D46294E87B034463B892646D7
:2014600024686CB1A2889A42F9D1204650F8083B3360FFF715FF1821204605F01FF8ECE7E7
:20148000284602A9ADF804300494FEF7B2FE182005F06AFC0023BDF8042003600361049B28
:2014A000044682804BB100F108060222304602A99847059B6361049B2361114B02A8DA6BEF
:2014C000DC632260FFF7ECFE07B0F0BD05463046FFF7E6FE284605F0A4F81821204604F0DA
:2014E000EDFF05F0FBFB044605F0C4F802A8FFF7D7FE204603F024FA0446F7E7B401002031
:2015000078010020F8B5817804468568002935D04368C66873B39D60A2686AB3536000272A
:2015200006F10C05214628462770FFF723FCB368002B47D02846FFF75EFC0446002841D084
:201540003046FFF76BF805463A463946FFF702F9AD6B726A696A04F10C0006F04DF8F92362
:20156000214630462370A770AB6A2035E370BDE8F840C3E4F562CFE73363D0E7AB68F3B192
:201580005B78832B1BD12846FFF748F806460A46FFF7E0F8B66B6A6A04F10C01706A06F009
:2015A0002BF8B36A20360BB1E2781A7000232370214605F10C00BDE8F840FFF7DBBB214606
:2015C0002846D4E7F8BD2DE9F0410C4690461F460546002841D00378FA2B3ED100293CD0F1
:2015E0008368B3B15B78832B13D1FFF717F8064601220021FFF7AEF8B66B21466A6A706AD0
:2016000005F0FAFFB06A10B180F800800020BDE8F08105F10C00FFF7EEFB064678B1214616
:201620006A6A0C3005F0E8FF0024F923314628463370B47086F80380FFF760FCE6E77FB182
:2016400039469320FFF708F920B1074B28465969FEF7D2FF6FF00100D9E76FF00300D6E709
:201660006FF00200D3E700BF40000020F8B59C460D461746044600286BD00378FA2B68D16B
:20168000002966D000F1280353E8002F12B9BFF32F8F04E0501E43E8000606B1F4E712B152
:2016A0000122E66A7EB9BCF1000F55D061468320FFF7D2F820B12D4B20465969FEF79CFF94
:2016C0006FF0010023E0B01CD0E84F3FC0E8412F01B1F9E7DBB2002B41D0B668E2E79A6041
:2016E000B268AAB153602846626A06F10C0105F083FF0FB1F3783B70002504F10C07314693
:2017000038463570FFF736FBA3681BB90020F8BD2363E8E73846FFF76EFB06460028F5D060
:201720002046FEF77BFF074629460122FFF712F8BF6B626A796A06F10C0005F05DFFF923AC
:20174000B5703370BB6A31462046F370FFF7D6FBDCE76FF00300DAE76FF00200D7E7D6E9D1
:201760000132002BBBD1E262BAE700BF4000002038B51F4C217A01292FD0B1BB9C2204F140
:20178000080005F061FF1B4B1B4DE3651023A4F8543005234FF4004128462364FEF7A2FE4D
:2017A00008B1C4F8805000210846FEF79BFEB0B9D4F88030002108466367FEF793FE80B90A
:2017C000D4F8803000210846A367FEF78BFE50B9D4F88030E36701232372002038BD0023D6
:2017E000E8E70023EEE70023F4E74FF0FF30F5E740000020400300208803002010B504465D
:20180000024B036005F0F1FC204610BD808C000810B50446FFF7F2FF2046042104F04EFE2E
:20182000204610BD10B50446024B036005F0DDFC204610BDA88C000810B50446FFF7F2FF83
:201840002046042104F03AFE204610BD406810B503689B689847DFF828C000DFFEE7012937
:2018600009D104F0DEFE05F039FA044604F002FF204603F065F804F0D4FE05F0AFF900BF7F
:201880006D3B0008036810B53BB1BFF35B8F1B7ABFF35B8F0BB905F0A1F904689CB1226819
:2018A000EFF3058333B9FEF7E7FD18B91046DFF818C000DF201DFFF7EDFC2046BDE81040CD
:2018C0000C2104F0FBBD10BDC53B000810B5046844B12046FFF7D6FF2046BDE81040042183
:2018E00004F0ECBD10BD38B5294C237A012B03D04FF0FF35284638BD0021264A2648FFF7B5
:2019000039FBA06200F054F805460028F0D1234AE16C2348FFF72EFBA0640028E8D0FF23D7
:20192000204A214982F8223092F82230D26863F0FF03DB4314BFB3FA83F32023C2F302226C
:20194000C3F12003934298BF531CFE2202FA03F3144ADBB2D377FF2382F823304FF0E0239D
:2019600006221A6147F6FF425A6100229A6181F840204FF0FF3222611A690C4842F0010296
:201980001A61FEF74BFEFEF7ABFE02232372B1E740000020C88C0008F1120008EC8C000857
:2019A0001D14000800ED00E0400300205C00002038B5FA230C4C00252370082304F10C00FC
:2019C000C4E9093514220421084BC4E90155C4E90B556580FFF7EEF9054B064A28461A670D
:2019E000054ADC641A6538BD88830020BC8300204000002005150008AD3800082DE9F84F8E
:201A00008846174689462F4EDFF8BCA006F16005A9EB08039F4251DD19F8014B0D2C0FD09D
:201A200096F85830192B0ED80A2C1CD10D2BEFD80E23284686F85830FEF7F2FCB12006E005
:201A4000002386F858302846FEF7EAFCB020FFF7BAF80020FFF7B7F81120FFF7B4F8284696
:201A6000FEF7D4FCD4E70133DBB20E2B86F8583014D10020FFF7A7F80020FFF7A4F828462C
:201A8000FEF7CEFCB120FFF79EF80020FFF79BF81120FFF798F82846FEF7B8FC4FF0060B63
:201AA000203CE4B20BFB04A414F8010B0BF1FF3BFFF789F81BF0FF0BF6D1A9E73846BDE832
:201AC000F88F00BF78010020108D00082DE9F04F324B334C986DB4F86C2085B010446FF00C
:201AE000020280B2A4F86C001A6094F86E300133DBB2012B04D884F86E3005B0BDE8F08F48
:201B00000023400884F86E3003F0DEF9D4F8A410054603F0EDFBB8B3C4F8A450B4F8963043
:201B20003F2B47D80133A4F89630002384F8943000221B4B1B49A3F86C20D3F89C0003F0B6
:201B4000CFFA194903F018FA03F0DCFB4FF4B4735A3090FBF3F203FB1200144B1B7A984249
:201B600003DD03F10A02824208D803F1B402904240F3B981BE33834240F2B5810C4805B0D1
:201B8000BDE8F04FFEF742BC2846D4F8A01003F091FB0028C2D0C4F8A050BFE70024014094
:201BA00078010020DB0F494000003443040000202C0200200123D4F8A090D4F8A48084F8A4
:201BC00094304146484603F0CFF84FF07C5103F0D3F90146284603F0C5F8494605464046E2
:201BE00003F0C0F8D4F8A8700146284603F078FAD4F8AC60394603F0B5F8AA4903F0BCF9AA
:201C0000314603F0AFF8A84903F0B6F9A74903F0B3F9394603F0A8F8A549C4F8A80000909D
:201C200003F0AAF9314603F09FF8D4F89CB0C4F8AC00A0490190584603F09EF99E49029072
:201C400003F09AF90021044603F034FB08B104F10044204603F056FB03F03AF90146204602
:201C600003F080F84FF0884103F086F9044603F06FFBC0F30806304603F026F901462046E2
:201C800003F070F806F1800804468C48C8F3080800EB8803D3F88453D3F888A3294600EB19
:201CA00086035046D3F88493D3F8887303F05AF809F1004806463946404603F053F880497E
:201CC00003F05AF931460390304603F04DF8039A0146104603F046F8214603F04DF9794939
:201CE0000390304603F048F941460646404603F03BF8394603F036F8714903F03DF901465E
:201D0000304603F02FF8039A114603F02DF8214603F032F906466A49404603F02DF931468D
:201D200003F022F8214603F027F9294603F01CF849468046384603F015F851460646284682
:201D400003F012F85E4903F017F931460390304603F00AF8039B0146184603F003F82146CF
:201D600003F00AF957490390304603F005F929460646284602F0F8FF514602F0F5FF5049AB
:201D800003F0FAF80146304602F0ECFF039B194602F0EAFF214603F0EFF806464849284660
:201DA00003F0EAF8314602F0DFFF214603F0E4F8494602F0D9FF00210446029803F07AFA0C
:201DC00008B104F100444146019803F0D5F821460546009803F0D0F80146284602F0C2FFC4
:201DE0000146002002F0BEFF374C0746D4F89090216F03F0C1F8494602F0B6FFD4F88880CB
:201E00000546414603F074FA40B9D4F884602846314603F04FFA10B92E4600E046462946AD
:201E2000304602F09FFF616F0546C4F88C00384603F0A2F8D4F880108246284603F09CF815
:201E40000146504602F090FF494602F08DFF05460146C4F89000404603F02CFA10B1C4F81D
:201E6000908007E0D4F884802846414603F022FA0028F4D10D49304603F07EF8594602F0E4
:201E800073FF1249054603F033FA08B328460F4902F068FF0546C4F89860C4F89C50C4F8CD
:201EA000B07045E6F4FDB43F63149D430AD7A339DB0FC93DE02E6542610B363B288C0008A1
:201EC000DB0F493C0000404078010020DB0FC9402846084903F0EEF90028DCD0284606495D
:201EE00002F042FFD6E7054805B0BDE8F04FFEF797BA00BFDB0FC9C0DB0FC9402C02002053
:201F000008B50120FFF7E2F90122014B5A6108BD0004014008B50220FFF7D8F90222014BC8
:201F20005A6108BD0004014008B50420FFF7CEF90422014B5A6108BD0004014008B5082022
:201F4000FFF7C4F90822014B5A6108BD0004014008B51020FFF7BAF91022014B5A6108BDFF
:201F60000004014010B5174C63699B0604D52020FFF7ACF9202363616369580604D5402069
:201F8000FFF7A4F9402363616369190604D58020FFF79CF9802363616369DA0506D54FF468
:201FA0008070FFF793F94FF48073636163699B0506D54FF40070FFF789F94FF400736361C9
:201FC00010BD00BF00040140F8B50D460646E0B1EFF30583FBB1144BDC68FEF771FA1349DE
:201FE00002460023A4FB010103F022FA00230F4A07460C4603F01CFA0023C6E900010B4A7A
:202000003846214603F014FAB26015B10023C5E900330020F8BDFEF72FFA0028DBD1DFF860
:2020200010C000DF0446D8E74000002040420F00510400080B4600F10802026070B553F87C
:20204000084BA3420FD11C4601F1180554F8046BAC4242F8046BF9D10B6000234A680B721E
:2020600042604B6070BD8A6804608260F4E708B50B68002B02DA0C4804F05AFF93420AD943
:20208000B3EB420F4FEA420005D20028B6BF6FF0004308600B600868013001D504F042FF41
:2020A000BDE8084004F060BEF89B00080068013104F004BA024652F8081B914202D08168F7
:2020C000FFF7F4BF7047406801F100410139091A914208B502D2184604F02AFF08BD012A99
:2020E00030B403D10B78037030BC7047002AFBD030BC05F081BA521AFFF7F1BF73B50446FA
:2021000016460D4619B912B10D4804F00EFF731B0F2B019307D90022204601A9FFF7A7FF1B
:20212000019B2060A360324629462068FFF7E3FF0021019B22686360D15402B070BD00BF6C
:20214000109C000810B5044600F10802026006C94FF000030A44FFF7D1FF204610BD38B51A
:2021600000F108030446036008460D4603F05AFC4FF000032A1829462046FFF7BFFF204659
:2021800038BD052A10B504460CDC931D0EDB05320A2A1AD8DFE802F0171513110F0C2022C8
:2021A000242628006FF000439A4210D00F4900E00F4920460CE00F49FBE70F49F9E70F49A3
:2021C000F7E70F49F5E70F49F3E70F49F1E70F49FFF7C5FF204610BD0D49EAE70D49E8E7FA
:2021E0000D49E6E70D49E4E70D49E2E7EC9E00083A9C00085B9C0008A29C0008D49C00084F
:20220000EB9C0008FB9C0008569D0008B09D0008DE9D0008029E0008349E00086A9E00082B
:20222000B99E0008063210B50446052A12D8DFE802F00F110D0B090307492046FFF78FFFA8
:20224000204610BD0549F8E70549F6E70549F4E70549F2E70549F0E7FA9E0008089F00082F
:20226000609F0008D99F0008569D0008EC9E00082DE9F3470A9E1F46436801EB0208B21A80
:202280001A44A3EB08090346019253F8082B0D469A420CBF0F22826801A90446FFF7E7FE03
:2022A00082461DB12A462168FFF719FF37B12EB1324639460AEB0500FFF711FFB9F1000F0A
:2022C00007D0216835444A4641440AEB0500FFF706FF2046FFF7EEFE019BC4F800A0A360D8
:2022E00002B0BDE8F08773B50446234653F8086B40689E420CBF0F23A36885189D420AD889
:2023000012B13044FFF7EBFE00222046236865605A5502B070BD0B4600920146002220468F
:20232000FFF7A6FFF0E770B5044608460D4603F079FB0646024600212046054BFFF7C3FE92
:20234000324629462046BDE87040FFF7CCBF00BFF49F000806C9FFF7C6BF08B50346084662
:202360005B681146984203D90246024804F0E3FD08BD00BF09A00008FFF7C0BE03688B4246
:2023800006D840681844814294BF00200120704701207047012A30B403D10B78037030BCB0
:2023A0007047002AFBD030BC05F034B92DE9F74F144680460C9D89462A461F462146384BF0
:2023C000FFF781FE424652F8086BD8F8043096420CBF0F22D8F80820A5EB040B03EB0B0AD1
:2023E000524550D34E443946A1444046A3EB0909FFF7C4FF80B1B9F1000F06D0AC4204D0CC
:202400004A4631197019FFF7C5FF0DB32A4639463046FFF764FE1BE02DB1AC423BD32A46DD
:202420003046FFF7B7FFB9F1000F11D0AC420FD04A4631197019FFF7ADFFAC4208D23444CE
:202440007B199C420FD32A4639463046FFF7A2FF00224046D8F80030C8F804A003F80A20FB
:2024600003B0BDE8F08FBC4203D82A4607EB0B01CEE7E41B224639463046FFF78BFF2A1B68
:2024800071193019C5E73B462246494640460095FFF7EEFEDCE7B9F1000FD0D0C8E700BFBE
:2024A00040A000082DE9F04104460F461546084A1E46FFF752FF62680146D21BAA42334693
:2024C00028BF2A462046BDE8F041FFF76FBF00BF59A0000807B55368009313680022FFF7E8
:2024E000E1FF03B05DF804FB73B50546104614460E4603F097FA23460090002231462846FA
:20250000FFF7D0FF02B070BD38B551EA000305462AD0002928DBFDF7D3FF0446A0FB0505C6
:20252000002304FB0151174A02F032FF0246EFF3058373B16FF00505102004F01BF80446E3
:2025400003F078FA294602460F4B204603F01CFB0BE0FDF791FF0028ECD11046DFF82CC028
:2025600000DF05460028E7D138BD2046084A094904F09AFB0546204604F012F8284602F0BA
:20258000DFF900BF40420F0072A0000869090008A171000848A40008F0B5002713680646DE
:2025A0008BB00C2017600C46009304F0DDFB009B07604360077205461C22394603A8009724
:2025C00005F042F801230293E36801932368059363680693A368ABB10793EFF305821AB970
:2025E000FDF74AFF80B12A60102003F0C3FF064603F020FA4FF0FF310246184B304603F022
:20260000C3FA11E01823E7E729461548DFF854C001AA00DF28600028E6D068463560FEF724
:2026200039FE30460BB0F0BD30460F4A0F4904F03BFB044603E00446304603F0B1FF281D5F
:20264000FEF728FE0C21284603F038FF6846FEF721FE204602F074F90446F7E77AA00008C9
:202660004D180008750F0008A171000848A400082DE9F0412B4D0F46D5F88811044686B059
:2026800005F1C00639BB102202A804F0DDFF0C2004F06AFB244B0190C0E9003601AA684621
:2026A00002A9FFF779FF01A8FEF7F4FD042004F05BFB009AD5F8888102600022C5F88801CA
:2026C00000920292B8F1000F1ED102A8FFF7FEF86846FFF7D7F80023384602A90493FDF74D
:2026E00088FD611D06EB011102A8FDF782FD02A8FEF7D6FD06B0BDE8F081044601A8FEF791
:20270000C9FD204602F01CF94046FFF7BBF80421404603F0D3FED8E704466846FFF7B2F891
:20272000EFE700BF78010020B89700082DE9F047D1E900970446202090461E4604F014FBAF
:202740004FF0000A05460146C0F808A04046FDF737FDAB68C5E90697C5F810A09BB9102041
:2027600003F008FF064603F065F96FF0030102462D4B304603F008FA30462C4A2C4904F0DF
:2027800093FA044643E059EA070313D0002F11DA102003F0EFFE064603F04CF96FF00301FE
:2027A0000246244B304603F0EFF930461F4A204904F07AFAEFF3058222B9FDF75DFE034685
:2027C00070B12A61102003F0D5FE064603F032F94FF0FF310246184B304603F0D5F90DE0AF
:2027E0002A461648DFF858C086F0010100DF28610028E7D020462560BDE8F08730460B4A8B
:202800000B4904F051FA0446304603F0C9FE2846FEF746FD2846202103F050FE204602F0BD
:202820008FF8F0E7EFE700BF86A00008A171000848A400089EA00008BFA00008212E000865
:202840008D0E000838B5EFF3058373B16FF00505102003F08FFE044603F00CF92946024648
:202860000E4B204603F090F90BE0FDF705FE0028ECD16FF00040DFF828C000DF051EE7DB34
:2028800038BD2046074A084904F00EFA0546204603F086FE284602F053F800BFCAA000083B
:2028A0003D0A0008A171000848A40008002200232DE9F04F0646002587B0CDE90223CDE9E8
:2028C00004239A4FDFF86882002D00F0998004A902A8FDF755FCDDE9043440B2002804DC5D
:2028E000D91944F10002CDE9021202980399C01A61EB040100238D4A02F04AFD4FF47A7420
:20290000A0FB042004FB010452EA040313D0002C11DA102003F02EFE044603F08BF86FF049
:2029200003010246834B204603F02EF92046824A824904F0B9F9FDF7C3FD8146EFF3058375
:20294000002B40F0EF80FDF797FD8246002840F0E980A9FB0201002309FB0411734A02F00A
:2029600017FD51460246DFF8D8C16FF0004000DF04460AB9C21C33D0002C11DAA31C2FD0B3
:20298000102003F0F7FD054603F074F8214602466C4B284603F0F8F82846674A6749C8E741
:2029A0004FF00009FFF74EFF04A804F089FAB9F1000F52D02C464FF000094FF0010A049BEB
:2029C000059A13EB080342F10002CDE9023215F0010F09F1010B4FEA550574D1D946F6E741
:2029E0004FF00109DEE70546204603F0D9FD284601F0A6FF0446284603F0D2FD2046F7E78D
:202A0000EFF3058373B16FF00504102003F0B2FD054603F02FF8214602464A4B284603F0E4
:202A2000B3F8B9E7FDF728FD0028ECD16FF0004029464FF0FF32DFF808C100DF041EE4DB6F
:202A4000FFF700FF04A804F03BFA049B059A13EB080342F10002CDE902322C43A1464FF0B1
:202A6000000A4FF0010BB9F1000F59D009F00103D4464FEA59090AF1010A002BF6D00BFA71
:202A80000CF32B42EFD170680CF1160E00EBCE03019350F83A3000EBCA02A3FB07135268E6
:202AA0000CF1050C07FB0233049A8A18059940F83E20019A43EB0103536000EB0C10FEF7E1
:202AC000FCFBD0E796E7716809F10200030101EB001082680AB904F049FA01EB0911CA6AD8
:202AE00001939047A0B1019B7268603313449968019389B109F1160102EBC10104A8FDF78B
:202B00003FFB40B2002807DD019B1846FEF7D5FB0AFA09F924EA0904D946002D7FF457AFD8
:202B20002546D1E66FF005042AE700BF40420F0080F0FA02DDA00008A171000848A40008AB
:202B4000710A0008F9A00008FFF7D5BA0B46012B10B41146044602D1227010BC7047002BD7
:202B6000FBD01A4610BC04F06FBD37B50F2904461546019106D9002201A9FFF778FA019B34
:202B80002060A360019919B12A462068FFF7DEFF0021019B22686360D15403B030BD2DE99E
:202BA000F34116461D4604462A461B4B0F463146FFF789FA234653F8080B626898420CBF87
:202BC0000F23A368A5EB0608904443451BD3F319D21A06D0AE4204D0384481192844FFF7C6
:202BE000D9FB35B1206829469DF820203844FFF7ADFF002220462368C4F8048003F80820BB
:202C000002B0BDE8F08100233246394620460095FFF72EFBE5E700BF0BA1000807B500922B
:202C20000B4600224168FFF7BAFF03B05DF804FBF0B5026806468DB0EFF305836BB16FF045
:202C40000504102003F096FC054602F0F3FE1E49074606A8FFF783FA0EE0FDF70DFC0028A0
:202C6000EDD110464FF0FF31DFF860C000DF04460028E6D10DB0F0BD6846326806A902F07F
:202C8000C9FF6B463A462146284602F03BFF6846FFF710FA06A8FFF70DFA28460C4A0D49C7
:202CA00004F002F804466846FFF704FA06A8FFF701FA284603F074FC204601F041FE0446EA
:202CC000F4E70446F5E700BF28A10008D9080008A171000848A40008F0B5026806468DB0D4
:202CE000EFF305836BB16FF00504102003F042FC054602F09FFE1D49074606A8FFF72FFA2B
:202D00000CE0FDF7B9FB0028EDD11046DFF860C000DF04460028E8D10DB0F0BD6846326830
:202D200006A902F077FF6B463A462146284602F0E9FE6846FFF7BEF906A8FFF7BBF928467C
:202D40000C4A0D4903F0B0FF04466846FFF7B2F906A8FFF7AFF9284603F022FC204601F06A
:202D6000EFFD0446F4E70446F5E700BF37A100086F070008A171000848A40008F0B50269E1
:202D800006468DB0EFF305836BB16FF00504102003F0F0FB054602F04DFE1D49074606A8C5
:202DA000FFF7DDF90CE0FDF767FB0028EDD11046DFF860C000DF04460028E8D10DB0F0BD5E
:202DC0006846326906A902F025FF6B463A462146284602F097FE6846FFF76CF906A8FFF7AB
:202DE00069F928460C4A0D4903F05EFF04466846FFF760F906A8FFF75DF9284603F0D0FB9A
:202E0000204601F09DFD0446F4E70446F5E700BF46A10008610B0008A171000848A4000846
:202E200010B504460069FDF7BAFE58B1A3680BB904F09CF82046E368984718B92046BDE8A2
:202E400010409BE710BDF0B506688DB08EB9102003F090FB044602F0EDFD6FF002010246BE
:202E6000304B204602F090FE20462F4A2F4903F01BFFD6E90615FDF723FB0446A0FB0101BA
:202E8000002304FB05112A4A02F082FA32690146EFF305836BB16FF00504102003F06AFBC0
:202EA000054602F0C7FD234907466846FFF757F90CE0FDF7E1FA0028EDD11046DFF878C05E
:202EC00000DF04460028E8D10DB0F0BD6946326906A802F09FFE3A462146284606AB02F0FF
:202EE00011FE06A8FFF7E6F86846FFF7E3F828460D4A0E49BBE7044606A8FFF7DBF8684695
:202F0000FFF7D8F8284603F04BFB204601F018FD0446F4E70446F5E70546204603F040FBAE
:202F20002846F3E752A10008A171000848A4000840420F005FA10008190B0008F0B504686A
:202F40008DB0002C51D0EFF305836BB16FF00506102003F00FFB054602F06CFD244907466A
:202F600006A8FFF7FCF815E02269FDF785FA0028ECD11046DFF87CC000DF06460028E7D16D
:202F80002046FEF78DF9202120460DB0BDE8F04003F094BA6846226906A902F03BFE6B4612
:202FA0003A463146284602F0ADFD6846FFF782F806A8FFF77FF828460F4A104903F074FE52
:202FC00008E06846FFF776F806A8FFF773F8284603F0E6FA2046FEF763F92021204603F056
:202FE0006DFA03F0FBFDEFE7F1E70DB0F0BD00BF7DA1000849120008A171000848A4000811
:203000000346002010B50A6808601C681A6044B12046FFF793FF2046BDE81040042103F054
:203020004DBA10BD10B5046844B12046FFF786FF2046BDE81040042103F040BA10BD10B5B6
:203040000446C830FEF742FC04F1A000FEF728F904F19000FEF724F904F18000FEF720F936
:2030600004F17000FEF71CF904F16000FEF718F904F15000FEF714F904F14000FEF710F90C
:2030800004F13000FEF70CF904F12000FEF708F92046FFF7C7FF204610BD10B504460C3066
:2030A000FFF7C0FF204610BD10B504460430FFF7B9FF204610BD30B5354C89B0E36D002BEA
:2030C0002CD131A1D1E90001324ACDE902010792314A02A9069201A804AAFFF727FB04A8BF
:2030E000FEF7DEF8042003F03FFE019B04900360002304A904F15C000193FFF781FF04A847
:20310000FFF790FFE06DFFF79EFE01A8FFF716FF224809B0BDE83040FDF778B91B68D3B133
:203120001869FDF73CFDB0B1E36D186888B9102003F020FA044602F07DFC6FF002010246D3
:20314000174B204602F020FD2046164A164903F0ABFDFFF713FEE06DFFF775FED8E7054611
:20316000204603F01DFA284601F0EAFB044604A8FEF796F82046F7E7044601A8FFF7DEFE19
:20318000F8E700BFAFF30080404B4C00000000007801002035040008A9010008900100205B
:2031A0008BA10008A171000848A4000830B5274D0446D5F89C3189B0A3B94FF47A73A4FB2C
:2031C000034003FB0101224BCDE902410493214B04AA0793204B02A9069301A80023FFF78A
:2031E000A5FA09E01B68002BE7D01869FDF7D7FC0028E2D009B030BD04A8FEF751F804200C
:2032000003F0B2FD019B04A903600023049013480193FFF7F5FE04A8FFF704FF0C48FDF7E4
:20322000F5F8D5F89C01FFF70EFE01A8FFF786FEE0E7044604A8FEF733F8204601F080FB63
:20324000044601A8FFF77AFEF7E700BF7801002008030020450400082502000814030020F5
:2032600038B50446FFF727FF25682846FFF7E0FC0A4805F0C7F832200021FFF797FF0A22FD
:20328000636828461A60FFF727FD38BD04462846FFF722FD204601F053FB00BF97A10008FB
:2032A00038B50446FFF707FF25682846FFF7C0FC0A4805F0A7F8C8200021FFF777FF0A22A7
:2032C000636828461A60FFF707FD38BD04462846FFF702FD204601F033FB00BFA9A1000809
:2032E00038B505460D48FDF75EF80D4C237A88B1642B01D9013B2372FFF7DDFE217A0948D1
:2033000005F080F814200021FFF750FF0A222B681A6038BDB32BEFD80133ECE71803002091
:2033200004000020BFA1000808B503200021FFF73DFF012008BD00232DE9F04393B0CDE983
:203340000E33019302230D93AE4B0C93EFF3058222B9FDF791F8034670B10192102003F05A
:2033600009F9064602F066FB4FF0FF310246A64B304602F009FC0CE0DFF890C20CA800DFEF
:2033800001900028EAD0322000210293FFF70EFF11E030469E4A9F4903F086FC06E00546D2
:2033A0000C46304603F0FCF828462146012900F09D8101F0C5FA0022974C002384F8942049
:2033C000A4F896204FF08B42C4F8A020934AC4F89C302267924AC4F8B0306267914AC4F84D
:2033E000A830C4F8AC30C4F8A430A367C4F88020C4F890308C4AC4F88C308C4BC4F8842066
:203400000F938B4A8B4B20460CA9C4F888200E93FEF71EF80CA8FDF743FF874B0CA90F9321
:20342000864B04F10C000E93FEF712F80CA8FDF737FF01A8FFF7FCFB814804F0E3FF01A85E
:20344000FFF74AFCFFF737FE00217E48FFF75CF801AB0C937C4B02AD0F937C4B00200CA9D5
:203460000D950E93FFF704F90CA8FDF719FF01ABCDE90635764B4FF4FA620993754B0CA948
:2034800008930023C4E93223002306A80E93FCF7B0FE04F5A0710CA8FCF7ABFE0CA8FDF757
:2034A000FFFE06A8FDF7FCFE6B4B01200F936B4B0CA90C950E93FFF7DBF80CA8FDF7F0FEEE
:2034C000674B684A0F93684B04A90E93002303A8CDE9042300230CAAFFF728F90CA8FDF7A2
:2034E000DFFE03A8FFF7AFFC002500264FF07C594C4FDFF8788100215D48FFF705F8029B83
:20350000002B4FD13946284601F0EAFD0146284601F028FC41460546D4F8980001F0E0FDCD
:20352000014601F029FD294601F01EFC002E054614BF3046012001F0CBFC064639462846DF
:2035400001F0CEFD314601F0CBFD314601F00CFC494601F011FD01F0D5FE064601A8FFF7D2
:2035600067FB94F894203AB14249D4F8B00001F0A1FE021E18BF012231463F4804F042FFDA
:203580003E49D4F89C0001F0ABFD3D4901F0F4FC01F0B8FE01463B4804F034FF01A8FFF705
:2035A0009BFBA8E7013B0293A5E705460CA80C46FDF776FE2A462146019CEFF30583002BC7
:2035C00064D06FF00505102002F0D4FF044602F031FA2D4906460CA8FEF7C1FD63E0E4E7BB
:2035E000E3E7E2E7E1E7054601A80C46FFF774FB03A8FFF7A3FCDDE705460C46F8E70246FD
:20360000DAE700BFCCA10008D2A10008250E0008A171000848A400087801002000803B4459
:2036200000007041000020411A34CCC38D3800081A34CC43750200089D3800088D0200087E
:20364000DDA1000820A1070061320008A5020008A1320008CD020008E1320008F502000806
:2036600029330008C0C62D0015030008DB0FC940A08601000AD7233CEAA10008DB0F4940B3
:203680000000344301A2000817A20008FCF7F4FE002896D12046DFF87CC000DF0546002808
:2036A00091D1104682E6019A0CA906A802F0B2FA32462946204606AB02F024FA06A8FEF79D
:2036C000F9FC0CA8FEF7F6FC2046134A134903F0EBFA06A8FEF7EEFC0CA8FEF7EBFC2046E0
:2036E00002F05EFF03F07AFAF6E7F8E702F099FF03689B6898470146094804F083FE02F082
:20370000B9FF13B0BDE8F083044602F0B3FF20464FE600BF39110008A171000848A400086E
:2037200025A2000808B5EFF3058313B1054B586908BDFCF7A1FE0028F8D1DFF80CC000DFF4
:20374000F6E700BF400000206D04000870B5154C0546B4F8541004F15602D2E85F3F994293
:2037600002D8BFF32F8F04E0581CC2E8560F06B1F3E79BB2994203D82946022002F012FB74
:2037800004F15800FCF7F7FEE36D43F82050637A23B94FF08052044B5A6070BD0123A372C0
:2037A000FBE700BF4000002000ED00E0F0B5026806468DB002B11268EFF3058373B1BAB975
:2037C0006FF00304102002F0D5FE054602F032F92A4907466846FEF7C2FC25E0FCF74CFEC3
:2037E0000028ECD11046DFF898C000DF044614E01378F12BE4D10029E2DB5378042B10D026
:2038000002F1280353E8000F40EA010443E8004505B1F7E71046FFF799FF002CD2DB0DB093
:20382000F0BD6FF00204CDE7326802B11268694606A802F0EFF93A462146284606AB02F0CC
:2038400061F906A8FEF736FC6846FEF733FC28460C4A0D4903F028FA044606A8FEF72AFC25
:203860006846FEF727FC284602F09AFE204601F067F80446F4E70446F5E700BF2DA20008F3
:20388000D7090008A171000848A40008024B0121D3F888018AE700BF78010020024B022136
:2038A000D3F8880182E700BF780100202DE9F74F2C4E746C002C4FD04FF000094FF0F90B67
:2038C0007369DFF8A4A001932369013B23612369002B3FD1E3680BB1A2689A60F76C736405
:2038E00004F11808EFF3058333B18FB9B36921460320736102F056FAFCF7BEFD0246002843
:20390000F3D1384641461346D44600DFC0B1EDE73B78FA2BEAD107F10C00FDF76CFA05460B
:203920000028E3D041467A6A0C3003F065FE2846C5E9018785F800B0A5F80290FFF706FFB4
:20394000E378DB070BD520466169FDF7B7F8746C002CBCD1019B736103B0BDE8F08F012373
:203960006370F4E740000020C7150008FCF797BD38B54FF0E023514D1B69EB68EC6A0133E0
:20398000EB6004B3E369013BE361E3B96378732B7ED007D8532B6DD0632B72D0432B05D148
:2039A00023463FE0832B7AD0932B7FD02046FCF73EFEFCF755FE246924B1E369002BE5D011
:2039C00000236361EC620020FCF79AFE2B6D03B198472A6C002A6FD0AB69E96B994203D0C7
:2039E000D969EB6301B9DA61DA69002A60D12B7A022B61D16C6A002C5ED0EB6B94F920204D
:203A000093F920309A4257D12046FCF710FEE86BFCF726FE2046FCF763FE2B6CEC63E36111
:203A20004AE0DB681A78F12AFBD0BFE7DB681A78F12AFBD0DA789007B8D5D86890F92120C0
:203A4000C36AD978890709D599688C4208BFA16821B191F920108A42B8BF0A465B69002BCD
:203A6000EFD190F920309342A0D080F82020FCF7E7FD9BE72346DAE7DB681A78F12AFBD072
:203A800094E72346F9E7DB681A78F12AFBD08DE72346F9E7DB681A78F12AFBD086E7234659
:203AA000F9E7DB681A78F12AFBD07FE72346F9E7013ADA61002A9AD038BD00BF400000209E
:203AC00070B5224C04F1560504F15A06B4F85410D5E85F3F13B9BFF32F8F04E05A1EC5E8FE
:203AE000502F00B1F4E79BB25BB33046FCF743FDE36D53F8200020B30378F13B082BE5D892
:203B000001A252F823F000BF2D3B0008CD3A0008333B0008CD3A0008CD3A0008373B000859
:203B20003B3B0008CD3A00083F3B0008236E9847CCE7636EFBE7A36EF9E7E36EF7E7236FEE
:203B4000F5E70020BDE87040FCF7DABD40000020036B826B934205D21868034BC31A5842DE
:203B60005841704700207047A52E5AE238B5144C237A022B22D1636A03B36569E86AFCF76F
:203B800049FE2846FCF718FF04F11C00FCF746FDFCF7A6FDEFF309832846AB63FFF7D8FFD2
:203BA00028B9A36929460120636102F0FBF8002328466361BDE83840FDF712BB38BD00BFF8
:203BC0004000002010B50446002845D00378F12B42D1437803F00F03022B06D0032B2BD0A3
:203BE000012B26D06FF0020031E01D4B1A7A022AF8D15B6A002BF5D0E06AFCF70BFE2046DF
:203C0000FCF7DAFE6378022B22D1154901F11C00FCF704FDFCF764FDEFF309832046A36350
:203C2000FFF796FF68B98B6901204B61214602F0B9F8FCF7FCFCDFE7FCF7F9FCFCF718FD6C
:203C4000DAE700234B612046FDF7CAFA002010BD0020FCF755FDF6E76FF00300F7E700BF88
:203C6000400000207047FEE7FEE7FEE7FEE770473F4B82B01A6842F480721A6099683D4A7A
:203C80000A409A601A6822F0885222F001121A601A6822F480221A609A6822F47D029A608E
:203CA0000022DA60009201921A6842F001021A601A6802F002020192009A01320092019A4D
:203CC0001AB9009AB2F5A04FF2D11B6813F0020318BF01230193019B012B43D14FF4006184
:203CE000254B1A68A3F5806342F00402C3F80024D3F8002442F00202C3F80024D3F800244D
:203D000042F00102C3F800245A6A42F080525A621A4A11605168C906FCD49A689A609A68E0
:203D200042F460529A609A689A609A6822F47D029A609A6842F408029A601A6842F0807232
:203D40001A600B4B1A689201FCD59A6822F003029A609A6842F003029A609A6802F00C0265
:203D60000C2AFAD14FF00062054B9A6002B07047003802400CC0FF88003C024000700040F3
:203D800000ED00E01EF0040F0CBFEFF30880EFF30980816911F8021C00292ED101B590E82E
:203DA0000F10E047BDE80050CCF80000224B93E80600914208BF70471A60A9B1ACF1200C28
:203DC000C1F838C006B40846FFF7C2FE06BC38B9012001F0E7FF184B5A681A60002103E026
:203DE000D1F838C08CE8F00F1400A06B6FF0020EB0E8F00F80F309887047104A13689942FF
:203E0000FAD801B552F821C00FC8E047BDE80050CCF80000704701B5FFF752FEBDE801409F
:203E2000EFF3098CC2E701B5FFF7A2FDBDE80140EFF3098CBAE7000054000020B098000855
:203E400003685A004CBF43F0004323F000431844704700BF2DE9F84339B34F1E04461546A5
:203E60003E464FF0000808EB060101EBD171491004EBC1094846FFF7E3FF0346C80008308E
:203E80008F4220440BD0AB420BD8FFF7D9FF0138A84201F10108E6D34846BDE8F883AB4202
:203EA000FAD9884501D04E1EDDE74FF000094846BDE8F883012807D0022807D0044B0028F3
:203EC0000CBF1846002070470248704702487047A5450008A9450008AD45000830B5244BAA
:203EE000044683B08D1E3BB3284601A9AFF30080E8B101992A46FFF7ADFF0146B8B1FFF787
:203F00009FFF4B68A064012B2ED0002B27DB081DFFF796FF0023C4E913030368002B12DBDC
:203F2000FFF78EFF03460020236103B030BD00230920236103B030BD0E4B0F491846C91A0F
:203F4000C9100191D6E7C3F30360FFF7B3FF0028034614BF00200920236103B030BD0123A3
:203F6000081DC4E91303D8E7002305202361DCE70000000030B1000840B40008036810B5F6
:203F8000DA07044606D49B0700F1480009D500F05DFC2368590709D51A070ED5DB0613D584
:203FA00010BD00F04BFC23685907F5D404F1D00000F054FC23681A07F0D404F5A87000F0D3
:203FC00055FC2368DB06EBD404F5E870BDE8104000F090BC092070470346006800B1184445
:203FE000704700BF704700BF70B504460E462046316CFFF773FF054698B9D6F840C03246C5
:20400000214601202369C4F814C098470828EED0072806D12846316CFFF7E4FF301D00F008
:2040200001FC03F0B5FA00BF2DE9F0474FF0000AADF5727D0DF10C0E01F1040CC768D0F8EA
:20404000188006461446BCE80F00AEE80F00BCE80F00AEE80F00BCE80F00AEE80F009CE896
:204060000F0002AD8EE80F00C5F800A021E02B6C4FF4F072294673617AA803F0BDFA3146DD
:20408000504633697AAA9847889C82466C643346324649460120CDE90058B8470446F0B98E
:2040A0004FF4F07228467AA903F0A6FABAF1080F1BD13046296CFFF711FF04F109095FFA18
:2040C00089FA04460028D2D0A96B3346696432460120CDE900584AF01001B84700B1092420
:2040E00020460DF5727DBDE8F087BAF1070FF6D12046296CFFF776FF03A800F093FB00BF77
:20410000406C7047F0B54FF0FF37CB6BF9B00B6401AC01F1040C0E460546BCE80F000FC400
:20412000BCE80F000FC4BCE80F000FC49CE80F0084E80F00009706E06A4629462B69984756
:204140000828044608D128461099FFF7C7FE0028F2D0092079B0F0BD6846FFF70FFF062C6D
:20416000F7D131462846FFF73FFF00BF10B414468461DC6BC16000221C64194610BC53E72D
:2041800070B54369C6680B64AEB90A46036904460D46014602209847072805D008280FD195
:2041A00029462046FFF720FF3046296CFFF71AFF281D00F037FB0122FFF736FF03F0E8F972
:2041C00003F0E6F9C2682AB1D1F83CC00022C1F840C029E796E700BF704700BF8368014674
:2041E0000BB1012018477047012912D009D873B90F2A0CD800EB820042681846009B1A600C
:2042000070470339012994BF012002207047022070470846704700BF002300B585B00A463A
:2042200003A900911946FFF7DFFF039805B05DF804FB00BF012912D009D873B90F2A0CD875
:20424000009900EB820209681846516070470339012994BF01200220704702207047084645
:20426000704700BF002310B584B003AC039200940A461946FFF7DEFF04B010BD70B54FF06D
:20428000FF36D36BADF50E7D13640DF15C0E02F1040C05460C46BCE80F00AEE80F00BCE803
:2042A0000F00AEE80F00BCE80F00AEE80F009CE80F008EE80F00169612E00C2116A86A46A1
:2042C000FFF7D0FF214616A8A84778B969460820049B16AA98470528064608D0092805D068
:2042E00068462699FFF7FAFD0028E6D0092616A8FFF744FE30460DF50E7D70BD2DE9F04FDC
:204300001E46CC6C89B054F8043B0D46174600F003080694002E79D002228DF81C201A0C76
:204320008DF81D201B04D2B2059304EB82042B6DB8F1020F08BFAC6B13F001030CD038467A
:2043400005A900F071FB18B9082009B0BDE8F08F092009B0BDE8F08FD4F800A0BAF1000F51
:20436000EDD0019300F008030293022E4AD0B4F800A0B4F802900434AA6C0F21384629F073
:20438000010B9344FFF748FF834539D82AF001025A44824294BF002001204FEA490303F099
:2043A00002030AF0010A43EA0A03012B49D0022B32D0002BCCD1B8F1000F02D0002840F09B
:2043C000CE800434D4F800A0BAF1000FCDD1384605A900F029FB0028BAD1019B002BB3D056
:2043E0000F213846FFF718FF0E2102463846FFF739FF38460F216A4AFFF734FF0720A8E79E
:204400000020CAE7D4F804900834B5E71B0205930323ADF81C308AE7236823F0004BB8F1C4
:20442000000F45D128B1029A002A5CD0BBF1000F74D0002B00DA04340BF1010B04EB8B04CA
:20444000C0E7B8F1000F19D1B0B163682268991C4FEAD2723FF47CAF05F1580101330491B5
:2044600000F09180201DFFF7B7FD04AB0146284602F0F4FE00285CD10834A3E70D21384645
:20448000D5F82090FFF7C8FE8145F5D1AB6A9C42F2D12046FFF7D4FC0F2102463846FFF789
:2044A000E1FE38462A460021FFF7DCFE072050E70D213846D5F82090FFF7AEFE814501D07E
:2044C0002368B6E7AB6A9C42FAD104230022C5E90B23E318C5F828B06B632368002B5ADB88
:2044E00001230193A8E705F15803CDF80C809146B04604F1040A1E460EE050460496FFF78B
:204500006BFD0022014604AB284609F101090AF1040A02F0A3FEE8B9D945EED10D213846E3
:20452000FFF77AFE0346049A0620C5E909242B620FE781460D213846FFF76EFEB9F1020F12
:20454000286225D12B46049A43F82C2F6B620620AC62FEE646462368DDF80C8069E7204623
:20456000FFF76EFC02460434AC632846144602F0D3FE00283FF4ECAE384622460F21FFF7C0
:2045800071FE0720E5E60D213846FFF745FE2862049B6B62DBE70BF1010004EB800079E751
:2045A000AB7300080023A9E60123A7E60223A5E62DE9F043064615461C46C3B0042900F2DE
:2045C000B880DFE801F09C56B62D0300002C40F0B080102A00F2AD800368D80600F1F18083
:2045E00020AF384600F090F9012438460023B16B04FA03F22A4203F1010305D00A4652F84D
:2046000004CB1146C0F800C0042B00F10400EFD13846B16300F06EF9002043B0BDE8F08304
:20462000032C40F0868094B204EB1243102B4FEA12457ED803681F0700F1CB8020AF384650
:2046400000F036F9B26B07EBC50154B10B4601EBC401D01AE4001D5843F8045B8B42FAD1EA
:2046600022443846B26300F001F9002043B0BDE8F083012C4FEA124895B256D0052C58D1A5
:2046800008EB0509B9F1200F53D8B8F10F0F73D9A946002D40F08480B36B65B320AF4FF06E
:2046A000000907EBC807043F03EBC50553F8041BAB4247F8041FF9D1B9F1000F0FD06F4665
:2046C0004146102938BF102107EBC101843903EBC90553F8040BAB4241F8040FF9D1012C3B
:2046E0007FD0B8F10F0FB56342D9B9F1000F02D0684600F0B3F8002043B0BDE8F083C4B9F5
:2047000023460124826B371DA8B204FA03F101421CBF52F8041B47F823100133102BF4D151
:2047200015F40050E7D1B26304E008EB0503102B03D9022043B0BDE8F083B8F10F0FF8D899
:204740003368DA0706D5304623F0030340F8483B00F078F820AF384600F074F8B36B002D64
:204760009DD11D4604353846B56300F067F8C2E720A800F06BF8B8E7B9F1100F3FD9A9F16C
:2047800010093368D90708D5304623F0010343F0020340F8483B00F05DF8B9F1000F31D029
:2047A00033685A071FD4B8F10F0F24D96F46C8F11005384600F056F8002DB36B80DD20AF90
:2047C0006FE723F01003336006F5E87000F09CF806E723F00803036000F5A87000F068F828
:2047E0002CE720AFBEE7304623F0040340F8D03B00F038F8D7E720A800F02CF8D6E74FF0A9
:204800000009BEE7B8F10F0F3FF646AF20AF384600F020F8B36B002D7FF441AF384600F088
:2048200015F868E700F1340191E838009C46A6464CF8045D90E8FF0FE54600BD90EC210BBC
:20484000704700BF80EC210B704700BF90EC200B704700BF80EC200B704700BFD0EC200BC3
:20486000704700BFC0EC200B704700BFF0EC0201F0EC0211F0EC0221F0EC0231F0EC02417A
:20488000F0EC0251F0EC0261F0EC0271F0EC0281F0EC0291F0EC02A1F0EC02B1F0EC02C1E0
:2048A000F0EC02D1F0EC02E1F0EC02F1704700BFE0EC0201E0EC0211E0EC0221E0EC0231A9
:2048C000E0EC0241E0EC0251E0EC0261E0EC0271E0EC0281E0EC0291E0EC02A1E0EC02B1A0
:2048E000E0EC02C1E0EC02D1E0EC02E1E0EC02F1704700BFB0FC0181B0FC0191B0FC01A1EC
:20490000B0FC01B1704700BFA0FC0181A0FC0191A0FC01A1A0FC01B1704700BFEC4600B58E
:204920002DE900502DE9FF1F4FF000032DE90C0001A9FFF7E7FBDDF840E012B0704700BFCA
:20494000EC4600B52DE900502DE9FF1F4FF000032DE90C0001A9FFF713FCDDF840E012B00C
:20496000704700BFEC4600B52DE900502DE9FF1F4FF000032DE90C0001A9FFF723FCDDF848
:2049800040E012B0704700BFEC4600B52DE900502DE9FF1F4FF000032DE90C0001ABFFF738
:2049A000E5FBDDF840E012B0704700BFEC4600B52DE900502DE9FF1F4FF000032DE90C0005
:2049C00001AAFFF75BFCDDF840E012B0704700BF027A03467AB9427AA2B14FF0030C4168B4
:2049E000013A427208680A1D5A60020283F808C0000E1A6070470068013A1A7202021A6044
:204A0000000E7047B0207047002300B585B003A900910C221946FFF7E7FB039805B05DF8F6
:204A200004FB00BFF0E700BF2DE9F0434FF0000805460E4685B03046FFF7CAFFB028044667
:204A400000F0BA80070620D500F0F003802B4DD0902B36D0A02B60D0B02B73D0C02B00F0CA
:204A60008A8000F0F803D02B0BD100F00702013205230121284642F40022FFF799FD00287A
:204A8000D9D0092005B0BDE8F0838300DBB21F1D00230DF10C0919460D222846CDF80090A4
:204AA000FFF7A2FB039B60064CBFDF1BFF1800230D2228461946CDF800900397FFF7BAFB8A
:204AC000B9E700F00D030D2BDBD0002303AF194600F00F0200972846FFF786FB00230D2250
:204AE000284619460097FFF7A5FBA4E73046FFF76FFF24022043B0F5004FC2D00023040120
:204B000019462846A2B2FFF753FD0028B9D114F4004F18BF4FF001088DE7C3434FF47F6268
:204B200003F007031A410023010702F47F6248BF42F4804228461946FFF73AFD00283FF4C7
:204B40007AAF9EE7B1283CD0B22800F0B080B3284AD000F0FC03B42B93D0012300F0070285
:204B60001A442846194642F40022FFF721FD00283FF461AF85E7C6284FD0C72861D000F0AA
:204B8000F803C02B70D0C8287CD0C9287FF479AF3046FFF71DFF0523024601212846140388
:204BA00002F00F0204F470240A442243FFF700FD00283FF440AF64E7B8F1000F1CD0002067
:204BC00060E73046FFF704FF024600283FF459AF10F0F0037FF455AF19462846FFF7E8FC63
:204BE00000283FF428AF4CE73046FFF7F1FE0123024619462846D2E703AC43460E22414614
:204C000028460094FFF7F0FA43460F22284641460094FFF70FFB404634E73046FFF7D8FE8C
:204C200002460323140302F00F0204F470240132284619462243FFF7BBFC00283FF4FBAE4A
:204C40001FE73046FFF7C4FE024600283FF419AF10F0F0037FF415AF04212846FFF7A8FC5E
:204C600000283FF4E8AE0CE7032300F00F0201322846194642F42022FFF79AFC00283FF4CA
:204C8000DAAEFEE63046FFF7A3FE0246012102F0F00402F00F0210340A440523284642EAF4
:204CA0000432FFF785FC00283FF4C5AEE9E600230DF10C090D2219462846CDF80090FFF72D
:204CC00093FA3046FFF784FE02064FF002040CD5039B00F07F00A040184403903046FFF7E3
:204CE00077FE030604F10704F2D4039B00F07F02A24003F501731A440023039228460D2260
:204D00001946CDF80090FFF795FA94E60B464FF0030C00B5C26C1846536885B00832029242
:204D200001A91A0E1B028DF80CC001938DF80D20FFF77AFE05B05DF804FB00BF08B5FFF704
:204D400071FE806C08BD00BF08B5FFF76BFEC06CC379023300EB830008BD00BF80F0004019
:204D600002E000BF81F0004142001FBF5FEA410392EA030F7FEA226C7FEA236C6AD04FEA43
:204D80001262D2EB1363C1BFD218414048404140B8BF5B42192B88BF704710F0004F40F49F
:204DA000000020F07F4018BF404211F0004F41F4000121F07F4118BF494292EA030F3FD075
:204DC000A2F1010241FA03FC10EB0C00C3F1200301FA03F100F0004302D5494260EB400016
:204DE000B0F5000F13D3B0F1807F06D340084FEA310102F10102FE2A51D2B1F1004F40EB90
:204E0000C25008BF20F0010040EA03007047490040EB0000013A28BFB0F5000FEDD2B0FA11
:204E200080FCACF1080CB2EB0C0200FA0CF0AABF00EBC25052421843BCBFD04018437047B2
:204E400092F0000F81F4000106BF80F400000132013BB5E74FEA41037FEA226C18BF7FEA53
:204E6000236C21D092EA030F04D092F0000F08BF0846704790EA010F1CBF0020704712F0B5
:204E80007F4F04D1400028BF40F00040704712F100723CBF00F50000704700F0004343F09F
:204EA000FE4040F4000070477FEA226216BF08467FEA23630146420206BF5FEA412390EA53
:204EC000010F40F4800070474FF0000304E000BF10F0004348BF40425FEA000C08BF7047D3
:204EE00043F0964301464FF000001CE050EA010208BF70474FF000030AE000BF50EA010241
:204F000008BF704711F0004302D5404261EB41015FEA010C02BF84460146002043F0B64374
:204F200008BFA3F18053A3F50003BCFA8CF2083AA3EBC25310DB01FA02FC634400FA02FC0C
:204F4000C2F12002BCF1004F20FA02F243EB020008BF20F00100704702F1200201FA02FCA5
:204F6000C2F1200250EA4C0021FA02F243EB020008BF20EADC7070474FF0FF0C1CEAD05251
:204F80001EBF1CEAD15392EA0C0F93EA0C0F6FD01A4480EA010C400218BF5FEA41211ED015
:204FA0004FF0006343EA501043EA5111A0FB01310CF00040B1F5000F3EBF490041EAD371C0
:204FC0005B0040EA010062F17F02FD2A1DD8B3F1004F40EBC25008BF20F00100704790F01C
:204FE000000F0CF0004C08BF49024CEA502040EA51207F3AC2BFD2F1FF0340EAC250704715
:2050000040F400004FF00003013A5DDC12F1190FDCBF00F000407047C2F10002410021FAE8
:2050200002F1C2F1200200FA02FC5FEA310040F1000053EA4C0308BF20EADC70704792F023
:20504000000F00F0004C02BF400010F4000F013AF9D040EA0C0093F0000F01F0004C02BF27
:20506000490011F4000F013BF9D041EA0C018FE70CEAD15392EA0C0F18BF93EA0C0F0AD026
:2050800030F0004C18BF31F0004CD8D180EA010000F00040704790F0000F17BF90F0004F31
:2050A000084691F0000F91F0004F14D092EA0C0F01D142020FD193EA0C0F03D14B0218BF41
:2050C000084608D180EA010000F0004040F0FE4040F40000704740F0FE4040F4400070471C
:2050E0004FF0FF0C1CEAD0521EBF1CEAD15392EA0C0F93EA0C0F69D0A2EB030280EA010CC6
:2051000049024FEA402037D04FF0805343EA111143EA10130CF000408B4238BF5B0042F165
:205120007D024FF4000C8B4224BF5B1A40EA0C00B3EB510F24BFA3EB510340EA5C00B3EB5F
:20514000910F24BFA3EB910340EA9C00B3EBD10F24BFA3EBD10340EADC001B0118BF5FEADF
:205160001C1CE0D1FD2A3FF650AF8B4240EBC25008BF20F0010070470CF0004C4CEA502064
:205180007F32C2BFD2F1FF0340EAC250704740F400004FF00003013A37E792F0000F00F0D5
:2051A000004C02BF400010F4000F013AF9D040EA0C0093F0000F01F0004C02BF490011F477
:2051C000000F013BF9D041EA0C0195E70CEAD15392EA0C0F08D142027FF47DAF93EA0C0F02
:2051E0007FF470AF084676E793EA0C0F04D14B023FF44CAF08466EE730F0004C18BF31F083
:20520000004CCAD130F000427FF45CAF31F000437FF43CAF5FE700BF4FF0FF3C06E000BFE1
:205220004FF0010C02E000BF4FF0010C4DF804CD4FEA40024FEA41037FEA226C18BF7FEAF0
:20524000236C11D001B052EA530C18BF90EA010F58BFB2EB030088BFC81738BF6FEAE170B3
:2052600018BF40F0010070477FEA226C02D15FEA402C05D17FEA236CE4D15FEA412CE1D006
:205280005DF8040B704700BF844608466146FFE70FB5FFF7C9FF002848BF10F1000F0FBD02
:2052A0004DF808EDFFF7F4FF0CBF012000205DF808FB00BF4DF808EDFFF7EAFF34BF01207B
:2052C00000205DF808FB00BF4DF808EDFFF7E0FF94BF012000205DF808FB00BF4DF808EDA3
:2052E000FFF7D2FF94BF012000205DF808FB00BF4DF808EDFFF7C8FF34BF012000205DF8BC
:2053000008FB00BF4FEA4002B2F1FE4F0FD34FF09E03B3EB12620DD94FEA002343F00043D4
:2053200010F0004F23FA02F018BF404270474FF00000704712F1610F01D1420205D110F0AA
:20534000004008BF6FF0004070474FF00000704742000ED2B2F1FE4F0BD34FF09E03B3EB8C
:20536000126209D44FEA002343F0004323FA02F070474FF00000704712F1610F01D14202C5
:2053800002D14FF0FF3070474FF00000704700BF7BB972B90029BEBF00204FF0004106E0D5
:2053A00008BF00281CBF6FF000414FF0FF3000F02DBBADF1080C6DE904CE002909DB002B2B
:2053C0001ADB00F04DF8DDF804E0DDE9022304B07047404261EB4101002B1BDB00F040F83B
:2053E000DDF804E0DDE9022304B0404261EB4101524263EB43037047524263EB430300F04E
:205400002FF8DDF804E0DDE9022304B0404261EB41017047524263EB430300F021F8DDF840
:2054200004E0DDE9022304B0524263EB4303704753B94AB9002908BF00281CBF4FF0FF3199
:205440004FF0FF3000F0E2BAADF1080C6DE904CE00F006F8DDF804E0DDE9022304B070477B
:205460002DE9F047089E0D4604468846002B4DD18A42944668D9B2FA82F252B101FA02F38B
:20548000C2F1200120FA01F10CFA02FC41EA030894404FEA1C41B8FBF1F71FFA8CFE01FB4E
:2054A000178807FB0EF0230C43EA084398420AD91CEB030307F1FF3580F01E81984240F295
:2054C0001B81023F63441B1AB3FBF1F001FB103300FB0EFEA4B244EA0344A6450AD91CEB9E
:2054E000040400F1FF3380F00981A64540F20681644402380021A4EB0E0440EA07401EB1FF
:205500000023D440C6E90043BDE8F0878B4208D9002E00F0EE800021C6E900050846BDE844
:20552000F087B3FA83F100294AD1AB4202D3824200F2FC80841A65EB030301209846002E7A
:20554000E2D0C6E90048DFE702B9FFDEB2FA82F2002A40F09180A1EB0C0001214FEA1C4763
:205560001FFA8CFEB0FBF7F307FB1300250C45EA00450EFB03F0A84208D91CEB050503F16D
:20558000FF3802D2A84200F2CE8043462D1AB5FBF7F007FB10550EFB00FEA4B244EA054434
:2055A000A64508D91CEB040400F1FF3502D2A64500F2B6802846A4EB0E0440EA03409EE703
:2055C000C1F120078B4022FA07FC4CEA030C25FA07FA4FEA1C49BAFBF9F820FA07F309FB47
:2055E00018AA8D401FFA8CFE1D4300FA01F308FB0EF02C0C44EA0A44A04202FA01F20BD9C1
:205600001CEB040408F1FF3A80F08880A04240F28580A8F102086444241AB4FBF9F009FB93
:20562000104400FB0EFEADB245EA0444A64508D91CEB040400F1FF356CD2A6456AD9023893
:20564000644440EA0840A0FB0295A4EB0E04AC42C846AE4656D353D0002E69D0B3EB080212
:2056600064EB0E0422FA01F304FA07F71F43CC40C6E90074002147E70CFA02FCC2F1200105
:2056800025FA01F34FEA1C4720FA01F195400D43B3FBF7F107FB11331FFA8CFE280C40EA4D
:2056A000034001FB0EF3834204FA02F408D91CEB000001F1FF382FD283422DD90239604435
:2056C000C01AB0FBF7F307FB1300ADB245EA004503FB0EF0A84208D91CEB050503F1FF3870
:2056E00016D2A84214D9023B6544281A43EA014138E73146304607E72F46E4E61846F9E6DE
:205700004B45A9D2B9EB020865EB0C0E0138A3E74346EAE7284694E74146D1E7D0467BE7A9
:205720006444023847E7023B65442FE7084606E73146E9E610B40024224610F801CB0CF0BC
:205740007F0393401CF0800F44EA030402F10702F3D10C6010BC704710B40024224610F81D
:2057600001CB0CF07F0393401CF0800F44EA030402F10702F3D11F2A07D81CF0400F04D025
:205780004FF0FF3303FA02F214430C6010BC7047FF2808B5034619D003F07002302A08463E
:2057A00016D005D8202A09D1BDE8084001F0EDBE402A09D1BDE80840FFF7C0BA02D813F0FB
:2057C000600F03D001F0E4FE502AFBD1002008BDBDE8084001F0D6BEF0B5502815461E463B
:2057E00083B01ED000F00F0304460F460C2B38D8DFE803F0072D33071F373737372723072C
:205800001F00284650F8043B43B104F07002102A08BF2F4622063B4448BF1B68336003B02D
:20582000F0BDD01C20F0030050F8043B336003B0F0BD284650F8083BE6E7284630F9023BA8
:20584000E2E7284601A9FFF787FF019BDCE7284601A9FFF76FFF019BD6E7284630F8023BE4
:20586000D2E701F095FE00BF70B50C460146204615461E46FFF78CFF334601462A46204632
:20588000BDE87040A8E700BF70B506460C46154682B060B3FFF752FA034620462B6010F87E
:2058A000011BFF2912D16B6010F8013BFF2B2B7516D1002301A9EB6010F8013B6B75FFF7CF
:2058C00039FF019B03442B6102B070BD02462B1D3046FFF7C9FF10F8013BFF2B2B75E8D0B8
:2058E00001A9FFF727FF019B0344EB60E4E70346D3E700BF002310B584B003AC0392009433
:205900000A461946FEF796FC04B010BD002300B585B003A900910F221946FEF765FC039805
:2059200005B05DF804FB00BF70B500F0030001280D4614468CB00AD021462846FFF7E6F9F1
:2059400010B908200CB070BD09200CB070BD0A4620460C21FFF7CEFF2046FFF7F5F9014624
:205960000028E9D006AA2046FFF78EFF024620460192FFF7CBFF0A9B019A20F001069A4279
:2059800006F1FF3603D3D7E70A9B8342D4D99DF82D1002AB0020FFF767FF9DF82D1002461B
:2059A00003AB0020FFF760FF04AB02469DF82D100020FFF759FF05A9FFF7BCFE029A069BF2
:2059C0001344B3420246B7D803990B44B342DBD9049B002BB0D0079E9E19ADD02A4600215C
:2059E0002046FFF787FF002201212046FFF782FF2046FFF78BFF024602F0010220460F21EB
:205A00003243FFF777FF07209CE700BF704700BF10F8012B11F8013B012A28BF9A42F7D098
:205A2000D01A7047034613F8012B002AFBD1181A0138704710B50B4C94F85030BFF35B8F69
:205A4000DB070DD404F1500001F07FF940B1064A0649074800F0B9FC04F1500001F081F9A1
:205A6000034810BD7801002000000020251800080400002010B50B4C94F85430BFF35B8F24
:205A8000DB070DD404F1540001F05FF940B1064A0649074800F099FC04F1540001F061F9B9
:205AA000034810BD7801002000000020FD1700080800002038B5044610460B464A68416898
:205AC0000A44194651F8085B8D420CBF0F2199688A4212D9014651F8085B8D420CBF0F212E
:205AE00081688A4209D81A460021FCF7F3FC01462046FCF79FFA204638BD01461846FCF781
:205B000029FCF4E770B592B004460E4606A819461546FCF717FB1A4906A8FCF704FC01E02E
:205B2000044624E02B683246294668461B6998476A4606A90CA8FFF7BDFF20460CA901F0BB
:205B4000E5F90CA8FCF7B6FA6846FCF7B3FA06A8FCF7B0FA0B4BC4E90265236012B070BD9B
:205B600004460CA8FCF7A6FA6846FCF7A3FA06A8FCF7A0FA2046FEF7E3FE0446F4E7CFE704
:205B80006FA000082CA50008F0B515461F46136893B00A4604460E460CA829461B6998477E
:205BA00000211A4A0CA8FCF79FFC014606A8FCF741FA3A46002106A8FCF796FC0146684632
:205BC000FCF738FA6946204601F0A0F96846FCF771FA06A8FCF76EFA0CA8FCF76BFA0C4B89
:205BE000C4E90265236013B0F0BD04466846FCF761FA06A8FCF75EFA0CA8FCF75BFA2046FD
:205C0000FEF79EFE0446F4E70446F5E76FA000082CA50008F0B593B0054606A81446FCF78A
:205C200091FA2822012106A8FCF7F8FF01E0044656E02346012142F20F7042F21072092B4C
:205C400002D9632B07D801310EAB00220CA80C93FCF78BFF0CE0B3F57A7F01D20231F3E7B2
:205C6000834201D80331EFE7B3FBF2F30431E6E76426DDE90C13274F0B44632C0FD9B4FB8D
:205C8000F6F006FB104207EB4202044692F89D0B92F89C2B03F8010C03F8022DEDE7092C8D
:205CA00089BF1C4A303402EB440494F89D3B92BF0C704B7094F89C3B684688BF0B700CAA28
:205CC00006A9FFF7F7FE292201216846FCF7A6FF0FE004466846FCF7EDF90CA8FCF7EAF92D
:205CE00006A8FCF7E7F92046FEF72AFE0446F4E79DE701462846FCF79DF96846FCF7DAF945
:205D00000CA8FCF7D7F906A8FCF7D4F9284613B0F0BD00BF288C0008F0B504468DB01020E9
:205D20000F4600F027FC0646FFF784FE1A49054606A8FCF714FA3A46684606A9FFF76AFF9E
:205D40006B462A4621463046FFF7DCFE6846FCF7B1F906A8FCF7AEF93046104A104900F0C9
:205D6000A3FF0D460BE0044668460D46FCF7A2F906A8FCF79FF9304600F012FC2046012D29
:205D800007D0FEF7DDFD04460D46F1E704460D46F1E700F046FCFEE76CA10008A17100082D
:205DA00048A4000808B5FFF7B7FF00BF514B524A2DE9F043DA60514B8BB01868002302226E
:205DC0001946806801F034FD012320224C494D48FBF7BBFA4B48FAF719FB002304224A49AF
:205DE000A0F5C470FBF7B1FA00234FF4804246494648FBF7AAFA0023022243494448FBF711
:205E0000A4FA01234FF400523F494248FBF79DFA4048FAF7FBFA01233B491A46A0F5D07045
:205E2000FBF793FA3748FAF7FBFA00238DF803309DF80340013CE4B28DF80340002CF7D13C
:205E40003348FAF7EDFA8DF80340334C9DF803305A1C234493F8650CD2B28DF80320FAF7EA
:205E6000B2FE9DF803300D2BF0D9AF20FAF7ABFEB020FAF7A8FE0024254D2846FAF7D0FA1A
:205E8000E0B2FAF7A0FE1020FAF79DFE2846FAF7BDFA01340020FAF796FE102CEDD11C48D7
:205EA000FAF7BEFAB820FAF78EFE0023184C8DF803309DF803305F2B30D82046FAF7B0FA4A
:205EC0009DF8030000F00F00FAF77DFE9DF80300000940F01000FAF776FE2046FAF796FA92
:205EE0000020FAF770FE9DF803300133DBB28DF80330DEE700ED00E00003FA05F40000203A
:205F0000000802402403002000040240A8010020D801002030030020288C0008002501278C
:205F20004FF00409B04CB14E04F16000FAF778FAB020FAF748FE0020FAF745FE1120FAF7E5
:205F400042FE04F16000FAF761FA84F85850F369DFF89C8243F00103F36106A94046A57214
:205F600006978DF81C508DF81F50FAF7E0F9204627702781C4F80480FAF738FA2046FAF776
:205F800063FEF36906A93B43F3614046A575CDF818908DF81C508DF81F50FAF7C8F904F12A
:205FA0000C002773A4F81490C4F81080FAF71EFA04F10C00FAF748FEF3698E4843F0020304
:205FC000F36184F8AA71102706A906978DF81C508DF81F50FAF7ABF9C4F8A40104F5D0703F
:205FE00084F8A051A4F8A871FAF700FA802204F1B4002B468049FBF7A8F9804B06A905936A
:206000007F4B02A804930895FAF7DAF804F1E00106A8FAF7D5F806A8FBF742F902A8FBF75C
:206020003FF9784B06A90593774B02A804930895FAF7C6F804F1F00106A8FAF7C1F806A8E3
:20604000FBF72EF902A8FBF72BF9336A6F4C43F400733362736943F400737361736923F483
:2060600000737361636823F0407323F4807343F480736360A268664B134043F0407343F02A
:206080000203A360236B23F0F8732363236943F007032361236C23F01F0343F00A0323648E
:2060A000A36823F0F00343F07003A360636843F440336360A36843F00103A36023685A06BE
:2060C000FCD500220F211220FAF79AFD63684FF4006243F0200363606FF002032360A36868
:2060E000434943F08043A3604A480123FBF72DF9EFF305839BB1484B187A08BBFAF7CFF9F6
:206100000546E8B1102000F035FA0446FFF792FC29460246414B2046FFF736FD0BE0FAF7D0
:20612000ABF90028E7D1EFF31483DB07E3D5DFF8F0C000DFE1E720463A4A3B4900F0B4FD8B
:206140001022002106A801F07FFA082000F00CFE364B0290036002AA06A901A8FCF71CFA2F
:2061600006E00546204600F01BFA2846FEF7E8FB02A8FBF78FF8EFF30583A3B16FF00504F4
:20618000102000F0F7F90546FFF754FC21460246274B2846FFF7F8FC16E0044602A8FBF709
:2061A00079F82046E2E7FAF767F90028E6D1DFF884C000DF04460028E2D101A8FBF762FBF8
:2061C00020460BB0BDE8F0832846164A164900F06BFD044603E00446284600F0E1F901A8A9
:2061E000FBF750FBDDE700BF7801002000380240000002400004024000080240C50300082A
:2062000045020008D90300085D02000800240140FDF7FFC008030020400000203EA2000859
:206220008F040008A171000848A40008A498000851A20008E718000870B50025454C464E00
:206240004649324604F14000A56400F0BEF820463246434940F83C5F00F0B7F8414A424B5F
:20626000C4F88020414A2367C4F88420404A414BC4F888204FF08B42636700232946C4F8AF
:20628000A02004F1C8001822A367C4F88C30C4F89030C4F89C30C4F8A430C4F8A830C4F8E1
:2062A000AC3084F8AC51C4F8B45184F8B851C4F8C05184F86050A56684F82450E56284F88C
:2062C0003050A563257625622570257384F8A05184F8B450C4F8BC50E567C4F89450C4F88A
:2062E000B030C4F8C05001F0AFF9002300222249C4E95C23C4E95E23C4E9602304F1C0006A
:206300003246C4F8E850C4F8F850C4F80851C4F81851C4F82851C4F83851C4F84851C4F848
:206320005851C4F86851C4F8885100F04EF83246124904F5C870C4E9665584F8905100F0BB
:2063400044F83246E56504F158000D49BDE8704000F03BB87801002000000020AF120008E2
:206360001B1300080000204100803B441A34CCC31A34CC43000070413F3000089B30000852
:20638000A9300008002103E00A4B5B584350043109480A4B42189A42F6D3094A02E000234B
:2063A00042F8043B074B9A42F9D3FDF761FCFFF7FDFC704754B400080000002058010020CA
:2063C00058010020F4880020FEE70B460146184601F0E6B87FB500241023CDE9023403685C
:2063E00015469E69CDE900446B461268B0479DF8043003F00603062B09BF01202046009B3F
:206400002B6004B070BD0098904214BF012006207047000010B50446024B036000F037FDF2
:20642000204610BDA4A2000810B50446FFF7F2FF2046082100F042F8204610BD2DE9F041B2
:20644000DDF818801F46DDE9083498450646154607D1079900F01EFD18B165710020BDE8FD
:20646000F0813946304600F015FD0028F6D00123C4F800802571A371F0E738B515461C463B
:2064800000F008FD20B10823E36006232560237138BD2DE9F04105460C4616461F4600F0FC
:2064A000F9FC48B9032F07D82368324629462046BDE8F0415B691847BDE8F08100F0AEBE92
:2064C000194A70B55368A0F1080423B150F8081C6518AB4203D940F8043C546070BD05D127
:2064E000D3E90035194440E90215F6E704325E684EB1B54202D21A1D3346F8E701BF2E6886
:206500006D6889195D6013681D685E19B44217BF5B68491940F8043C136816BF40F8081CBB
:2065200019605C60DAE700BFB088002000F10803082B38BF082330B50D4A073352F8040F2A
:2065400023F0070368B1D0E900148B420AD9021D2046F7E7C1184C60C5501068036011603F
:20656000083030BDCD1A072DF4D801601460F7E7B088002010B500F18004204601F01EF85D
:20658000034630B92046FFF7D1FF034608B900F025FB80220021184601F056F8803010BDA6
:2065A000064A80389368984205D9D2681344984201D2FFF785BF01F009B800BFB0880020DF
:2065C00038B54FF41E65074C2846E56000F0F6FFA06010B9E060606038BD00236060056017
:2065E0004360F9E7B08800200378472B17D143784E2B14D18378552B11D1C378432B0ED1ED
:206600000379432B0BD143792B2B08D183792B2B05D1C07901288CBF0020012070470020DC
:20662000704738B5044600F04FF8024605682046A4F12001FFF7D8FF28B90DB100F0CEFA40
:206640001160284638BD54F80C3C2046002BB4BFC3F10103013344F80C3C53688D4203F1E0
:20666000FF3353601CBF44F8105C1160656AFDF7B3FDE6E710B500F023F8026801469AB135
:2066800002F120042046FFF7AFFF28B908602046BDE81040FDF7A2BD5369002B05DA0133E8
:2066A00001D110690860536110BD013B02D113690B60ECE7591CF6D100F090FA7047000070
:2066C00000487047C088002000487047C088002000231A4630B510F8015B05F07F049440D4
:2066E00023432C0602F10702F5D40B6030BD00231A4630B510F8014B04F07F0595402B436E
:20670000250602F10702F5D41F2A06D8640642BF4FF0FF3404FA02F213430B6030BD50286D
:206720002DE9F3410646884615461F4608D1D01C20F0030050F8044B3C6002B0BDE8F08162
:2067400000F00F030C2B2ED8DFE803F025071D25292D2D2D2D1821252900284601A9FFF760
:20676000B7FF019C002CE7D006F07003102B08BFA8463306444448BF2468DDE7284601A95A
:20678000FFF7B5FFEDE7284630F8024BEAE7284630F9024BE6E7284650F8044BE2E72846DA
:2067A00050F8084BDEE700F0F3FE08B50346FF2B084610D003F07002302A12D007D8202A70
:2067C0000BD002D813F0600F05D000F0E1FE402A0BD0502AF9D1002008BDBDE8084000F0A3
:2067E000D4BEBDE8084000F0CDBEBDE80840FEF7A5BA70B50C460146204615461E46FFF785
:20680000D4FF334601462A462046BDE87040FFF786BF73B50C461546064628B3FEF78EFA06
:20682000034620462B6010F8011BFF291ED002462B1D3046FFF7DDFF10F8013BFF2B2B75FE
:2068400016D0102301A92B75FFF742FF019B0344EB6010F8013B01A96B75FFF739FF019BD8
:2068600003442B6102B070BD0346DAE76B60E3E70023EDE71FB503AB009300230A461946E9
:20688000FDF7B2FC039805B05DF804FB00232DE9F04F91B0059300F00303012B06460C46A1
:2068A00017460ED0022B03D0002B3BD101073BD539462046FEF72AFA90B3092011B0BDE87E
:2068C000F08F020706D40D6A38460D21FFF7D2FF85422BD00220002306F008060DF1280A31
:2068E00006430C2219463846CDF800A00A94FDF7A1FC062E1CD1D4E90A59D4F83080B8F14A
:20690000000F0CBF4FF0010B4FF0030B16F0080600F00781BBF1010F40F0FF8000F05EF9C7
